:020000040800F2
:1000000000000220299A0108719A01083D1C01088C
:10001000491C0108551C0108611C01080000000072
:10002000000000000000000000000000719A0108BC
:10003000719A010800000000719A0108719A010884
:10004000719A0108719A0108719A0108719A010860
:10005000719A0108719A0108719A0108719A010850
:10006000719A0108719A0108719A0108719A010840
:10007000719A0108719A0108719A0108719A010830
:10008000712501080D270108719A0108719A01086C
:10009000719A0108719A0108719A0108719A010810
:1000A000719A0108719A0108719A0108719A010800
:1000B000719A0108719A0108719A0108719A0108F0
:1000C000719A0108719A0108719A0108719A0108E0
:1000D000719A0108719A0108719A0108719A0108D0
:1000E000719A0108719A0108719A0108719A0108C0
:1000F000719A0108719A0108719A0108719A0108B0
:10010000719A0108719A0108719A0108719A01089F
:10011000719A0108719A0108719A0108719A01088F
:1001200029200108719A0108719A0108719A010841
:10013000719A0108719A0108719A0108719A01086F
:10014000719A0108719A0108719A0108719A01085F
:10015000719A0108719A0108719A0108719A01084F
:10016000719A0108719A0108719A0108719A01083F
:020000040801F1
:1000000080B582B000AF1020012104F043FF0F2320
:100010003B6001233B7102237B710023BB710023F2
:10002000FB713B460348194604F0BCF90837BD464E
:1000300080BD00BF0010024080B584B000AF786082
:10004000102009F06BFD0346FB60FB68002B05D117
:1000500014483021144A154B09F00CFD7B685B00F5
:10006000184609F05BFD03461A46FB681A60FB68F8
:100070001B68002B05D10B4833210B4A0C4B09F0B0
:10008000F9FCFB681A68FB685A60FB681A68FB6831
:100090009A60FB687A68DA60FB6818461037BD46DC
:1000A00080BD00BFE0C5010824C60108F0C50108F5
:1000B00000C6010880B582B000AF78607B68002B75
:1000C00005D108483C21084A084B09F0D3FC7B685D
:1000D0001B68184609F02AFD786809F027FD0837E3
:1000E000BD4680BDE0C5010830C60108F0C5010865
:1000F00080B588B000AFF860B9607A60FB685B6873
:100100007B61FB68002B05D120484621204A214B0A
:1001100009F0B0FCBB68002B05D11C4847211C4AE4
:100120001D4B09F0A7FCF86800F0C0F802467B6898
:100130009A4202DA4FF0FF3323E0BB68BB61002331
:10014000FB6116E07B699A1C7A61BA69911CB961FE
:1001500012881A80FB681A68FB68DB685B001A4427
:100160007B699A4202D1FB681B687B61FB690133A2
:10017000FB61FA697B689A42E4DBFB687A695A6042
:10018000002318462037BD4680BD00BFE0C50108EA
:1001900040C60108F0C5010814C6010880B588B042
:1001A00000AFF860B9607A60FB689B687B61FB68B0
:1001B000002B05D120486321204A214B09F05AFC2D
:1001C000BB68002B05D11C4864211C4A1D4B09F05B
:1001D00051FCF86800F038F802467B689A4202DA6F
:1001E0004FF0FF3323E0BB68BB610023FB6116E0E7
:1001F000BB699A1CBA617A69911C796112881A806C
:10020000FB681A68FB68DB685B001A447B699A42EA
:1002100002D1FB681B687B61FB690133FB61FA69F2
:100220007B689A42E4DBFB687A699A60002318468F
:100230002037BD4680BD00BFE0C501084CC601089F
:10024000F0C5010814C6010880B586B000AF78601B
:100250007B685B683B617B689B68FB607B68002B0D
:1002600005D10F4880210F4A0F4B09F003FC3A6972
:10027000FB689A4205D33A69FB68D31A5B107B612D
:1002800008E07B68DB6819463A69FB68D31A5B10A3
:100290000B447B617B6918461837BD4680BD00BFA3
:1002A000E0C5010858C60108F0C5010890B583B043
:1002B00000AF78607B68DC687868FFF7C5FF0346AD
:1002C000E31A013B18460C37BD4690BD80B400AF21
:1002D000BD465DF8047B704780B400AFBD465DF855
:1002E000047B7047000000002DE9B04386B000AFEA
:1002F00001F038FB4FF48050012104F0CBFD4FF4A6
:10030000006001F095FF41F282404FF4006101F07E
:1003100059FD4FF40073BB60B9684B1E7B600B4600
:100320001A464FF000034FEA031949EA12794FEADF
:1003300002180B461A464FF000031D0145EA1275DC
:1003400014010B465B0001330733DB08DB00ADEB28
:10035000030D6B4601335B085B003B60012001F03D
:1003600047FB002001F06AFB002001F08DFB00201C
:1003700001F0B0FB012001F0D3FB00237B610023DF
:100380003B613B681846B96801F06CFD0346002BE1
:100390004ED1284B08225A61012001F04FFB00206A
:1003A00001F098FB0023FB6011E03B68FA6833F82A
:1003B00012301BB2002BB8BF5B4246F6605293422C
:1003C00002DD012001F086FBFB680133FB60FA6867
:1003D000BB689A42E9DB7B69012B03D13B68184675
:1003E00000F02AF83B681846B96801F08BFF01F06D
:1003F000EBFB0346012B0FD13B6901333B613B69AA
:100400000A2B09DD7B69012B02D100237B6101E00E
:1004100001237B6100233B61786901F035FB0020FB
:1004200001F00CFB034A034B5B6923F008035361A3
:10043000A7E700BF001002402DE9B0432DED028B6D
:10044000ADF5C55D00AF07F120031C3B1860CE4B36
:1004500007F5C15202F110021360CC4B07F5C152EF
:1004600002F10C0213604FF07C5307F5C15202F108
:10047000080213604FF07C5307F5C15202F10402E9
:100480001360C34B07F5C15213600F2307F5C05229
:1004900002F11E021380BF4BBF4A1A60BF4BC04A15
:1004A0001A60C04B1B881BB207EE903AF8EEE77A51
:1004B000B2EE047AC7EE877AB2EE040AF0EE670A6B
:1004C0000AF0D8FBF0EE407AB74BC3ED007AB64B9A
:1004D000D3ED007AB7EE007A77EE877AB7EE007A3E
:1004E000C7EE277AB7EE007A77EEC77AAF4BC3ED47
:1004F000007AB7EE007A07F5C15303F10403D3ED98
:10050000007AC7EE277AB7EE007A37EEC77AA64BA5
:10051000D3ED007AF7EE006A77EEA67A67EE277AD7
:10052000A34BC3ED007AA34B07F5C05202F11802AA
:100530001360A14B1B881BB2012B40F0AB80002342
:1005400007F5C45202F1100213604DE09B4A07F513
:10055000C45303F110031B689B0013444FF00002C7
:100560001A60974A07F5C45303F110031B689B00F8
:1005700013444FF07E521A60924A07F5C45303F1B8
:1005800010031B689B0013444FF07E521A608E4A82
:1005900007F5C45303F110031B68DB0013444FF04D
:1005A00000021A60884A07F5C45303F110031B6860
:1005B000DB00134404334FF07E521A60834A07F580
:1005C000C45303F110031B689B0013444FF07C528B
:1005D0001A6007F5C45303F110031B68013307F5D4
:1005E000C45202F11002136007F5C45303F1100363
:1005F0001B68B3F5007FA9DB002307F5C45202F1A5
:100600000C0213603BE007F5C45303F10C031B68B5
:1006100007EE903AF8EEE77A9FED6D7A67EE877A0B
:100620009FED6C7AC7EE877AB0EE670A0AF064FA3B
:10063000B0EE407AF7EE007A77EEC77AB6EE007A3F
:1006400067EE877AB0EE670A0AF0B6FCF0EE407A01
:1006500007F50263143B07F5C45202F10C0212685D
:1006600092001344C3ED007A07F5C45303F10C0361
:100670001B68013307F5C45202F10C02136007F541
:10068000C45303F10C031B68B3F5806FBBDB4A4B0B
:1006900002221A80002307F5C45202F108021360F7
:1006A00001F048B9002307F5C45202F104021360B7
:1006B0002AE007F5C45303F104031B685B003F49BC
:1006C00007F5C45202F10402126892000A4412684B
:1006D00041499B000B441A6007F5C45303F104031E
:1006E0001B685B0001333C4A9B0013444FF000023F
:1006F0001A6007F5C45303F104031B68013307F5BF
:10070000C45202F10402136007F5C45303F1040359
:100710001B68B3F5007FCCDB002307F5C4521360E0
:1007200024E007F5C45303F108031B685A0207F5D8
:10073000C4531B6813445A0007F120031C3B1B6879
:1007400013441B881BB207EE903AF8EEE77A1B4A77
:1007500007F5C4531B689B001344C3ED007A07F5EB
:10076000C4531B68013307F5C452136007F5C45323
:100770001B68B3F5007FD4DB002307F5C35202F1F9
:100780001C02136069E000BFA4707D3F0AD7233CC0
:1007900052B87E3F940000208A1F233F980000201B
:1007A00044694F3F000000209C000020A000002072
:1007B000A40000206F12833A02000020A80000204D
:1007C000A8080020A8100020A8180020A8280020B1
:1007D000DB0FC94000C07F44A830002007F5C35399
:1007E00003F11C031B6803F500735A0007F5C4539B
:1007F00003F108031B68590207F5C35303F11C03F7
:100800001B680B44590007F120031C3B1B680B4479
:100810001B881BB207EE903AF8EEE77A9F499300E7
:100820000B44C3ED007A07F5C35303F11C031B68A7
:1008300003F500735B000133984A9B0013444FF0AB
:1008400000021A6007F5C35303F11C031B68013350
:1008500007F5C35202F11C02136007F5C35303F1FD
:100860001C031B68B3F5007FB8DB002307F5C352F8
:1008700002F1180213602EE007F5C35303F11803C9
:100880001B685A0007F5C35303F118031B685B008C
:1008900082499B000B4493ED007A07F50263143BF9
:1008A00007F5C35101F11801096889000B44D3ED24
:1008B000007A67EE277A794993000B44C3ED007AFA
:1008C00007F5C35303F118031B68013307F5C3523F
:1008D00002F11802136007F5C35303F118031B68F4
:1008E000B3F5806FC8DB6E486C490022012307F026
:1008F0004FFB002307F5C35202F11402136048E0D6
:1009000007F5C35303F114031B685B00634A9B00A4
:10091000134493ED007A07F5C35303F114031B68E6
:100920005B005E4A9B001344D3ED007A27EE277AE2
:1009300007F5C35303F114031B685B000133574AE7
:100940009B001344D3ED006A07F5C35303F114036E
:100950001B685B000133514A9B001344D3ED007ABE
:1009600066EEA77A77EE277A4E4A07F5C35303F16E
:1009700014031B68DB001344C3ED007A07F5C3536F
:1009800003F114031B68013307F5C35202F114028B
:10099000136007F5C35303F114031B68B3F5007F1D
:1009A000AEDB414B1B881BB2022B69D1002307F53C
:1009B000C35202F1100213604AE03C4A07F5C353E8
:1009C00003F110031B68DB00134493ED007A354AF2
:1009D00007F5C35303F110031B68DB001344D3ED89
:1009E000007ADFED336A67EEA67A77EE277A2F4A30
:1009F00007F5C35303F110031B68DB001344C3ED79
:100A0000007A2A4A07F5C35303F110031B68DB0081
:100A1000134493ED007A07F5C15303F10803D3EDB6
:100A2000007A67EE277A234A07F5C35303F11003D0
:100A30001B689B001344C3ED007A07F5C35303F111
:100A400010031B68013307F5C35202F11002136053
:100A500007F5C35303F110031B68B3F5007FACDB4C
:100A6000154B1B780133DAB2134B1A70124B1B78FB
:100A7000132B05D9104B00221A700B4B03221A803E
:100A8000094B1B881BB2032B40F0F685002307F5AA
:100A9000C35202F10C0213603FE100BFA8300020F6
:100AA000C4C60108A850002002000020A818002099
:100AB000CDCC4C3DA8600020A8680020A24A07F5D4
:100AC000C35303F10C031B68DB00134493ED007A5E
:100AD0009E4BD3ED007A27EE277A9D4A07F5C35344
:100AE00003F10C031B689B001344D3ED007AC7EE9F
:100AF000277AB0EE670A0AF03BF8B0EE407A954BE1
:100B0000D3ED007A67EE277AB7EE007A77EE877A30
:100B1000B7EE007AC7EE277A07F12003143B07F5FA
:100B2000C35202F10C02126892001344C3ED007A22
:100B3000894A07F5C35303F10C031B689B00134458
:100B400093ED007A854BD3ED007A27EE277A834B1D
:100B5000D3ED007AF7EE006A76EEE76A07F120033C
:100B6000143B07F5C35202F10C02126892001344C1
:100B7000D3ED007A66EEA77A77EE277A764A07F504
:100B8000C35303F10C031B689B001344C3ED007AAD
:100B9000714A07F5C35303F10C031B689B00134410
:100BA00093ED007A07F5C15303F11003D3ED007AFA
:100BB000B4EEE77AF1EE10FA16DDB7EE007A07F53B
:100BC000C15303F10C03D3ED007A77EE677A07F196
:100BD0002003143B07F5C35202F10C021268920085
:100BE0001344C3ED007A27E007F12003143B07F517
:100BF000C35202F10C021268920013441B6818469B
:100C000008F0D4FB02460B4643EC102B9FED4C1B27
:100C100009F016FF53EC102B1046194608F0B4FEED
:100C2000014607F12003143B07F5C35202F10C0201
:100C3000126892001344196007F12003143B07F572
:100C4000C35202F10C02126892001344D3ED007AF1
:100C5000B7EE007A37EE677A3B4A07F5C35303F1E4
:100C60000C031B68DB001344D3ED007A27EE277AD0
:100C700007F12003143B07F5C35202F10C0212687E
:100C800092001344D3ED006A314A07F5C35303F1D0
:100C90000C031B689B001344D3ED007A66EEA77A21
:100CA00077EE277A07F5C05303F11403C3ED007AFA
:100CB000274A07F5C35303F10C031B689B00134439
:100CC00093ED007A264BD3ED007A27EE277A244B5A
:100CD000D3ED007AF7EE006A76EEE76A07F5C053C7
:100CE00003F11403D3ED007A66EEA77A77EE277A44
:100CF000174A07F5C35303F10C031B689B00134409
:100D0000C3ED007A07F5C35303F10C031B680133ED
:100D100007F5C35202F10C02136007F5C35303F148
:100D20000C031B68B3F5007FFFF6C8AE002307F580
:100D3000C35202F108021360CCE000BFAFF30080A1
:100D4000000000000000F03FA8500020A00000209C
:100D5000A8600020A4000020A828002098000020FF
:100D600094000020D04A07F5C35303F108031B6821
:100D7000DB00134493ED007ACC4A07F5C35303F12B
:100D800008031B689B001344D3ED007AC7EE277A53
:100D900017EE900A08F00AFB02460B4643EC102BB4
:100DA0009FEDBB1B09F04CFEB0EE408AF0EE608A6E
:100DB00007F5C05303F11803186808F0F7FA024664
:100DC0000B46B0EE480AF0EE680A43EC112B09F02E
:100DD00009FE53EC102B1046194608F0D5FD0146CC
:100DE000B34A07F5C35303F108031B689B00134480
:100DF0001960B04A07F5C35303F108031B689B0051
:100E0000134493ED007A07F5C153D3ED007A67EEF2
:100E1000277A17EE900A08F0C9FA04460D46B7EE95
:100E2000007A07F5C153D3ED007A77EE677A17EEB3
:100E3000900A08F0BBFA804689469D4A07F5C353DD
:100E400003F108031B689B001344D3ED007AB7EE4F
:100E5000007A77EEC77A17EE900A08F0A7FA0246F2
:100E60000B4643EC102B9FED8C1B09F0BBFD53ECA4
:100E7000102B4046494608F0EDFA02460B46204644
:100E8000294608F035F902460B4643EC172BB0EE25
:100E9000470AF0EE670A9FED801B09F0A3FD53ECB3
:100EA000102B1046194608F06FFD0146824A07F5DF
:100EB000C35303F108031B689B001344196007F533
:100EC000C35303F108031B68013307F5C35202F152
:100ED0000802136007F5C35303F108031B68B3F559
:100EE000007FFFF63FAF002307F5C35202F1040273
:100EF0001360AEE0704A07F5C35303F104031B68A7
:100F00009B00134493ED007A694A07F5C35303F13C
:100F100004031B689B001344D3ED007A27EE277A65
:100F2000654A07F5C35303F104031B689B00134490
:100F3000D3ED007AF7EE006A77EEA67AC7EE277A4D
:100F400007F5C05303F11003C3ED007A584A07F5C3
:100F5000C35303F104031B689B001344D3ED007AD1
:100F6000B7EE007A87EE278A07F5C05303F1100326
:100F7000D3ED007A9FED517A27EE877A07F5C053BB
:100F800003F11003D3ED006A07F5C05303F110031A
:100F9000D3ED007A66EEA77A77EE277AB0EE670A8D
:100FA0000AF00AF8F0EE407A68EE277A17EE900A17
:100FB00008F0FCF902460B4643EC102B9FED381B62
:100FC00009F010FD53EC102B1046194608F0DCFC1C
:100FD00001463B4A07F5C35303F104031B689B001A
:100FE00013441960324A07F5C35303F104031B6825
:100FF0009B00134493ED007A314A07F5C35303F184
:1010000004031B689B001344D3ED007A27EE277A74
:101010002B4A07F5C35303F104031B689B001344D9
:10102000D3ED007A67EE277A224A07F5C35303F11E
:1010300004031B689B001344C3ED007A07F5C353F8
:1010400003F104031B68013307F5C35202F10402E4
:10105000136007F5C35303F104031B68B3F5007F66
:10106000FFF648AF4FF0000307F5C45202F1180233
:1010700013604FF0000307F5C45202F1140213602D
:10108000002307F5C352136063E000BFAFF3008095
:101090000000000000408F40000000000000000041
:1010A000000000E04D62503FA8500020A8600020E2
:1010B000AC680020A8100020AC70002090A0383F41
:1010C000A8080020BE4A07F5C3531B68DB00134481
:1010D000D3ED007A07F5C45303F1180393ED007ABA
:1010E00077EE277A07F5C45303F11803C3ED007AAE
:1010F000B44A07F5C3531B689B00134493ED007A71
:10110000B04A07F5C3531B689B001344D3ED007A24
:1011100027EE277AAA4A07F5C3531B68DB0013445E
:10112000D3ED007A67EE277A07F5C45303F1140371
:1011300093ED007A77EE277A07F5C45303F1140391
:10114000C3ED007A07F5C3531B68013307F5C3529B
:10115000136007F5C3531B68B3F5007FB2DB07F5D7
:10116000C45303F1140393ED007A07F5C45303F15C
:101170001803D3ED007AC7EE277A07F5C05303F1C1
:101180000C03C3ED007A904BD3ED007A07F5C05302
:1011900003F10C0393ED007AB4EEE77AF1EE10FA66
:1011A0000DDD4FF07E5307F5C05202F10C021360C3
:1011B000012307F5C45202F11E0213802CE007F54B
:1011C000C05303F11E03B3F9003007EE903AB8EEB6
:1011D000E77A7D4BD3ED007A07F5C05303F10C039A
:1011E000D3ED006AC6EEA77AF7EE006A76EEE77AEC
:1011F00067EE277AB6EE007A77EE877AFDEEE77A29
:10120000C7ED007A3B885B009BB201339BB207F5C8
:10121000C45202F11E02138007F5C45303F11E03EA
:10122000B3F90030DA0F13445B109BB21BB207F521
:10123000C25202F11C0213608FE0644A07F5C253E8
:1012400003F11C031B68DB0013444FF000021A601B
:1012500007F5C45303F11E03B3F90030DA0F13444A
:101260005B109BB21BB207F5C25202F11C0212685E
:10127000D31A07F5C25202F1180213602AE0534A4A
:1012800007F5C25303F11C031B68DB00134493ED05
:10129000007A4C4A07F5C25303F118031B689B0000
:1012A0001344D3ED007A77EE277A484A07F5C25304
:1012B00003F11C031B68DB001344C3ED007A07F540
:1012C000C25303F118031B68013307F5C25202F140
:1012D0001802136007F5C45303F11E03B3F900307D
:1012E000DA0F13445B109BB21AB207F5C25303F135
:1012F0001C031B681A4407F5C25303F118031B684B
:101300009A42BCDA314A07F5C25303F11C031B6849
:10131000DB00134493ED007A07F5C45303F11E0379
:10132000B3F9003007EE903AF8EEE77AC7EE277A85
:10133000264A07F5C25303F11C031B68DB00134464
:10134000C3ED007A07F5C25303F11C031B68013398
:1013500007F5C25202F11C02136007F5C45303F1F2
:101360001E03B3F90030DA0F13445B109BB21BB2BB
:10137000C3F5007207F5C25303F11C031B689A42C0
:101380003FF75BAF002307F5C25202F1140213606E
:1013900087E00E4A07F5C25303F114031B68DB0014
:1013A00013444FF000021A6007F5C25303F114030F
:1013B0001B6807F5C25202F11002136033E000BF50
:1013C000A8500020A808002004000020A818002031
:1013D000AC4A07F5C25303F114031B68DB00134446
:1013E00093ED007AA84A07F5C25303F110031B6876
:1013F0009B001344D3ED007A77EE277AA14A07F5D4
:10140000C25303F114031B68DB001344C3ED007ADD
:1014100007F5C25303F110031B68013307F5C252ED
:1014200002F11002136007F5C45303F11E03B3F970
:10143000002007F5C25303F114031B681A4407F593
:10144000C25303F110031B689A42C1DC8D4A07F5B1
:10145000C25303F114031B68DB00134493ED007ABD
:1014600007F5C45303F11E03B3F9003007EE903AB9
:10147000F8EEE77AC7EE277A824A07F5C25303F1FE
:1014800014031B68DB001344C3ED007A07F5C25355
:1014900003F114031B68013307F5C25202F1140271
:1014A000136007F5C45303F11E03B3F90030DA0FDC
:1014B00013445B109BB21AB207F5C25303F1140335
:1014C0001B689A423FF765AF07F5C45303F11E034B
:1014D000B3F90030C3F5007307F5C25202F10C02F4
:1014E00013607EE0674A07F5C25303F10C031B68E3
:1014F000DB0013444FF000021A6007F5C25303F1FA
:101500000C031B6807F5C25202F1080213602AE0BF
:101510005C4A07F5C25303F10C031B68DB0013445C
:1015200093ED007A584A07F5C25303F108031B688C
:101530009B001344D3ED007A77EE277A514A07F5E2
:10154000C25303F10C031B68DB001344C3ED007AA4
:1015500007F5C25303F108031B68013B07F5C252AC
:1015600002F10802136007F5C45303F11E03B3F937
:10157000003007F5C25202F10C021268D21A07F5C8
:10158000C25303F108031B689A42C1DB3D4A07F5C9
:10159000C25303F10C031B68DB00134493ED007A84
:1015A00007F5C45303F11E03B3F9003007EE903A78
:1015B000F8EEE77AC7EE277A324A07F5C25303F10D
:1015C0000C031B68DB001344C3ED007A07F5C2531C
:1015D00003F10C031B68013307F5C25202F10C0240
:1015E000136007F5C25303F10C031B68B3F5007FCA
:1015F000FFF678AF07F5C45303F11E03B3F90030CB
:10160000DA0F13445B109BB21BB207F5C25202F112
:10161000040213601CE01B4A07F5C25303F10403E4
:101620001B68DB0013441A68174907F5C25303F11E
:1016300004031B689B000B441A6007F5C25303F1B7
:1016400004031B68013307F5C25202F10402136060
:1016500007F5C45303F11E03B3F90030DA0F134446
:101660005B109BB21BB2C3F5007207F5C25303F1C6
:1016700004031B689A42CEDC002307F5C2521360B4
:1016800089E000BFA8180020A808002007F5C25371
:101690001B685B0007F5C25212685200AD49920008
:1016A0000A4492ED007AAC4907F5C25212689200E2
:1016B0000A44D2ED007A67EE277AA64A9B001344CB
:1016C000C3ED007A07F5C2531B685B00013307F5D1
:1016D000C2521268520001329E4992000A4492EDB1
:1016E000007A9D4907F5C252126892000A44D2ED71
:1016F000007A67EE277A974A9B001344C3ED007A7D
:1017000007F5C2531B68C3F57F7303335A0007F50F
:10171000C2531B68C3F57F7303335B008D499B0085
:101720000B4493ED007A8C4907F5C2531B689B006C
:101730000B44D3ED007A67EE277A864993000B4479
:10174000C3ED007A07F5C2531B68C3F580635B00E5
:10175000013B07F5C2521268C2F580625200013A9D
:101760007C4992000A4492ED007A7B4907F5C25207
:10177000126892000A44D2ED007A67EE277A754A21
:101780009B001344C3ED007A07F5C2531B68013375
:1017900007F5C252136007F5C2531B68B3F5007F0B
:1017A000FFF674AF6D486B490122012306F0F0FB90
:1017B000002307F5C15202F11C0213602EE007F569
:1017C000C15303F11C031B685A0007F5C15303F111
:1017D0001C031B685B005F499B000B4493ED007A80
:1017E00007F50263143B07F5C15101F11C010968BB
:1017F00089000B44D3ED007A67EE277A55499300B0
:101800000B44C3ED007A07F5C15303F11C031B68B9
:10181000013307F5C15202F11C02136007F5C153F1
:1018200003F11C031B68B3F5806FC8DB002307F5C9
:10183000C15202F1180213603AE007F5C45303F1F4
:1018400008031B685A0207F5C15303F118031B680C
:1018500013445A0007F120031C3B1B68134407F58F
:10186000C15202F11802126852003A4992000A4429
:1018700092ED007A3A4907F5C15202F11802126856
:1018800092000A44D2ED007A77EE277AFDEEE77AED
:10189000C7ED007A3A8892B21A8007F5C15303F176
:1018A00018031B68013307F5C15202F118021360D7
:1018B00007F5C15303F118031B68B3F5007FBCDBC8
:1018C000002307F5C15202F1140213601FE007F56F
:1018D000C15303F114031B6803F500735B001D4A39
:1018E0009B0013441A681E4907F5C15303F1140302
:1018F0001B689B000B441A6007F5C15303F11403E6
:101900001B68013307F5C15202F11402136007F599
:10191000C15303F114031B68B3F5007FD7DB07F550
:10192000C45303F108031B68013307F5C45202F1E5
:101930000802136007F5C45303F108031B68002B6A
:101940007EF7B0AE07F5C557BD46BDEC028BBDE8CE
:10195000B08300BFA8300020A8080020C4C601083A
:10196000AC78002080B582B000AF0820012103F0E0
:1019700091FA4FF474433B6001233B7100237B7168
:101980000023BB710023FB713B461748194602F048
:1019900009FD83233B6000233B7100237B710023FF
:1019A000FB713B461048194602F0FCFC4FF4807373
:1019B0003B6000233B7100237B710123FB713B469D
:1019C0000948194602F0EEFC01233B6000233B71FD
:1019D00000237B710023FB713B460448194602F04B
:1019E000E1FC0837BD4680BD000C0240000002400B
:1019F00080B483B000AF78607B68002B06DD0E4AB0
:101A00000D4B5B6943F4805353610FE07B68002BFF
:101A100006DA094A084B5B6983F48053536105E099
:101A2000054A054B5B6923F4805353610C37BD466F
:101A30005DF8047B704700BF000C024080B483B0A7
:101A400000AF78607B68002B06DD0E4A0D4B5B69AA
:101A500043F4005353610FE07B68002B06DA094A18
:101A6000084B5B6943F40053536105E0054A054B9D
:101A70005B6923F4005353610C37BD465DF8047B6A
:101A8000704700BF000C024080B483B000AF7860A4
:101A90007B68002B06DD0E4A0D4B5B6943F48043E7
:101AA00053610FE07B68002B06DA094A084B5B693B
:101AB00083F48043536105E0054A054B5B6923F4D9
:101AC000804353610C37BD465DF8047B704700BF0F
:101AD000000C024080B483B000AF78607B68002BBC
:101AE00006DD0E4A0D4B5B6943F4004353610FE082
:101AF0007B68002B06DA094A084B5B6983F40043D4
:101B0000536105E0054A054B5B6923F400435361CB
:101B10000C37BD465DF8047B704700BF000C0240E7
:101B200080B483B000AF78607B68002B06D0094A90
:101B3000084B5B6943F48063536105E0054A054B3C
:101B40005B6923F4806353610C37BD465DF8047B09
:101B5000704700BF000C024080B400AF044B1B690B
:101B600003F080031846BD465DF8047B704700BF54
:101B7000000C024080B400AF044B1B6903F001036A
:101B80001846BD465DF8047B704700BF000C02405C
:101B900080B400AF044B1B6903F002031846BD4636
:101BA0005DF8047B704700BF000C024080B400AFBA
:101BB000044B1B6903F480731846BD465DF8047B33
:101BC000704700BF000C024080B400AF044B1B699B
:101BD00003F001031846BD465DF8047B704700BF63
:101BE0000000024080B485B000AF7860104A7B6886
:101BF00013600123FB810023BB6000BFBB685A1C3C
:101C0000BA600C4A9342F9D90B4AFB891B039BB279
:101C10005383FB895B00FB81FB890F2B01D90123D7
:101C2000FB81054AFB891B039BB21383E3E700BFDB
:101C3000C08500203F4B4C00000C024080B500AF37
:101C40000120FFF7CFFF80BD80B500AF0220FFF776
:101C5000C9FF80BD80B500AF0320FFF7C3FF80BD83
:101C600080B500AF0420FFF7BDFF80BD80B483B016
:101C700000AF78607B681A797B685B799A4212D0F2
:101C80007B68DB79002B03D17B681A797B689A71BA
:101C90007B680122DA717B6832221A607B685A798C
:101CA0007B681A711AE07B68DB79012B0DD17B68A8
:101CB0001B68002B05D07B681B685A1E7B681A6066
:101CC0000CE07B680022DA7108E07B681B79002B4E
:101CD00004D07B681B685A1C7B681A600C37BD46B1
:101CE0005DF8047B704700BF80B483B000AF7860BC
:101CF0000B46FB707B68FA785A717B685A797B686F
:101D00001B799A4200D111E07B68DB79002B03D16B
:101D10007B681A797B689A717B6832221A607B68CB
:101D20005A797B681A717B680122DA710C37BD46DB
:101D30005DF8047B704700BF80B483B000AF78606B
:101D40007B68DB79002B06D17B681B79002B02D0E6
:101D50007B681B6800E0002318460C37BD465DF821
:101D6000047B704780B483B000AF78607B68DB7918
:101D7000002B01D000230CE07B689B79002B01D164
:101D8000002306E07B681B79002B01D0002300E0D4
:101D9000012318460C37BD465DF8047B704700BF31
:101DA00080B483B000AF78607B68DB79002B03D10F
:101DB0007B681A797B689A710C37BD465DF8047BA5
:101DC000704700BF80B582B000AF78603960386876
:101DD000FEF732F90246134B1A60124B1B68002BB8
:101DE00005D111483A21114A114B07F043FE3868DA
:101DF000FEF722F902460F4B1A600E4B1B68002BB0
:101E000005D109483C21094A0B4B07F033FE78689D
:101E100000F03CF800F064F8FEF7F2F80837BD4631
:101E200080BD00BFD4850020F4C6010834C7010876
:101E30000CC70108C885002020C7010880B582B002
:101E400000AF78603960064B1B68184679683A68BD
:101E5000FEF7A4F9034618460837BD4680BD00BF0B
:101E6000D485002080B582B000AF78603960064B21
:101E70001B68184679683A68FEF790F903461846D9
:101E80000837BD4680BD00BFC885002080B586B03C
:101E900000AF78600120012103F056F807F10C0330
:101EA000184603F09BFB7B683B610023BB8100234A
:101EB000BB820023FB8107F10C034FF080401946E1
:101EC00003F022FB4FF08040202104F019FE4FF078
:101ED0008040012103F09AFC1837BD4680BD00BF49
:101EE00080B598B000AF4FF48070012103F04AF83C
:101EF0000120012102F0CEFF4FF48000012102F009
:101F0000C9FF06233B64032387F84430002387F886
:101F1000473007F140033F48194602F043FA00F00A
:101F2000B1FE4FF40063BB650023BB64002387F858
:101F30004D304FF0C0637B654FF080533B6502230B
:101F400087F85C30012387F84C3007F148033248AA
:101F5000194600F0A5FE304801210122062300F0B9
:101F6000EFFF2D4802210222062300F0E9FF2B4853
:101F700001F0E0FD00237B60294BBB60294BFB6037
:101F800000233B614FF4A0737B610023BB614FF4DE
:101F90008063FB614FF400633B624FF400537B624C
:101FA0004FF48073BB624FF40033FB6200233B634A
:101FB00001237B630023BB630023FB633B1D1748A6
:101FC000194601F089FE1448012101F057F9124821
:101FD000012101F037F91148012101F009FF0F48F3
:101FE0001821012202F06CF838233B7000237B702B
:101FF0000023BB700123FB703B46184600F090FDA8
:102000000548012100F0FCFE034801F063F8603749
:10201000BD4680BD00000240002001401064024027
:102020004C200140DC85002080B5ADF5247D00AF5B
:10203000744A744B5B6943F00103536172487349FE
:1020400002F078F80346002B64D0714B1B68013313
:102050006F4A13600023C7F88C320023C7F8883218
:102060002DE06C4AD7F88C3232F81330A3F50043D8
:10207000C7F88432D7F8843299B207F5A273D7F83B
:10208000882223F81210D7F88C320133614A32F8D3
:102090001330A3F50043C7F88432D7F8843299B2DD
:1020A0003B1DD7F8882223F81210D7F88C32023360
:1020B000C7F88C32D7F888320133C7F88832D7F89E
:1020C0008C329F2BCDDD544B1A6807F5A273104656
:1020D00019465022FEF70CF80346B3F1FF3F04D136
:1020E0004E4B1B6801334D4A13604D4B1A683B1D24
:1020F000104619465022FDF7FBFF0346B3F1FF3FA0
:1021000004D1484B1B680133464A13603E483F499F
:1021100002F068F83C48444902F00CF80346002BF2
:1021200065D0424B1B680133404A13600023C7F857
:102130008C320023C7F888322EE0D7F88C32A033D7
:10214000344A32F81330A3F50043C7F88432D7F885
:10215000843299B207F5A273D7F8882223F81210B7
:10216000D7F88C32A1332B4A32F81330A3F5004351
:10217000C7F88432D7F8843299B23B1DD7F8882249
:1021800023F81210D7F88C320233C7F88C32D7F804
:1021900088320133C7F88832D7F88C329F2BCCDDD8
:1021A0001D4B1A6807F5A273104619465022FDF719
:1021B0009FFF0346B3F1FF3F04D1184B1B68013367
:1021C000164A1360164B1A683B1D104619465022DA
:1021D000FDF78EFF0346B3F1FF3F04D1114B1B689F
:1021E0000133104A136008480F4901F0FBFF054A0C
:1021F000044B5B6923F00103536107F52477BD4667
:1022000080BD00BF0010024010640240104000106A
:10221000C4850020DC850020D4850020CC850020EA
:10222000C8850020D885002020800010D08500209F
:1022300080B584B000AF786029484FF400414FF476
:10224000207207F07BFC27484FF400414FF42072C6
:1022500007F074FC7868FDF7EFFE0246224B1A6027
:102260007868FDF7E9FE0246204B1A601E4B1B689A
:10227000002B05D11E484A211E4A1F4B07F0FAFBCE
:102280001A4B1B68002B05D119484B21194A1B4BCF
:1022900007F0F0FB4FF40010012102F0FBFD0120DC
:1022A000012102F0F7FD4FF00050012102F04CFE39
:1022B0003023BB6003233B730023FB7307F1080348
:1022C0000F48194602F06EF800F05CF800F080F854
:1022D00000F0E6F8FDF794FE1037BD4680BD00BF64
:1022E000B480002034830020AC800020B080002027
:1022F00040C7010880C7010858C701086CC701081A
:102300000000024080B582B000AF78603960064BB3
:102310001B68184679683A68FDF7EAFE03461846D6
:102320000837BD4680BD00BFAC80002080B582B0BC
:1023300000AF78603960064B1B68184679683A68C8
:10234000FDF7D6FE034618460837BD4680BD00BFE0
:10235000B080002080B500AF034B1B681846FDF726
:10236000A5FF0346184680BDAC80002080B500AFB5
:10237000034B1B681846FDF799FF0346184680BDBE
:10238000B080002080B584B000AF1020012102F0A1
:10239000DBFD3B1D184603F021F941F28243BB608F
:1023A0000023BB800023BB810023FB803B1D07482B
:1023B000194603F0A9F80548202104F0A1FB0348C1
:1023C000012103F023FA1037BD4680BD0010004004
:1023D00080B594B000AF07F14003184601F0D4F97E
:1023E00004233B6400237B640023FB6407F1400368
:1023F0000020194601F096F9264801F09BFB4FF0AA
:1024000060637B60244BBB60244BFB6040233B61DB
:102410004FF4A0737B610023BB614FF48063FB61C9
:102420004FF400633B624FF400537B624FF48073C0
:10243000BB624FF40033FB6200233B6301237B63E9
:102440000023BB630023FB633B1D1248194601F0C8
:1024500043FC10481821012201F032FE10233B708A
:1024600000237B700023BB700123FB703B461846A2
:1024700000F056FB0748012101F0BAFC00200121C1
:1024800001F098F90020012101F09AFA5037BD4679
:1024900080BD00BF8860024008740040B480002006
:1024A00080B594B000AF07F14003184601F06CF915
:1024B00004233B6400237B640023FB6407F1400397
:1024C0001020194601F02EF9264801F033FB4FF099
:1024D00060637B60244BBB60244BFB6040233B610B
:1024E0004FF4A0737B610023BB614FF48063FB61F9
:1024F0004FF400633B624FF400537B624FF48073F0
:10250000BB624FF40033FB6200233B6301237B6318
:102510000023BB630023FB633B1D1248194601F0F7
:10252000DBFB10481821012201F0CAFD11233B708A
:1025300000237B700023BB700123FB703B461846D1
:1025400000F0EEFA0748012101F052FC10200121B1
:1025500001F030F91020012101F032FA5037BD4668
:1025600080BD00BFA060024014740040348300208E
:1025700080B5D4B000AF5C4A5B4B5B6943F00203AB
:1025800053615A485A4901F0D5FD0346002B48D003
:10259000584B1A683B1D10461946A022FDF7FEFD58
:1025A0000346B3F1FF3F0BD13B1D184600214FF40A
:1025B000A07207F0C3FA504B1B6801334E4A1360F8
:1025C0000023C7F84C3124E03B1DD7F84C2133F8E9
:1025D00012301BB207EE903AF8EEE77A9FED477A99
:1025E00067EE877A9FED467A77EE877AFDEEE77A97
:1025F00017EE903AC7F84431D7F8443199B2414ABE
:10260000D7F84C3122F81310D7F84C310133C7F802
:102610004C31D7F84C319F2BD6DD3448344901F08A
:10262000E1FD3248384901F085FD0346002B50D0CA
:10263000304B1A683B1D10461946A022FDF7AEFD2F
:102640000346B3F1FF3F0BD13B1D184600214FF469
:10265000A07207F073FA284B1B680133264A1360F7
:102660000023C7F84C31A023C7F8483129E03B1DAF
:10267000D7F84C2133F812301BB207EE903AF8EE3F
:10268000E77A9FED1E7A67EE877A9FED1D7A77EEE7
:10269000877AFDEEE77A17EE903AC7F84431D7F81B
:1026A000443199B2174AD7F8483122F81310D7F8B5
:1026B0004C310133C7F84C31D7F848310133C7F8F2
:1026C0004831D7F84C319F2BD1DD08480E4901F035
:1026D00089FD054A044B5B6923F00203536107F54A
:1026E000A877BD4680BD00BF001002408860024050
:1026F00000440020AC8000205C88002000C0633DC6
:1027000000E0FF44B48000200088002080B5D4B0F1
:1027100000AF5C4A5B4B5B6943F0040353615A486A
:102720005A4901F007FD0346002B48D0584B1A6860
:102730003B1D10461946A022FDF730FD0346B3F1BC
:10274000FF3F0BD13B1D184600214FF4A07207F04C
:10275000F5F9504B1B6801334E4A13600023C7F84C
:102760004C3124E03B1DD7F84C2133F812301BB21A
:1027700007EE903AF8EEE77A9FED477A67EE877AB0
:102780009FED467A77EE877AFDEEE77A17EE903A7C
:10279000C7F84431D7F8443199B2414AD7F84C319F
:1027A00022F81310D7F84C310133C7F84C31D7F861
:1027B0004C319F2BD6DD3448344901F013FD3248AB
:1027C000384901F0B7FC0346002B50D0304B1A6853
:1027D0003B1D10461946A022FDF7E0FC0346B3F16D
:1027E000FF3F0BD13B1D184600214FF4A07207F0AC
:1027F000A5F9284B1B680133264A13600023C7F84C
:102800004C31A023C7F8483129E03B1DD7F84C21B3
:1028100033F812301BB207EE903AF8EEE77A9FEDEC
:102820001E7A67EE877A9FED1D7A77EE877AFDEE46
:10283000E77A17EE903AC7F84431D7F8443199B2A5
:10284000174AD7F8483122F81310D7F84C31013322
:10285000C7F84C31D7F848310133C7F84831D7F8B9
:102860004C319F2BD1DD08480E4901F0BBFC054AD5
:10287000044B5B6923F00403536107F5A877BD4659
:1028800080BD00BF00100240A06002400040102048
:10289000B08000205C88002000C0633D00E0FF4461
:1028A000348300200080202080B500AF154A154BEE
:1028B000D3F8883043F47003C2F88830124A124BC0
:1028C0001B6843F0010313600F4B00229A600E4A0D
:1028D0000D4B1B6823F0847323F4803313600A4B81
:1028E0000A4A5A60084A084B1B6823F48023136085
:1028F000054B0022DA6000F087F8024B4FF00062CF
:102900009A6080BD00ED00E00038024010300024E5
:1029100080B487B000AF00233B6100237B610223BA
:10292000FB600023BB6002237B60324B9B6803F09B
:102930000C033B613B69042B07D0082B09D0002B0B
:102940003FD12D4B2D4A1A603FE02B4B2C4A1A6089
:102950003BE0284B5B6803F480039B0DBB60254B79
:102960005B6803F03F037B60BB68002B0DD0244AFB
:102970007B68B2FBF3F21F4B596847F6C0730B40FC
:102980009B0903FB02F37B610CE01C4A7B68B2FBF2
:10299000F3F2184B596847F6C0730B409B0903FBD1
:1029A00002F37B61134B5B6803F440331B0C013370
:1029B0005B00FB607A69FB68B2FBF3F30E4A1360BD
:1029C00003E00D4B0D4A1A6000BF0A4B9B6803F0F1
:1029D000F0031B090B4AD35CDBB23B61064B1A6860
:1029E0003B6922FA03F3044A13601C37BD465DF8C5
:1029F000047B704700380240080000200024F400E7
:102A000040787D010C00002080B483B000AF00232B
:102A10007B6000233B60354A344B1B6843F48033B2
:102A20001360324B1B6803F400333B607B68013357
:102A30007B603B68002B03D17B68B3F5A04FF0D1DE
:102A40002A4B1B6803F40033002B02D001233B60A8
:102A500001E000233B603B68012B42D1234A234B1A
:102A60001B6C43F080531364214A214B1B6843F4D1
:102A7000404313601D4A1D4B9B6893601B4A1B4BD0
:102A80009B6843F400439360184A184B9B6843F4D7
:102A9000A0539360154B174A5A60144A134B1B6896
:102AA00043F08073136000BF104B1B6803F000738A
:102AB000002BF9D0104B40F205621A600B4A0B4B09
:102AC0009B6823F003039360084A084B9B6843F01C
:102AD0000203936000BF054B9B6803F00C03082BB7
:102AE000F9D10C37BD465DF8047B704700380240D1
:102AF0000070004008544007003C024080B483B09E
:102B000000AF7860054A7B6843F0BF6343F400334D
:102B1000D3600C37BD465DF8047B704700ED00E0E4
:102B200080B485B000AF78600023FB730023BB73D3
:102B30000F237B737B68DB78002B38D0264BDB6858
:102B4000DB4303F4E0631B0AFB73FB7BC3F1040369
:102B5000BB737A7BFB7B42FA03F37B737B685B7806
:102B60001A46BB7B02FA03F3FB737B689A787B7B84
:102B70001340DAB2FB7B1343FB73FB7B1B01FB733C
:102B8000164A7B681B781344FA7B83F80023134AA8
:102B90007B681B785B09DBB218467B681B7803F007
:102BA0001F03012101FA03F342F820300FE00B4923
:102BB0007B681B785B09DBB218467B681B7803F0E7
:102BC0001F0301229A4000F1200341F8232014370B
:102BD000BD465DF8047B704700ED00E000E100E0D9
:102BE00080B483B000AF7860396007493B6823F058
:102BF000604323F07F037A6813438B600C37BD4634
:102C00005DF8047B704700BF00ED00E080B483B046
:102C100000AF03460A46FB711346BB71BB79002B1C
:102C200006D00949084B1A69FB7913430B6106E08A
:102C30000549054B1A69FB79DB4313400B610C37DF
:102C4000BD465DF8047B704700ED00E080B483B0C2
:102C500000AF78607B68042B06D1094A084B1B68DB
:102C600043F00403136005E0054A054B1B6823F09D
:102C7000040313600C37BD465DF8047B704700BF4A
:102C800010E000E080B500AF4FF48070012102F049
:102C90000FFA4FF48070002102F00AFA80BD00BFE5
:102CA00080B485B000AF786039600023FB600023FA
:102CB000FB727B685B68FB60FB6823F0407323F466
:102CC0008073FB603B681B791A023B681B681343E7
:102CD000FA681343FB607B68FA685A607B689B68FC
:102CE000FB60FA68174B1340FB603B681A693B684E
:102CF000DB681A433B689B681A433B685B795B005F
:102D00001343FA681343FB607B68FA689A607B6838
:102D1000DB6AFB60FB6823F47003FB603B681B7D90
:102D2000013BDAB2FB7A1343FB72FB7A1B05FA68AC
:102D30001343FB607B68FA68DA621437BD465DF8BE
:102D4000047B7047FDF7FFC080B483B000AF7860AC
:102D50007B6800221A607B6800221A717B6800225F
:102D60005A717B6800229A607B680022DA607B6877
:102D700000221A617B6801221A750C37BD465DF886
:102D8000047B704780B485B000AF78600023FB609F
:102D90000E4B5B68FB60FA680D4B1340FB607B6871
:102DA0001A687B685B681A437B689B681A437B6878
:102DB000DB681343FA681343FB60044AFB68536003
:102DC0001437BD465DF8047B704700BF0023014007
:102DD000E030FCFF80B483B000AF78607B680022F5
:102DE0001A607B6800225A607B6800229A607B68C8
:102DF0000022DA600C37BD465DF8047B704700BFE7
:102E000080B483B000AF78600B46FB70FB78002B7A
:102E100006D07B689B6843F001027B689A6005E0FE
:102E20007B689B6823F001027B689A600C37BD4683
:102E30005DF8047B704700BF80B485B000AF786058
:102E400039600023FB607B685B68FB60FB6823F4F0
:102E5000400323F40073FB60FA683B681343FB6094
:102E60007B68FA685A601437BD465DF8047B70478A
:102E700080B483B000AF78600B467B8013463B8004
:102E80007A887B685A623A887B689A620C37BD46BA
:102E90005DF8047B704700BF80B485B000AF7860F8
:102EA0000B46FB700023FB607B685B68FB60FB6884
:102EB00023F01F03FB60FB78FA681343FB607B6819
:102EC000FA685A601437BD465DF8047B704700BF4E
:102ED00080B483B000AF0346FB71FB79002B06D0B2
:102EE000084A084B5B6843F40003536005E0054A59
:102EF000044B5B6823F4000353600C37BD465DF858
:102F0000047B70470023014080B483B000AF0346C8
:102F1000FB71FB79002B06D0084A084B5B6843F431
:102F20008003536005E0054A044B5B6823F480038B
:102F300053600C37BD465DF8047B704700230140A9
:102F400080B485B000AF7860084611461A46034643
:102F5000FB700B46BB7013467B700023FB600023A5
:102F6000BB60FB78092B23D97B68DB68FB60FB78AF
:102F7000A3F10A0213465B001344072202FA03F38B
:102F8000BB60BB68DB43FA681340FB607978FB7871
:102F9000A3F10A0213465B00134401FA03F3BB607A
:102FA000FA68BB681343FB607B68FA68DA601EE06E
:102FB0007B681B69FB60FA7813465B0013440722A9
:102FC00002FA03F3BB60BB68DB43FA681340FB60A3
:102FD0007978FA7813465B00134401FA03F3BB6077
:102FE000FA68BB681343FB607B68FA681A61BB78B8
:102FF000062B21D87B685B6BFB60BB785A1E13469F
:103000009B0013441F2202FA03F3BB60BB68DB433F
:10301000FA681340FB60F978BB785A1E13469B0090
:10302000134401FA03F3BB60FA68BB681343FB6007
:103030007B68FA685A6347E0BB780C2B21D87B6821
:103040001B6BFB60BB78DA1F13469B0013441F22E7
:1030500002FA03F3BB60BB68DB43FA681340FB6012
:10306000F978BB78DA1F13469B00134401FA03F387
:10307000BB60FA68BB681343FB607B68FA681A633D
:1030800022E07B68DB6AFB60BB78A3F10D0213468C
:103090009B0013441F2202FA03F3BB60BB68DB43AF
:1030A000FA681340FB60F978BB78A3F10D02134670
:1030B0009B00134401FA03F3BB60FA68BB68134337
:1030C000FB607B68FA68DA621437BD465DF8047B02
:1030D000704700BF80B483B000AF78607B689B68A6
:1030E00043F080427B689A600C37BD465DF8047BF4
:1030F000704700BF80B485B000AF78600023FB73D9
:103100007B689B6803F08043002B02D00123FB7394
:1031100001E00023FB73FB7B18461437BD465DF8C6
:10312000047B704780B483B000AF78600B46FB70BF
:10313000FB78002B06D07B689B6843F480627B6839
:103140009A6005E07B689B6823F480627B689A60E4
:103150000C37BD465DF8047B704700BF80B483B078
:1031600000AF78600B46FB70FB78002B06D07B68C5
:103170009B6843F002027B689A6005E07B689B686D
:1031800023F002027B689A600C37BD465DF8047B31
:10319000704700BF80B485B000AF78600B46FB700D
:1031A0000023FB600023BB607B685B68FB60FB68FF
:1031B00023F46043FB60FB78013BBB60BB685B03AF
:1031C000FA681343FB607B68FA685A601437BD469F
:1031D0005DF8047B704700BF80B483B000AF7860B7
:1031E0000B46FB70FB78002B06D07B685B6843F4D2
:1031F00000627B685A6005E07B685B6823F40062CC
:103200007B685A600C37BD465DF8047B704700BF91
:1032100080B483B000AF78607B68DB6C9BB21846EB
:103220000C37BD465DF8047B704700BF80B400AF2B
:10323000034B1B681846BD465DF8047B704700BF12
:103240000823014080B483B000AF78600B46FB7068
:10325000FB78002B06D07B689B6843F480727B6808
:103260009A6005E07B689B6823F480727B689A60B3
:103270000C37BD465DF8047B704700BF80B483B057
:1032800000AF78600B46FB70FB78002B06D07B68A4
:103290009B6843F400727B689A6005E07B689B68DA
:1032A00023F400727B689A600C37BD465DF8047B9E
:1032B000704700BF80B483B000AF0346FB71FB7959
:1032C000002B06D0084A084B5B6843F40053536058
:1032D00005E0054A044B5B6823F4005353600C3748
:1032E000BD465DF8047B70470023014080B487B081
:1032F00000AF7860084611461A460346FB700B463D
:10330000BB7013467B7000237B6100233B6100236D
:10331000FB60FB78092B23D97B68DB687B61FB783A
:10332000A3F10A0213465B001344072202FA03F3D7
:103330003B613B69DB437A6913407B617978FB78B9
:10334000A3F10A0213465B00134401FA03F33B6145
:103350007A693B6913437B617B687A69DA601EE0B6
:103360007B681B697B61FA7813465B001344072274
:1033700002FA03F33B613B69DB437A6913407B61EB
:103380007978FA7813465B00134401FA03F33B6142
:103390007A693B6913437B617B687A691A617B6850
:1033A0009B6B7B617B6903F440131B0DFB60FB6827
:1033B000DBB2BA78D31ADBB20233DBB21A46134659
:1033C0009B0013441F2202FA03F33B613B69DB437A
:1033D0007A6913407B61FA78FB68DBB2B978CB1A63
:1033E000DBB20233DBB219460B469B000B4402FAF8
:1033F00003F33B617A693B6913437B617B687A69BC
:103400009A631C37BD465DF8047B704780B485B075
:1034100000AF78600B46FB700023FB600023BB60AD
:103420007B689B6BFB60FB6823F44013FB60FB78BD
:10343000013BBB60BB681B05FA681343FB607B68FC
:10344000FA689A631437BD465DF8047B704700BF85
:1034500080B485B000AF78600B46FB7013463B80AC
:103460000023FB607B68FB60FA78FB681344FB6019
:10347000FB681A463B8813601437BD465DF8047B31
:10348000704700BF80B485B000AF7860396000231A
:10349000FB607B689B68FB60FB6823F47023FB6028
:1034A000FA683B681343FB607B68FA689A601437DC
:1034B000BD465DF8047B704780B485B000AF78608E
:1034C00039600023FB607B689B68FB60FB6823F42A
:1034D0004013FB60FA683B681343FB607B68FA6843
:1034E0009A601437BD465DF8047B704780B483B0A2
:1034F00000AF78607B689B6843F480027B689A60C9
:103500000C37BD465DF8047B704700BF80B485B0C2
:1035100000AF78600023FB737B689B6803F4800333
:10352000002B02D00123FB7301E00023FB73FB7B24
:1035300018461437BD465DF8047B704780B483B0ED
:1035400000AF78600B46FB70FB78002B06D07B68E1
:103550005B6843F480627B685A6005E07B685B6867
:1035600023F480627B685A600C37BD465DF8047BAB
:10357000704700BF80B483B000AF78600B46FB702B
:10358000FB78002B06D07B685B6843F480527B6835
:103590005A6005E07B685B6823F480527B685A6060
:1035A0000C37BD465DF8047B704700BF80B485B022
:1035B00000AF78600B46FB700023FB607B68FB600C
:1035C000FA78FB6813442833FB60FB681B689BB2E6
:1035D00018461437BD465DF8047B704780B485B04B
:1035E00000AF78600B467B8013467B700023FB6046
:1035F0007B88DBB2FB60FB68012202FA03F3FB600D
:103600007B78002B06D07B685A68FB681A437B687E
:103610005A6006E07B685A68FB68DB431A407B68A7
:103620005A601437BD465DF8047B704780B485B09E
:1036300000AF78600B46FB700023FB737B681A6851
:10364000FB781340002B02D00123FB7301E0002321
:10365000FB73FB7B18461437BD465DF8047B70474F
:1036600080B483B000AF78600B46FB70FB78DA4320
:103670007B681A600C37BD465DF8047B704700BF5D
:1036800080B487B000AF78600B467B800023FB7569
:1036900000233B610023FB607B881B0A9BB23B61DC
:1036A0007B685A687B88DBB2194601238B40134044
:1036B000FB607B681A683B691340002B05D0FB68F0
:1036C000002B02D00123FB7501E00023FB75FB7D7D
:1036D00018461C37BD465DF8047B704780B485B042
:1036E00000AF78600B467B800023FB737B881B0A4E
:1036F0009BB2FB73FB7BDA437B681A601437BD46D1
:103700005DF8047B704700BF80B500AF4FF00050FC
:10371000012101F0AFFC4FF00050002101F0AAFCA4
:1037200080BD00BF80B485B000AF786039600023F1
:10373000FB600023BB60134B1B68FB607B6840F69B
:10374000FE7202FA03F3DB43FA681340FB603B6846
:103750001A683B685B681A433B689B681A433B687E
:10376000DB681343BB607B68BA6802FA03F3FA684C
:103770001343FB60034AFB6813601437BD465DF8D2
:10378000047B70470074004080B483B000AF786061
:103790007B6800221A607B6800225A607B680022E6
:1037A0009A607B680022DA600C37BD465DF8047BC6
:1037B000704700BF80B483B000AF78600B46FB70E9
:1037C000FB78002B09D00C490B4B1A687B68012051
:1037D00000FA03F313430B6009E00749064B1A682C
:1037E0007B68012000FA03F3DB4313400B600C37C6
:1037F000BD465DF8047B70470074004080B483B020
:1038000000AF78600B46FB70FB78002B0AD00D49A7
:103810000C4B5A687B681B091846012383401343ED
:103820004B600AE00749074B5A687B681B0918463A
:1038300001238340DB4313404B600C37BD465DF8EA
:10384000047B70470074004080B483B000AF03462F
:10385000FB71FB79002B06D0084A084B5B6843F0EC
:103860000303536005E0054A044B5B6823F0030340
:1038700053600C37BD465DF8047B70470074004010
:1038800080B485B000AFF860B9601346FB71FB7976
:10389000002B09D00C480C4B1A68FB68B96801FA78
:1038A00003F31343036009E00748074B1A68FB68FA
:1038B000B96801FA03F3DB43134003601437BD46D4
:1038C0005DF8047B704700BF0074004080B485B091
:1038D00000AF78600B467B800023FB60074BFB60EA
:1038E000FA687B6813440833FB60FB681A467B88E0
:1038F00013601437BD465DF8047B704700740040C8
:1039000080B485B000AF78600B467B800023FB60FD
:10391000074BFB60FA687B6813441433FB60FB6859
:103920001A467B8813601437BD465DF8047B7047E8
:103930000074004080B485B000AF78600B467B8097
:1039400013463B800023FB600023BB607B68082B91
:1039500005D17B881A023B881343FB6004E07B8817
:103960001A043B881343FB60074BBB607A68BB6853
:1039700013442033BB60BB68FA681A601437BD4635
:103980005DF8047B704700BF0074004080B485B0D0
:1039900000AF78600023FB60084BFB607B689A08EF
:1039A000FB6813442C33FB60FB681B689BB2184612
:1039B0001437BD465DF8047B704700BF00740040BB
:1039C00080B483B000AF78600B46FB70FB78002BAF
:1039D0000AD00D490C4B1A687B684FF4805000FAEE
:1039E00003F313430B600AE00749074B1A687B682F
:1039F0004FF4805000FA03F3DB4313400B600C37A5
:103A0000BD465DF8047B70470074004080B485B00B
:103A100000AFF860B9601346FB71FB79002B09D049
:103A20000C480C4B1A68FB68B96801FA03F313439E
:103A3000036009E00748074B1A68FB68B96801FA98
:103A400003F3DB43134003601437BD465DF8047B8A
:103A5000704700BF0074004080B485B000AF78604C
:103A600039600023FB730A4B5A6B7B68396801FA93
:103A700003F31340002B02D00123FB7301E000236A
:103A8000FB73FB7B18461437BD465DF8047B70471B
:103A90000074004080B483B000AF7860396005499D
:103AA0007B683A6802FA03F34B630C37BD465DF856
:103AB000047B70470074004080B485B000AF78602C
:103AC00039600023FB730023BB60104B1A687B68CE
:103AD000396801FA03F31340BB600C4B5A6B7B68E7
:103AE000396801FA03F31340002B05D0BB68002BA3
:103AF00002D00123FB7301E00023FB73FB7B18461C
:103B00001437BD465DF8047B704700BF0074004069
:103B100080B483B000AF7860396005497B683A684B
:103B200002FA03F34B630C37BD465DF8047B704724
:103B30000074004080B483B000AF78607B681B687D
:103B400023F001027B681A607B6800221A607B68A0
:103B500000225A607B6800229A607B680022DA604B
:103B60007B6800221A617B6821225A617B68454A82
:103B7000934203D1444B3D229A607EE07B68434AE6
:103B8000934204D1404B4FF474629A6075E07B68B5
:103B90003F4A934204D13C4B4FF474129A606CE05C
:103BA0007B683C4A934204D1374B4FF074629A6071
:103BB00063E07B68384A934203D1334B374ADA607B
:103BC0005BE07B68364A934203D12F4B354ADA607B
:103BD00053E07B68344A934203D12B4B334ADA607B
:103BE0004BE07B68324A934204D1274B4FF03D5261
:103BF000DA6042E07B682F4A934203D12E4B3D228C
:103C00009A603AE07B682D4A934204D12A4B4FF4E4
:103C100074629A6031E07B68294A934204D1264B52
:103C20004FF474129A6028E07B68264A934204D1CC
:103C3000214B4FF074629A601FE07B68224A9342E6
:103C400003D11D4B154ADA6017E07B681F4A934287
:103C500003D1194B134ADA600FE07B681C4A934288
:103C600003D1154B114ADA6007E07B68194A934289
:103C700003D1114B4FF03D52DA600C37BD465DF871
:103C8000047B7047106002400060024028600240E0
:103C90004060024058600240706002403D000020D9
:103CA00088600240400F0020A060024000003D20DC
:103CB000B860024010640240006402402864024080
:103CC00040640240586402407064024088640240CC
:103CD000A0640240B864024080B485B000AF786050
:103CE00039600023FB607B681B68FB60FA68244B2B
:103CF0001340FB603B681A683B68DB681A433B680B
:103D00005B691A433B689B691A433B68DB691A434A
:103D10003B681B6A1A433B685B6A1A433B689B6AB1
:103D20001A433B685B6B1A433B689B6B1343FA680F
:103D30001343FB607B68FA681A607B685B69FB6011
:103D4000FB6823F00703FB603B68DA6A3B681B6B88
:103D50001343FA681343FB607B68FA685A613B6857
:103D60001A697B685A603B685A687B689A603B684E
:103D70009A687B68DA601437BD465DF8047B70474B
:103D80003F801CF080B483B000AF78607B68002275
:103D90001A607B6800225A607B6800229A607B6808
:103DA0000022DA607B6800221A617B6800225A6177
:103DB0007B6800229A617B680022DA617B680022BE
:103DC0001A627B6800225A627B6800229A627B68D2
:103DD0000022DA627B6800221A637B6800225A6341
:103DE0007B6800229A630C37BD465DF8047B704700
:103DF00080B483B000AF78600B46FB70FB78002B7B
:103E000006D07B681B6843F001027B681A6005E0FE
:103E10007B681B6823F001027B681A600C37BD4683
:103E20005DF8047B704700BF80B483B000AF78605A
:103E300039603B68002B06D07B681B6843F4004266
:103E40007B681A6005E07B681B6823F400427B688E
:103E50001A600C37BD465DF8047B704780B483B0B0
:103E600000AF786039603B68002B06D07B681B6828
:103E700043F020027B681A6005E07B681B6823F032
:103E800020027B681A600C37BD465DF8047B7047E2
:103E900080B483B000AF78600B467B807A887B6803
:103EA0005A600C37BD465DF8047B704780B483B020
:103EB00000AF78607B685B689BB218460C37BD46E4
:103EC0005DF8047B704700BF80B485B000AFF86038
:103ED000B9607A607B68002B06D0FB681B6843F4EE
:103EE0000022FB681A6005E0FB681B6823F40022CF
:103EF000FB681A60FB68BA681A611437BD465DF842
:103F0000047B704780B483B000AF78600B46FB70D1
:103F1000FB78002B06D07B681B6843F480227B680B
:103F20001A6005E07B681B6823F480227B681A60B6
:103F30000C37BD465DF8047B704700BF80B485B088
:103F400000AFF860B9607A607B68002B03D0FB6833
:103F5000BA681A6102E0FB68BA68DA601437BD46D5
:103F60005DF8047B704700BF80B485B000AF786017
:103F70000023FB607B681B6803F40023002B02D046
:103F80000123FB6001E00023FB60FB681846143747
:103F9000BD465DF8047B704780B485B000AF7860A3
:103FA0000023FB737B681B6803F00103002B02D026
:103FB0000123FB7301E00023FB73FB7B18461437DE
:103FC000BD465DF8047B704780B485B000AF786073
:103FD0000023FB607B685B6903F03803FB60FB68D0
:103FE00018461437BD465DF8047B704780B487B02F
:103FF00000AF786039600023FB750023FB607B68AD
:10400000154A934202D8154B3B6101E0144B3B61CA
:104010003B6803F00053002B03D03B695B68FB60F7
:1040200002E03B691B68FB60FB6823F0F02323F090
:104030008213FB60FA683B681340002B02D0012317
:10404000FB7501E00023FB75FB7D18461C37BD4660
:104050005DF8047B704700BF0F64024000600240BF
:104060000064024080B485B000AF786039607B683E
:10407000104A934202D8104BFB6001E00F4BFB60EB
:104080003B6803F00053002B07D03B6823F0F0237C
:1040900023F08213FA68D36006E03B6823F0F02334
:1040A00023F08213FA6893601437BD465DF8047BF1
:1040B000704700BF0F64024000600240006402408D
:1040C00080B485B000AFF860B9601346FB71BB687F
:1040D00003F08003002B0FD0FB79002B06D0FB6888
:1040E0005B6943F08002FB685A6105E0FB685B692D
:1040F00023F08002FB685A61BB68802B14D0FB79E7
:10410000002B08D0FB681A68BB6803F01E031A4333
:10411000FB681A6008E0FB681A68BB6803F01E03BE
:10412000DB431A40FB681A601437BD465DF8047B18
:10413000704700BF80B487B000AF7860396000235B
:10414000FB750023FB600023BB607B68224A93421F
:1041500002D8224B3B6101E0214B3B613B6823F0DD
:10416000F02323F0C313002B0AD03B68DB0A03F0D3
:104170001E03FB607B681A68FB681340BB6004E0A9
:104180007B685B6903F08003BB603B6803F000530E
:10419000002B03D03B695B68FB6002E03B691B6856
:1041A000FB60FB6823F0F02323F08213FB60FA68C6
:1041B0003B681340002B05D0BB68002B02D00123C5
:1041C000FB7501E00023FB75FB7D18461C37BD46DF
:1041D0005DF8047B704700BF0F640240006002403E
:1041E0000064024080B485B000AF786039607B68BD
:1041F000104A934202D8104BFB6001E00F4BFB606A
:104200003B6803F00053002B07D03B6823F0F023FA
:1042100023F08213FA68D36006E03B6823F0F023B2
:1042200023F08213FA6893601437BD465DF8047B6F
:10423000704700BF0F64024000600240006402400B
:1042400080B582B000AF78607B684B4A934208D15A
:104250000120012100F0B4FE0120002100F0B0FE99
:1042600086E07B68454A934208D10220012100F094
:10427000A7FE0220002100F0A3FE79E07B68404AFF
:10428000934208D10420012100F09AFE042000216D
:1042900000F096FE6CE07B683A4A934208D1082011
:1042A000012100F08DFE0820002100F089FE5FE072
:1042B0007B68354A934208D11020012100F080FE2E
:1042C0001020002100F07CFE52E07B682F4A9342D0
:1042D00008D12020012100F073FE2020002100F0F1
:1042E0006FFE45E07B682A4A934208D140200121B5
:1042F00000F066FE4020002100F062FE38E07B689E
:10430000244A934208D18020012100F059FE8020E8
:10431000002100F055FE2BE07B681F4A93420AD132
:104320004FF48070012100F04BFE4FF480700021AB
:1043300000F046FE1CE07B68184A93420AD14FF415
:104340000070012100F03CFE4FF40070002100F0ED
:1043500037FE0DE07B68124A934209D14FF480602A
:10436000012100F02DFE4FF48060002100F028FEB6
:104370000837BD4680BD00BF000002400004024077
:1043800000080240000C02400010024000140240ED
:1043900000180240001C024000200240002402409D
:1043A0000028024080B487B000AF786039600023F5
:1043B0007B6100233B610023FB6000237B6176E08F
:1043C0007B69012202FA03F33B613B681A683B698F
:1043D0001340FB60FA683B699A4265D17B681A68B2
:1043E0007B695B00194603238B40DB431A407B68E3
:1043F0001A607B681A683B681B7919467B695B0009
:1044000001FA03F31A437B681A603B681B79012B9E
:1044100003D03B681B79022B2ED17B689A687B699D
:104420005B00194603238B40DB431A407B689A608C
:104430007B689A683B685B7919467B695B0001FA87
:1044400003F31A437B689A607B685A687B699BB266
:10445000194601238B40DB431A407B685A607B6816
:104460005B683A68927911467A6992B201FA02F26F
:1044700092B21A437B685A607B68DA687B699BB2A8
:104480005B00032101FA03F3DB431A407B68DA6027
:104490007B68DA683B68DB7919467B695B0001FA67
:1044A00003F31A437B68DA607B6901337B617B69C4
:1044B0000F2B85D91C37BD465DF8047B704700BFC4
:1044C00080B483B000AF78607B684FF6FF721A60EB
:1044D0007B6800221A717B6800225A717B68002277
:1044E0009A717B680022DA710C37BD465DF8047B57
:1044F000704700BF80B485B000AF78600B467B800A
:104500004FF48033FB607A88FB681343FB60FA68E2
:104510007B68DA617A887B68DA61FA687B68DA61DD
:104520007B68DB69FB607B68DB69FB601437BD4639
:104530005DF8047B704700BF80B485B000AF786041
:104540000B467B800023FB737B681A697B881340D2
:10455000002B02D00123FB7301E00023FB73FB7BE4
:1045600018461437BD465DF8047B704780B483B0AD
:1045700000AF78607B681B699BB218460C37BD465C
:104580005DF8047B704700BF80B485B000AF7860F1
:104590000B467B800023FB737B685A697B88134042
:1045A000002B02D00123FB7301E00023FB73FB7B94
:1045B00018461437BD465DF8047B704780B483B05D
:1045C00000AF78607B685B699BB218460C37BD46CC
:1045D0005DF8047B704700BF80B483B000AF7860A3
:1045E0000B467B807B687A881A830C37BD465DF862
:1045F000047B704780B483B000AF78600B467B804B
:104600007B687A885A830C37BD465DF8047B704717
:1046100080B483B000AF78600B467B8013467B701C
:104620007B78002B03D07B687A881A8302E07B6852
:104630007A885A830C37BD465DF8047B704700BF0B
:1046400080B483B000AF78600B467B807A887B684B
:104650005A610C37BD465DF8047B704780B483B067
:1046600000AF78600B467B807B685A697B885A4034
:104670007B685A610C37BD465DF8047B704700BF0C
:1046800080B485B000AF78600B467B8013467B70AA
:104690000023FB600023BB607B787A8802F007026E
:1046A00092009340FB607B88DB089BB218467B88B6
:1046B000DB089BB21A467B68083253F822207B88BD
:1046C00003F007039B0019460F238B40DB4302EAEC
:1046D00003017B6800F1080243F822107B88DB08A5
:1046E0009BB21A467B68083253F82220FB681343BA
:1046F000BB607B88DB089BB21A467B680832B968CE
:1047000043F822101437BD465DF8047B704700BFA4
:1047100080B400AF164A164B1B6843F001031360C8
:10472000134B00229A60124A114B1B6823F0A853C6
:1047300023F4102313600E4B0E4A5A600C4B0E4AA2
:10474000C3F884200A4B0D4AC3F88820084A084B56
:104750001B6823F480231360054B0022DA60044BAE
:104760000022C3F88C20BD465DF8047B704700BF73
:1047700000380240103000240030002000300024B7
:1047800080B483B000AF0346FB71054B00221A7062
:10479000034AFB7913700C37BD465DF8047B704704
:1047A0000238024080B582B000AF00233B60002396
:1047B000FB710023BB71312000F054FD0346BB7137
:1047C0003B6801333B603B68B3F5A04F02D0BB7937
:1047D000002BF0D0312000F045FD0346002B02D025
:1047E0000123FB7101E00023FB71FB7918460837B8
:1047F000BD4680BD80B485B000AF0346FB71002389
:10480000FB600A4B1B68FB60FB6823F0F803FB604E
:10481000FB79DB00FA681343FB60044AFB68136012
:104820001437BD465DF8047B704700BF0038024076
:1048300080B483B000AF0346FB71044AFB79136078
:104840000C37BD465DF8047B704700BF000047424F
:1048500080B483B000AF0346FB710C4B00221A708A
:104860000A4B00221A70FB79012B02D0042B04D0D2
:1048700007E0064B01221A7003E0044B05221A7070
:1048800000BF0C37BD465DF8047B704770380240AE
:1048900080B483B000AF0346FB71044AFB79136018
:1048A0000C37BD465DF8047B704700BF800E474261
:1048B00080B485B000AFF860B9607A603B600A49A7
:1048C0007B689A01BB681A433B685B08013B1B0489
:1048D0001A43FB681A43BB691B0613434B6014372A
:1048E000BD465DF8047B70470038024080B483B059
:1048F00000AF0346FB71044AFB7913600C37BD46D9
:104900005DF8047B704700BF6000474280B483B00D
:1049100000AF7860396006497B689A013B681B07E5
:104920001343C1F884300C37BD465DF8047B7047F3
:104930000038024080B483B000AF0346FB71044AE4
:10494000FB7913600C37BD465DF8047B704700BFF0
:104950006800474280B485B000AFF860B9607A6003
:104960000749FB689A01BB681B061A437B681B0753
:104970001343C1F888301437BD465DF8047B704797
:104980000038024080B483B000AF0346FB71044A94
:10499000FB7913600C37BD465DF8047B704700BFA0
:1049A0007000474280B483B000AF0346FB71044AF5
:1049B000FB7913600C37BD465DF8047B704700BF80
:1049C0004C00474280B485B000AF78603960002366
:1049D000FB600A4B9B68FB60FB6823F0EC63FB60A9
:1049E0007A683B681343FA681343FB60034AFB6829
:1049F00093601437BD465DF8047B70470038024071
:104A000080B485B000AF786039600023FB600A4B4A
:104A10009B68FB60FB6823F07843FB607A683B6827
:104A20001343FA681343FB60034AFB68936014372F
:104A3000BD465DF8047B70470038024080B485B005
:104A400000AF78600023FB60094B9B68FB60FB684C
:104A500023F00303FB60FA687B681343FB60044A9E
:104A6000FB6893601437BD465DF8047B704700BF58
:104A70000038024080B400AF054B9B68DBB203F006
:104A80000C03DBB21846BD465DF8047B704700BFDF
:104A90000038024080B485B000AF78600023FB602E
:104AA000094B9B68FB60FB6823F0F003FB60FA682E
:104AB0007B681343FB60044AFB6893601437BD4670
:104AC0005DF8047B704700BF0038024080B485B0B9
:104AD00000AF78600023FB60094B9B68FB60FB68BC
:104AE00023F4E053FB60FA687B681343FB60044ADD
:104AF000FB6893601437BD465DF8047B704700BFC8
:104B00000038024080B485B000AF78600023FB60BD
:104B1000094B9B68FB60FB6823F46043FB607B6888
:104B2000DB00FA681343FB60034AFB6893601437A9
:104B3000BD465DF8047B70470038024080B489B000
:104B400000AF78600023BB6100237B610023FB6121
:104B500002233B610023FB600223BB60484B9B6840
:104B600003F00C03BB61BB69042B07D0082B09D0F1
:104B7000002B3FD17B68434A1A603FE07B68424A82
:104B80001A603BE03E4B5B6803F480039B0DFB60C7
:104B90003B4B5B6803F03F03BB60FB68002B0DD011
:104BA000394ABB68B2FBF3F2354B596847F6C0731C
:104BB0000B409B0903FB02F3FB610CE0314ABB682D
:104BC000B2FBF3F22E4B596847F6C0730B409B09BA
:104BD00003FB02F3FB612A4B5B6803F440331B0CBD
:104BE00001335B003B61FA693B69B2FBF3F27B681E
:104BF0001A6003E07B68234A1A6000BF204B9B6861
:104C000003F0F003BB61BB691B09BB611F4ABB69B1
:104C100013441B78DBB27B617B681A687B69DA40DE
:104C20007B685A60164B9B6803F4E053BB61BB6919
:104C30009B0ABB61154ABB6913441B78DBB27B61DD
:104C40007B685A687B69DA407B689A600C4B9B688A
:104C500003F46043BB61BB695B0BBB610B4ABB697F
:104C600013441B78DBB27B617B685A687B69DA404E
:104C70007B68DA602437BD465DF8047B704700BF6F
:104C8000003802400024F40040787D011C00002020
:104C900080B485B000AF78600023FB607B6803F4CC
:104CA0004073B3F5407F11D10F4B9B68FB60FB68ED
:104CB00023F4F813FB607B6823F0704323F4407304
:104CC000FA681343FB60084AFB6893600649064B89
:104CD0001A6F7B68C3F30B0313430B671437BD468E
:104CE0005DF8047B704700BF0038024080B483B099
:104CF00000AF0346FB71044AFB7913600C37BD46D5
:104D00005DF8047B704700BF3C0E474280B483B01F
:104D100000AF0346FB71044AFB7913600C37BD46B4
:104D20005DF8047B704700BF400E474280B483B0FB
:104D300000AF7860034A7B6813600C37BD465DF8AE
:104D4000047B70475C01474280B485B000AF786057
:104D50000023FB600A4BD3F88C30FB60FB6823F028
:104D60001F03FB607B68013BFA681343FB60044A46
:104D7000FB68C2F88C301437BD465DF8047B704781
:104D80000038024080B485B000AF78600023FB603B
:104D90000B4BD3F88C30FB60FB6823F4F853FB60BB
:104DA0007B68013B1B02FA681343FB60044AFB6803
:104DB000C2F88C301437BD465DF8047B704700BFE5
:104DC0000038024080B485B000AF78600023FB60FB
:104DD0000A4BD3F88C30FB60FB6823F44013FB6074
:104DE000FA687B681343FB60044AFB68C2F88C30A6
:104DF0001437BD465DF8047B704700BF00380240A1
:104E000080B485B000AF78600023FB600A4BD3F814
:104E10008C30FB60FB6823F44003FB60FA687B681E
:104E20001343FB60044AFB68C2F88C301437BD465C
:104E30005DF8047B704700BF0038024080B485B045
:104E400000AF78600023FB600A4BD3F88C30FB6026
:104E5000FB6823F44033FB60FA687B681343FB6014
:104E6000044AFB68C2F88C301437BD465DF8047BF9
:104E7000704700BF0038024080B483B000AF786054
:104E8000034A7B6813600C37BD465DF8047B7047AE
:104E9000E011474280B483B000AF78600B46FB70EE
:104EA000FB78002B06D00949084B1A6B7B6813432B
:104EB0000B6306E00549054B1A6B7B68DB43134027
:104EC0000B630C37BD465DF8047B70470038024029
:104ED00080B483B000AF78600B46FB70FB78002B8A
:104EE00006D00949084B5A6B7B6813434B6306E0B5
:104EF0000549054B5A6B7B68DB4313404B630C370A
:104F0000BD465DF8047B70470038024080B483B032
:104F100000AF78600B46FB70FB78002B06D0094988
:104F2000084B9A6B7B6813438B6306E00549054B7E
:104F30009A6B7B68DB4313408B630C37BD465DF88F
:104F4000047B70470038024080B483B000AF7860C3
:104F50000B46FB70FB78002B06D00949084B1A6CF6
:104F60007B6813430B6406E00549054B1A6C7B68AC
:104F7000DB4313400B640C37BD465DF8047B704780
:104F80000038024080B483B000AF78600B46FB70FD
:104F9000FB78002B06D00949084B5A6C7B681343F9
:104FA0004B6406E00549054B5A6C7B68DB431340B4
:104FB0004B640C37BD465DF8047B704700380240F7
:104FC00080B483B000AF78600B46FB70FB78002B99
:104FD00006D00949084B1A697B6813430B6106E048
:104FE0000549054B1A697B68DB4313400B610C379D
:104FF000BD465DF8047B70470038024080B483B042
:1050000000AF78600B46FB70FB78002B06D0094997
:10501000084B5A697B6813434B6106E00549054B11
:105020005A697B68DB4313404B610C37BD465DF822
:10503000047B70470038024080B483B000AF7860D2
:105040000B46FB70FB78002B06D00949084B9A6988
:105050007B6813438B6106E00549054B9A697B68C1
:10506000DB4313408B610C37BD465DF8047B704712
:105070000038024080B483B000AF78600B46FB700C
:10508000FB78002B06D00949084B1A6A7B6813434A
:105090000B6206E00549054B1A6A7B68DB43134047
:1050A0000B620C37BD465DF8047B70470038024048
:1050B00080B483B000AF78600B46FB70FB78002BA8
:1050C00006D00949084B5A6A7B6813434B6206E0D5
:1050D0000549054B5A6A7B68DB4313404B620C372A
:1050E000BD465DF8047B70470038024080B483B051
:1050F00000AF78600B46FB70FB78002B06D00949A7
:10510000084B1A6D7B6813430B6506E00549054B98
:105110001A6D7B68DB4313400B650C37BD465DF8A9
:10512000047B70470038024080B483B000AF7860E1
:105130000B46FB70FB78002B06D00949084B5A6DD3
:105140007B6813434B6506E00549054B5A6D7B6848
:10515000DB4313404B650C37BD465DF8047B70475D
:105160000038024080B483B000AF78600B46FB701B
:10517000FB78002B06D00949084B9A6D7B681343D6
:105180008B6506E00549054B9A6D7B68DB43134050
:105190008B650C37BD465DF8047B704700380240D4
:1051A00080B483B000AF78600B46FB70FB78002BB7
:1051B00006D00949084B1A6E7B6813430B6606E05C
:1051C0000549054B1A6E7B68DB4313400B660C37B1
:1051D000BD465DF8047B70470038024080B483B060
:1051E00000AF78600B46FB70FB78002B06D00949B6
:1051F000084B5A6E7B6813434B6606E00549054B26
:105200005A6E7B68DB4313404B660C37BD465DF836
:10521000047B70470038024080B483B000AF03467F
:105220000A46FB711346BB71BB79002B08D00C49B1
:105230000B4B1B78DAB2FB791343DBB20B7009E03E
:105240000749074B1B78DAB2FB79DB43DBB213402B
:10525000DBB20B700C37BD465DF8047B704700BFB6
:105260000D38024080B487B000AF0346FB710023C5
:10527000FB6000237B610023FB74FB795B09DBB2DD
:10528000FB60FB68012B03D1124B1B687B6109E0BB
:10529000FB68022B03D10F4B1B6F7B6102E00D4BB0
:1052A0005B6F7B61FB7903F01F03FB60FB687A692E
:1052B00022FA03F303F00103002B02D00123FB7455
:1052C00001E00023FB74FB7C18461C37BD465DF8EB
:1052D000047B70470038024080B400AF044A044B9E
:1052E0005B6F43F080735367BD465DF8047B704786
:1052F0000038024080B485B000AF0346FB71002344
:10530000FB73094BDA68FB791340002B02D00123B1
:10531000FB7301E00023FB73FB7B18461437BD468B
:105320005DF8047B704700BF0038024080B483B052
:1053300000AF0346FB71044AFB7913700C37BD467E
:105340005DF8047B704700BF0E38024080B582B024
:1053500000AF78607B685F4A934208D10120012149
:10536000FFF7A6FE01200021FFF7A2FEAFE07B6859
:10537000B3F1804F08D101200121FFF77BFE01200E
:105380000021FFF777FEA2E07B68534A934208D1E1
:1053900002200121FFF76EFE02200021FFF76AFEC6
:1053A00095E07B684D4A934208D104200121FFF724
:1053B00061FE04200021FFF75DFE88E07B68484A1B
:1053C000934208D108200121FFF754FE0820002154
:1053D000FFF750FE7BE07B68424A934208D11020E1
:1053E0000121FFF747FE10200021FFF743FE6EE08A
:1053F0007B683D4A934208D120200121FFF73AFE05
:1054000020200021FFF736FE61E07B68374A934297
:1054100008D102200121FFF74BFE02200021FFF7F7
:1054200047FE54E07B68324A93420AD14FF4803001
:105430000121FFF73DFE4FF480300021FFF738FED9
:1054400045E07B682B4A93420AD14FF4003001219A
:10545000FFF72EFE4FF400300021FFF729FE36E063
:105460007B68254A93420AD14FF480200121FFF73F
:105470001FFE4FF480200021FFF71AFE27E07B6813
:105480001E4A934208D140200121FFF7F3FD40203E
:105490000021FFF7EFFD1AE07B68194A934208D11B
:1054A00080200121FFF7E6FD80200021FFF7E2FDCB
:1054B0000DE07B68134A934209D14FF480700121BB
:1054C000FFF7D8FD4FF480700021FFF7D3FD0837B8
:1054D000BD4680BD000001400004004000080040BF
:1054E000000C004000100040001400400004014087
:1054F00000400140004401400048014000180040C5
:10550000001C00400020004080B485B000AF7860EF
:1055100039600023FB817B681B88FB817B68284AFC
:10552000934213D07B68274A93420FD07B68B3F134
:10553000804F0BD07B68244A934207D07B68234A74
:10554000934203D07B68224A934208D1FB8923F01F
:105550007003FB813B685A88FB891343FB817B689E
:105560001C4A93420CD07B681B4A934208D0FB89AB
:1055700023F44073FB813B681A89FB891343FB8149
:105580007B68FA891A803B685A687B68DA623B68F4
:105590001A887B681A857B68094A934203D07B6826
:1055A000084A934204D13B689B7A9AB27B681A8678
:1055B0007B6801229A821437BD465DF8047B7047F0
:1055C00000000140000401400004004000080040C9
:1055D000000C0040001000400014004080B483B074
:1055E00000AF78607B684FF0FF325A607B68002222
:1055F0001A807B6800221A817B6800225A807B68AF
:1056000000229A720C37BD465DF8047B704700BFDC
:1056100080B483B000AF78600B467B8013463B803C
:105620007B687A881A857B683A889A820C37BD46EF
:105630005DF8047B704700BF80B485B000AF786030
:105640000B467B800023FB817B681B88FB81FB89E9
:1056500023F07003FB81FA897B881343FB817B680D
:10566000FA891A801437BD465DF8047B704700BF85
:1056700080B483B000AF786039607B683A685A6262
:105680000C37BD465DF8047B704700BF80B483B023
:1056900000AF786039607B683A68DA620C37BD46E3
:1056A0005DF8047B704700BF80B483B000AF7860C2
:1056B0007B685B6A18460C37BD465DF8047B704713
:1056C00080B483B000AF78607B681B8D9BB21846B6
:1056D0000C37BD465DF8047B704700BF80B483B0D3
:1056E00000AF78600B46FB70FB78002B08D07B681E
:1056F0001B889BB243F002039AB27B681A8007E0D2
:105700007B681B889BB223F002039AB27B681A80E5
:105710000C37BD465DF8047B704700BF80B483B092
:1057200000AF78600B467B807B88002B08D07B68BD
:105730001B889BB243F004039AB27B681A8007E08F
:105740007B681B889BB223F004039AB27B681A80A3
:105750000C37BD465DF8047B704700BF80B483B052
:1057600000AF78600B46FB70FB78002B08D07B689D
:105770001B889BB243F080039AB27B681A8007E0D3
:105780007B681B889BB223F080039AB27B681A80E7
:105790000C37BD465DF8047B704700BF80B483B012
:1057A00000AF78600B467B807B681B889BB223F040
:1057B00008039AB27B681A807B681B889AB27B8840
:1057C00013439AB27B681A800C37BD465DF8047BA0
:1057D000704700BF80B483B000AF78600B467B8019
:1057E0007B681B889BB223F440739AB27B681A8053
:1057F0007B681B889AB27B8813439AB27B681A80B5
:105800000C37BD465DF8047B704700BF80B483B0A1
:1058100000AF78600B46FB70FB78002B08D07B68EC
:105820001B889BB243F001039AB27B681A8007E0A1
:105830007B681B889BB223F001039AB27B681A80B5
:105840000C37BD465DF8047B704700BF80B485B05F
:1058500000AF7860396000237B810023FB81002347
:10586000BB817B681B8C9BB223F001039AB27B68DF
:105870001A847B681B8CFB817B689B88BB817B685F
:105880001B8B7B817B8923F070037B817B8923F0D9
:1058900003037B813B681A887B8913437B81FB89E7
:1058A00023F00203FB813B689A89FB891343FB8148
:1058B0003B685A88FB891343FB817B681E4A9342ED
:1058C00003D07B681D4A934223D1FB8923F0080350
:1058D000FB813B68DA89FB891343FB81FB8923F059
:1058E0000403FB813B689A88FB891343FB81BB89D6
:1058F00023F48073BB81BB8923F40073BB813B68B5
:105900001A8ABB891343BB813B685A8ABB891343FC
:10591000BB817B68BA899A807B687A891A833B68E5
:105920009A687B685A637B68FA891A841437BD4683
:105930005DF8047B704700BF000001400004014097
:1059400080B485B000AF7860396000237B8100238C
:10595000FB810023BB817B681B8C9BB223F010036F
