:020000040800F2
:10000000000002204D150108951501082D15010865
:10001000351501083D1501084515010800000000CF
:10002000000000000000000000000000951501081D
:10003000951501080000000095150108B525010877
:1000400095150108951501089515010895150108E4
:100050009515010895150108D9350108FD350108E8
:10006000213601084536010869360108B5830108C3
:1000700095150108951501089515010895150108B4
:100080002D1B0108551C010895150108951501083F
:100090009515010895150108951501088D3601087B
:1000A0009515010895150108951501089515010884
:1000B0009515010895150108951501089515010874
:1000C0009515010895150108951501089515010864
:1000D0009515010895150108951501089515010854
:1000E000193701089515010895150108951501089E
:1000F000951501089515010895150108B1830108AA
:10010000951501089515010895150108B983010891
:100110009515010895150108951501089515010813
:100120008517010895150108951501089515010811
:1001300095150108951501089515010895150108F3
:1001400095150108951501089515010895150108E3
:1001500095150108951501089515010895150108D3
:1001600095150108951501089515010895150108C3
:020000040801F1
:1000000010B5054C237833B9044B13B10448AFF352
:1000100000800123237010BDC808002000000000EC
:10002000B82B0208084B10B51BB108480849AFF3BC
:1000300000800848036803B910BD074B002BFBD0B4
:10004000BDE81040184700BF00000000B82B0208B0
:10005000CC080020C808002000000000844641EAC7
:10006000000313F003036DD1403A41D351F8043B30
:1000700040F8043B51F8043B40F8043B51F8043B82
:1000800040F8043B51F8043B40F8043B51F8043B72
:1000900040F8043B51F8043B40F8043B51F8043B62
:1000A00040F8043B51F8043B40F8043B51F8043B52
:1000B00040F8043B51F8043B40F8043B51F8043B42
:1000C00040F8043B51F8043B40F8043B51F8043B32
:1000D00040F8043B51F8043B40F8043B51F8043B22
:1000E00040F8043B51F8043B40F8043B403ABDD291
:1000F000303211D351F8043B40F8043B51F8043B33
:1001000040F8043B51F8043B40F8043B51F8043BF1
:1001100040F8043B103AEDD20C3205D351F8043BC1
:1001200040F8043B043AF9D2043208D0D2071CBF8D
:1001300011F8013B00F8013B01D30B8803806046B6
:10014000704700BF082A13D38B078DD010F003032C
:100150008AD0C3F10403D21ADB071CBF11F8013B9C
:1001600000F8013B80D331F8023B20F8023B7BE7EB
:10017000043AD9D3013A11F8013B00F8013BF9D216
:100180000B7803704B7843708B78837060467047B0
:1001900081F0004102E000BF83F0004330B54FEA38
:1001A00041044FEA430594EA050F08BF90EA020FA5
:1001B0001FBF54EA000C55EA020C7FEA645C7FEA38
:1001C000655C00F0E2804FEA5454D4EB5555B8BF5B
:1001D0006D420CDD2C4480EA020281EA030382EACC
:1001E000000083EA010180EA020281EA0303362D5E
:1001F00088BF30BD11F0004F4FEA01314FF4801C31
:100200004CEA113102D0404261EB410113F0004F42
:100210004FEA03334CEA133302D0524263EB4303F9
:1002200094EA050F00F0A780A4F10104D5F1200E97
:100230000DDB02FA0EFC22FA05F2801841F10001F2
:1002400003FA0EF2801843FA05F359410EE0A5F1C6
:1002500020050EF1200E012A03FA0EFC28BF4CF0F7
:10026000020C43FA05F3C01851EBE37101F00045AD
:1002700007D54FF0000EDCF1000C7EEB00006EEBBA
:100280000101B1F5801F1BD3B1F5001F0CD3490844
:100290005FEA30004FEA3C0C04F101044FEA44529B
:1002A00012F5800F80F09A80BCF1004F08BF5FEA22
:1002B000500C50F1000041EB045141EA050130BD02
:1002C0005FEA4C0C404141EB010111F4801FA4F1A5
:1002D0000104E9D191F0000F04BF01460020B1FAFA
:1002E00081F308BF2033A3F10B03B3F120020CDA32
:1002F0000C3208DD02F1140CC2F10C0201FA0CF010
:1003000021FA02F10CE002F11402D8BFC2F1200C74
:1003100001FA02F120FA0CFCDCBF41EA0C0190402A
:10032000E41AA2BF01EB0451294330BD6FEA040473
:100330001F3C1CDA0C340EDC04F11404C4F120025E
:1003400020FA04F001FA02F340EA030021FA04F370
:1003500045EA030130BDC4F10C04C4F1200220FAC7
:1003600002F001FA04F340EA0300294630BD21FA05
:1003700004F0294630BD94F0000F83F4801306BFCB
:1003800081F480110134013D4EE77FEA645C18BFBF
:100390007FEA655C29D094EA050F08BF90EA020F56
:1003A00005D054EA000C04BF1946104630BD91EA4E
:1003B000030F1EBF0021002030BD5FEA545C05D151
:1003C0004000494128BF41F0004130BD14F5800490
:1003D0003CBF01F5801130BD01F0004545F0FE4104
:1003E00041F470014FF0000030BD7FEA645C1ABF39
:1003F000194610467FEA655C1CBF0B46024650EA70
:10040000013406BF52EA033591EA030F41F400219B
:1004100030BD00BF90F0000F04BF0021704730B521
:100420004FF4806404F132044FF000054FF00001F6
:1004300050E700BF90F0000F04BF0021704730B5B7
:100440004FF4806404F1320410F0004548BF40428C
:100450004FF000013EE700BF42004FEAE2014FEAE1
:1004600031014FEA02701FBF12F07F4393F07F4FBC
:1004700081F06051704792F0000F14BF93F07F4FEE
:10048000704730B54FF4607401F0004521F0004131
:1004900020E700BF50EA010208BF704730B54FF0B7
:1004A00000050AE050EA010208BF704730B511F0BC
:1004B000004502D5404261EB41014FF4806404F1F4
:1004C00032045FEA915C3FF4DCAE4FF003025FEA76
:1004D000DC0C18BF03325FEADC0C18BF033202EBFE
:1004E000DC02C2F1200300FA03FC20FA02F001FA58
:1004F00003FE40EA0E0021FA02F11444C1E600BFF7
:1005000070B54FF0FF0C4CF4E06C1CEA11541DBFA9
:100510001CEA135594EA0C0F95EA0C0F00F0DEF874
:100520002C4481EA030621EA4C5123EA4C5350EA59
:10053000013518BF52EA033541F4801143F48013AA
:1005400038D0A0FB02CE4FF00005E1FB02E506F03B
:100550000042E0FB03E54FF00006E1FB03569CF090
:10056000000F18BF4EF0010EA4F1FF04B6F5007F96
:1005700064F5407404D25FEA4E0E6D4146EB060608
:1005800042EAC62141EA55514FEAC52040EA5E5091
:100590004FEACE2EB4F1FD0C88BFBCF5E06F1ED83B
:1005A000BEF1004F08BF5FEA500E50F1000041EB72
:1005B000045170BD06F0004646EA010140EA02001F
:1005C00081EA0301B4EB5C04C2BFD4EB0C0541EA41
:1005D000045170BD41F480114FF0000E013C00F356
:1005E000AB8014F1360FDEBF002001F0004170BD7A
:1005F000C4F10004203C35DA0C341BDC04F1140493
:10060000C4F1200500FA05F320FA04F001FA05F21E
:1006100040EA020001F0004221F0004110EBD370EB
:1006200021FA04F642EB06015EEA430E08BF20EA17
:10063000D37070BDC4F10C04C4F1200500FA04F3BA
:1006400020FA05F001FA04F240EA020001F000414C
:1006500010EBD37041F100015EEA430E08BF20EABF
:10066000D37070BDC4F1200500FA05F24EEA020E07
:1006700020FA04F301FA05F243EA020321FA04F036
:1006800001F0004121FA04F220EA020000EBD370ED
:100690005EEA430E08BF20EAD37070BD94F0000FED
:1006A0000FD101F00046400041EB010111F4801F21
:1006B00008BF013CF7D041EA060195F0000F18BFD2
:1006C000704703F00046520043EB030313F4801F0E
:1006D00008BF013DF7D043EA0603704794EA0C0FC8
:1006E0000CEA135518BF95EA0C0F0CD050EA4106DE
:1006F00018BF52EA4306D1D181EA030101F000415B
:100700004FF0000070BD50EA410606BF1046194682
:1007100052EA430619D094EA0C0F02D150EA01368E
:1007200013D195EA0C0F05D152EA03361CBF1046CF
:1007300019460AD181EA030101F0004141F0FE416E
:1007400041F470014FF0000070BD41F0FE4141F4F2
:10075000780170BD70B54FF0FF0C4CF4E06C1CEAF2
:1007600011541DBF1CEA135594EA0C0F95EA0C0FA7
:1007700000F0A7F8A4EB050481EA030E52EA033562
:100780004FEA013100F088804FEA03334FF0805583
:1007900045EA131343EA12634FEA022245EA1115B0
:1007A00045EA10654FEA00260EF000419D4208BF61
:1007B000964244F1FD0404F5407402D25B084FEA0E
:1007C0003202B61A65EB03055B084FEA32024FF4BA
:1007D00080104FF4002CB6EB020E75EB030E22BF17
:1007E000B61A754640EA0C005B084FEA3202B6EBD7
:1007F000020E75EB030E22BFB61A754640EA5C0086
:100800005B084FEA3202B6EB020E75EB030E22BF15
:10081000B61A754640EA9C005B084FEA3202B6EB16
:10082000020E75EB030E22BFB61A754640EADC00D5
:1008300055EA060E18D04FEA051545EA16754FEA37
:1008400006164FEAC30343EA52734FEAC2025FEA55
:100850001C1CC0D111F4801F0BD141EA00014FF0E4
:1008600000004FF0004CB6E711F4801F04BF0143B5
:100870000020B4F1FD0C88BFBCF5E06F3FF6AFAED1
:10088000B5EB030C04BFB6EB020C5FEA500C50F161
:10089000000041EB045170BD0EF0004E4EEA1131E4
:1008A00014EB5C04C2BFD4EB0C0541EA045170BDEB
:1008B00041F480114FF0000E013C90E645EA060E2F
:1008C0008DE60CEA135594EA0C0F08BF95EA0C0F5D
:1008D0003FF43BAF94EA0C0F0AD150EA01347FF4A5
:1008E00034AF95EA0C0F7FF425AF104619462CE77C
:1008F00095EA0C0F06D152EA03353FF4FDAE1046DF
:10090000194622E750EA410618BF52EA43067FF42F
:10091000C5AE50EA41047FF40DAF52EA43057FF4BF
:10092000EBAE12E74FF0FF3C06E000BF4FF0010CCA
:1009300002E000BF4FF0010C4DF804CD4FEA410C2E
:100940007FEA6C5C4FEA430C18BF7FEA6C5C1BD0FB
:1009500001B050EA410C0CBF52EA430C91EA030F7C
:1009600002BF90EA020F0020704710F1000F91EAD9
:10097000030F58BF994208BF90422CBFD8176FEAA7
:10098000E37040F0010070474FEA410C7FEA6C5C75
:1009900002D150EA013C07D14FEA430C7FEA6C5C7C
:1009A000D6D152EA033CD3D05DF8040B704700BFA8
:1009B0008446104662468C461946634600E000BFF6
:1009C00001B5FFF7B7FF002848BF10F1000F01BDC8
:1009D0004DF808EDFFF7F4FF0CBF012000205DF893
:1009E00008FB00BF4DF808EDFFF7EAFF34BF012018
:1009F00000205DF808FB00BF4DF808EDFFF7E0FFB1
:100A000094BF012000205DF808FB00BF4DF808ED01
:100A1000FFF7CEFF94BF012000205DF808FB00BF68
:100A20004DF808EDFFF7C4FF34BF012000205DF84A
:100A300008FB00BF4FEA410212F5001215D211D592
:100A40006FF47873B3EB625212D94FEAC12343F0CB
:100A5000004343EA505311F0004F23FA02F018BF4D
:100A6000404270474FF00000704750EA013005D116
:100A700011F0004008BF6FF0004070474FF00000D9
:100A8000704700BF4FEA4102B2F1E04324BFB3F523
:100A9000001CDCF1FE5C0DD901F0004C4FEAC002F5
:100AA0004CEA5070B2F1004F40EB830008BF20F0D9
:100AB0000100704711F0804F21D113F13872BCBF93
:100AC00001F00040704741F480114FEA5252C2F1E8
:100AD0001802C2F1200C10FA0CF320FA02F018BF31
:100AE00040F001004FEAC1234FEAD32303FA0CFC84
:100AF00040EA0C0023FA02F34FEA4303CCE77FEA13
:100B0000625307D150EA01331EBF4FF0FE4040F45C
:100B10004000704701F0004040F0FE4040F400000B
:100B2000704700BF53B94AB9002908BF00281CBF4D
:100B30004FF0FF314FF0FF3000F03CB882B0EC4690
:100B40002DE9005000F01EF8DDF804E002B00CBC06
:100B5000704700BF2DE9F041069C154606460F463A
:100B6000984600F029F805FB01F300FB0838A5FBC7
:100B70000023B21A434467EB0303C4E90023BDE832
:100B8000F08100BF2DE9F041069C904606460F46D5
:100B90001D4600F05FF900FB05F5A0FB082308FBEC
:100BA0000155B21A2B4467EB0303C4E90023BDE8E7
:100BB000F08100BF704700BF00292DE9F043C0F26B
:100BC000A6800026002BC0F29C80884694469E4654
:100BD000154604460F46002B3DD18A4259D9B2FA38
:100BE00082F33BB1C3F120029F4020FA02F29D4004
:100BF00017439C40290C220CB7FBF1FEA8B201FB65
:100C00001E7742EA074700FB0EF3BB420AD97F1961
:100C10000EF1FF3280F00581BB4240F20281AEF15D
:100C2000020E2F44FF1AA4B2B7FBF1F301FB1377B6
:100C300044EA074700FB03F0B84208D97F1903F1E3
:100C4000FF3280F0F080B84240F2ED80023B43EA90
:100C50000E43002203E08B420FD900221346341CBE
:100C600018BF012460424FF0000565EB4501584074
:100C7000514000196941BDE8F083B3FA83F2002ABC
:100C800040F086808B4202D3844500F2DB80012352
:100C9000E5E712B90123B3FBF2F5B5FA85F00028B8
:100CA0003BD1781B4FEA154E1FFA85FC0122B0FBA1
:100CB000FEF8210C0EFB180741EA07470CFB08F36E
:100CC000BB4207D97F1908F1FF3102D2BB4200F2C3
:100CD000BD808846FF1AA4B2B7FBFEF30EFB137764
:100CE00044EA07470CFB03FCBC4507D97F1903F115
:100CF000FF3102D2BC4500F2A7800B4643EA08430D
:100D0000ADE752426FEA060663EB43035DE74042FC
:100D100061EB41014FF0FF3654E7C0F1200224FAA5
:100D200002F107FA00F385404FEA154ED740194308
:100D3000B7FBFEF20B0C0EFB12771FFA85FC43EAA1
:100D400007430CFB02F79F4204FA00F407D95B1932
:100D500002F1FF3074D29F4272D9023A2B44DF1B5A
:100D600089B2B7FBFEF80EFB187341EA03430CFB94
:100D700008F79F4208D95B1908F1FF315CD29F4206
:100D80005AD9A8F102082B44D81B48EA02428EE740
:100D9000C2F120032CFA03F10EFA02FE20FA03F747
:100DA00041EA0E0E08FA02F028FA03F14FEA1E4556
:100DB0003843B1FBF5F8030C05FB18111FFA8EF749
:100DC00043EA014107FB08F38B420CFA02FC09D904
:100DD00011EB0E0108F1FF3930D28B422ED9A8F168
:100DE00002087144C91A80B2B1FBF5F305FB131177
:100DF00040EA014107FB03F78F4208D911EB0E01CE
:100E000003F1FF3016D28F4214D9023B714443EAFA
:100E10000843C91BA3FB0C89494509D305D000220F
:100E20001DE79646FEE6134611E794404445F6D288
:100E3000013BF4E70346EAE78846A5E7C846D1E761
:100E400002468CE713460AE7023B57E7A8F102087F
:100E50002F443FE72DE9F041002B44D18A4215464B
:100E600004464FD9B2FA82F70E464FB1C7F12003BC
:100E7000B94020FA03F602FA07F50E4300FA07F428
:100E80004FEA154E230CB6FBFEF0AFB20EFB10611D
:100E900043EA014307FB00F1994209D95B1900F1CC
:100EA000FF3280F0EC80994240F2E98002382B4416
:100EB0005A1AA4B2B2FBFEF30EFB132244EA02421A
:100EC00007FB03F7974208D9521903F1FF3180F06D
:100ED000D880974240F2D580023B43EA004000268A
:100EE0003146BDE8F0818B4247D8B3FA83F6002E35
:100EF00048D18B4202D3824200F2CD80012031469C
:100F0000BDE8F08112B90125B5FBF2F5B5FA85F817
:100F1000B8F1000F77D14A1B4FEA154EAFB2012648
:100F2000B2FBFEF0230C0EFB102143EA014107FB4C
:100F300000F38B4207D9491900F1FF3202D28B42EC
:100F400000F2BA801046C91AA4B2B1FBFEF30EFB40
:100F5000131144EA014407FB03F7A74208D96419B7
:100F600003F1FF3280F08F80A74240F28C80023B79
:100F700043EA00403146BDE8F08100263046314664
:100F8000BDE8F081C6F1200422FA04F5B3402B43FA
:100F900020FA04FC01FA06F721FA04F54FEA134E91
:100FA0004CEA0707B5FBFEF8390C0EFB18551FFA83
:100FB00083FC41EA05450CFB08F1A94202FA06F25E
:100FC00004D9ED1808F1FF3467D3A0466D1ABFB2FB
:100FD000B5FBFEF40EFB145547EA05410CFB04FC7F
:100FE0008C4504D9C91804F1FF355CD32C4644EA7A
:100FF0000844CCEB0101A4FB0223994248D344D01E
:10100000204600266CE7C8F1200401FA08F305FA2F
:1010100008F520FA04F7E1404FEA154E1F43B1FBF3
:10102000FEF63A0C0EFB16111FFA85FC42EA01434C
:101030000CFB06F29A4200FA08F407D95B1906F194
:10104000FF3137D29A4235D9023E2B449B1ABFB2A8
:10105000B3FBFEF00EFB103347EA03430CFB00F139
:10106000994207D95B1900F1FF3221D299421FD969
:1010700002382B445A1A40EA0646674650E71046A3
:1010800016E70B4629E7134672E7B0409042B7D205
:10109000601E002624E7304622E7A94295D9A8F130
:1010A00002081D4492E78C45A0D9023C19449EE7F2
:1010B0001046DFE70E46C9E70238294443E700BF80
:1010C00010B5102082B0012103F0D4FE0F210023BF
:1010D00002220091012407488DF8044069468DF8EA
:1010E00005208DF806308DF8073003F0E1FA02B0E4
:1010F00010BD00BF0010024030B5002087B00B4C7F
:1011000001AB1422014601F013F9BDF80420238835
:101110009A4208D101AD0FCD0FC42B682360002087
:1011200000B207B030BD4FF6FF70F9E7A4660020AB
:1011300000B5002087B001461422064B01F058F993
:1011400000200146142201AB01F0F2F8002007B0A4
:101150005DF804FBA466002038B50546102007F0B2
:1011600093F9044648B1680007F08EF9206050B149
:101170006060A060E560204638BD0648064A074B1F
:10118000302107F027F90348034A054B332107F0C4
:1011900021F900BF74F60108C4F6010884F60108BD
:1011A00094F6010870B5436809B38468C568A34222
:1011B000A3EB04042CBF641005EB64042C1BA242B7
:1011C00012DA002A0DDD066801EB420206EB450546
:1011D00031F8024B1C800233AB4208BF33469142C8
:1011E000F6D14360002070BD4FF0FF3070BD034862
:1011F000034A044B472107F0EDF800BF74F60108DD
:1012000068F60108A8F6010870B5836811B3446850
:10121000A34219D9C568E41A05EB6404A24216DC9E
:10122000002A0EDD0668C56801EB420206EB4505A3
:101230001C8821F8024B0233AB4208BF334691426F
:10124000F6D18360002070BDE41A6410E6E74FF029
:10125000FF3070BD0248034A034B642107F0BAF81F
:1012600074F60108B8F60108A8F601082DE9F04F58
:101270004E4CDFF84C8183B00A2323804C4B002571
:1012800000AFC8F800501D80FFF736FFA8420CDA07
:1012900028460221474A01F0B1FB4A205F211E2265
:1012A0000F23E0606160A260236106F0F5FF00F0AB
:1012B00093F801214FF4805003F0DCFD4FF40060FF
:1012C00000F002FB4FF4006141F2824000F00EFAA0
:1012D000ADF5816D012000F0B5F8002000F0C4F8F4
:1012E000002000F0D1F8002000F0E0F8012000F02C
:1012F000EFF801F045FD304E6D46ADF102090DF2FB
:10130000FE3A46F6605428464FF4007100F044F966
:1013100083460028F7D108237361012000F0A4F868
:10132000584600F0C3F8CB4601E0D3450BD03BF95B
:10133000023F002BB8BF5B42A342F6DD012000F064
:10134000B5F8D345F3D101F099FD0128834628D0A3
:101350004FF40071284600F0E1FB584600F094F885
:10136000002000F081F87369DFF854B023F008031F
:10137000736101F08DFDD8F80030012BC3D10C4B07
:10138000B3F90030002BBED17B60FFF7D1FE7B6844
:101390000A4A1846022101F031FB7B68CBF8003085
:1013A000B1E7284606F020F9D2E700BFA466002086
:1013B000D8660020D0F6010800100240E0F60108CF
:1013C000D4660020034B1A8B824200D07047184627
:1013D00002F074BAB866002070B5194D82B00820CA
:1013E000012103F047FD00240126284669464FF4F9
:1013F000744300938DF804608DF805408DF8064025
:101400008DF8074003F054F928466946832300937A
:101410008DF804408DF805408DF8074003F048F939
:101420004FF48073284669468DF807608DF80440B4
:101430008DF80540009303F03BF902B070BD00BF8A
:10144000000C0240074A0028536903DD43F480532F
:101450005361704714BF83F4805323F48053536166
:10146000704700BF000C0240064A0028536903DDA4
:1014700043F4005353617047FAD123F4005353618E
:10148000704700BF000C0240074A0028536903DD83
:1014900043F480435361704714BF83F4804323F4C3
:1014A00080435361704700BF000C0240074A002888
:1014B000536903DD43F400435361704714BF83F461
:1014C000004323F400435361704700BF000C024007
:1014D000054A536918B923F480635361704743F494
:1014E00080635361704700BF000C02400C4B10B486
:1014F0000C4C186001224FF480510B4B013BFDD185
:10150000520092B289B20F2A618303D811038BB2C1
:101510002383F2E74FF4805319460122F8E700BF16
:10152000DC660020000C0240414B4C0008B5012055
:10153000FFF7DCFF08B50220FFF7D8FF08B503204E
:10154000FFF7D4FF08B50420FFF7D0FF002103E028
:101550000B4B5B58435004310A480B4B42189A42DC
:10156000F6D30A4A02E0002342F8043B084B9A42B1
:10157000F9D300F053FF06F05FFFFFF777FE7047E7
:10158000E42B020800000020C8080020C808002042
:10159000006A0020FEE70000024B0A460146186878
:1015A000FFF732BEE46600202DE9F04F4FF4807063
:1015B00099B0012103F09AFC0120014603F05AFC86
:1015C000454E464FDFF81CB14FF480000121002446
:1015D00003F050FC4FF00608032301A940488DF8A2
:1015E000083001254FF0020ACDF804804FF400695D
:1015F0008DF80B4003F05CF802F00EFA30464FF025
:10160000C0624FF0805303A9069205938DF820A085
:1016100003948DF81140CDF81C908DF8105002F015
:1016200009FA304629462A46434602F073FA5146E3
:1016300052464346304602F06DFA384602F02CFC22
:10164000DFF8A4A0CDF840904FF4806C4FF4005E1A
:101650004FF400334FF48072384609A94FF4A07854
:10166000CDF83CC0CDF844E01393129209940C9449
:101670000E941494159516941794CDF828B0CDF8BF
:101680002CA0CDF8348002F0D9FC3046294602F077
:1016900037FB3046294602F017FB3846294602F050
:1016A00023FD2A463846182102F0BCFD382368463F
:1016B0008DF800308DF801408DF802408DF8035010
:1016C00002F04AF93046294602F008FA304602F0A4
:1016D000EBFA19B0BDE8F08F002001401064024021
:1016E000000002404C200140F866002030B505465D
:1016F00085B008460C46FFF72FFD1C4B186048B319
:101700002046FFF729FD1A4B186048B30120014617
:1017100003F0CEFB01A803F03DFE002301A94FF02A
:101720008040ADF80430ADF80C30ADF806300295CD
:1017300003F0C6FD4FF08040202103F065FE4FF01E
:101740008040012103F040FEFFF72EFFFFF7B8FCB9
:1017500005B030BD0748084A084B3A2106F03AFE6A
:101760000448054A064B3C2106F034FEF066002092
:10177000E4660020FCF60108F0F6010814F7010801
:1017800028F7010830B5444A44485369444943F0B6
:101790000103ADF5217D536102F07EFD60B3414947
:1017A000414B0A6801320A6003F5A075ADF10204ED
:1017B0000DF59F7033F8021C33F8042BA1F500419E
:1017C000A2F50042AB4224F8021F20F8022FF1D10B
:1017D000364B694618685022FFF7E4FC013050D0C0
:1017E000334B50A918685022FFF7DCFC01304DD074
:1017F0002A482B4902F0A8FD28482E4902F04CFD4A
:1018000068B32D492D4B0A6801320A6003F5A075B3
:10181000ADF102040DF59F70B3F84011B3F8422109
:101820000433A1F50041A2F50042AB4224F8021FA7
:1018300020F8022FF0D11D4B694618685022FFF79F
:10184000B1FC013018D01A4B50A918685022FFF78C
:10185000A9FC01300BD01148164902F075FD0E4A63
:10186000536923F0010353610DF5217D30BD144A06
:10187000136801331360EEE7124A136801331360F3
:10188000E1E7104A136801331360A9E70C4A1368B3
:1018900001331360ACE700BF001002401064024047
:1018A00010400010E0660020FA660020F06600207C
:1018B000E466002020800010EC660020F86600201E
:1018C000F4660020E86600202DE9F04F854E864F33
:1018D000864C99B0054600214FF42072304607F03F
:1018E0006DF84FF420720021384607F067F828465B
:1018F000FFF732FC20602846FFF72EFC7C4A236865
:101900001060002B00F0E280002800F0E5804FF42A
:101910000010012103F0AEFA0120014603F0AAFAFB
:101920004FF000500121002403F0C2FA30220323BB
:1019300003A9704803928DF810308DF8134002F01F
:10194000B7FE0121102003F0B3FA09A803F022FD2D
:1019500041F2824309A968480A93ADF82440ADF8E2
:101960002C40ADF8264003F0ABFC6348202103F087
:101970004BFD0121604803F027FD05A802F02CFA79
:10198000042305A92046059301930694089402F0C8
:10199000F1F95A4802F080FA4FF4005311934FF4D2
:1019A000807301254FF4006C4FF0606B09A9544A15
:1019B00012934FF0400A4FF400334FF4A0794FF4E4
:1019C00080684E48CDF840C0CDF800C013930B9608
:1019D0000A920E94149416941794CDF824B0CDF86E
:1019E00030A0CDF83490CDF83C80159502F026FB60
:1019F0002A461821414802F015FC102602A88DF84D
:101A000009408DF80A408DF80B508DF8086001F000
:101A1000A3FF2946394802F067FB2046294602F019
:101A2000F1F92946204602F011FA05A802F0D4F98E
:101A3000019B059305A930460694089402F09AF993
:101A4000304802F029FA4FF4005211924FF480729C
:101A5000DDF800C02C4B129209A94FF4003229483E
:101A6000CDF840C00A931392CDF824B0CDF830A041
:101A7000CDF834900E94CDF83C80149415951694BE
:101A800017940B9702F0DAFA2A4618211D4802F043
:101A9000C9FB112302A88DF808308DF809408DF894
:101AA0000A408DF80B5001F057FF2946154802F007
:101AB0001BFB3046294602F0A5F93046294602F0C4
:101AC000C5F9FFF7FDFA19B0BDE8F08F0F48104ACD
:101AD000104B4A2106F07EFC0C480D4A0E4B4B2160
:101AE00006F078FCE4080020640B0020E80D0020DC
:101AF000E40D002000000240001000408860024019
:101B000008740040A06002401474004048F70108C7
:101B10003CF7010860F7010874F70108024B0A4618
:101B200001461868FFF73EBBE80D002000B53F4AAC
:101B30003F4853693F4943F00203D1B0536102F07B
:101B4000ABFB002834D13A483B4902F0A5FB38B939
:101B5000364A536923F00203536151B05DF804FB28
:101B6000364B69461868A022FFF74EFB013047D07C
:101B70003349DFED346A9FED347AADF102020DF5A1
:101B80009F7032F9023F07EE903AF8EEE77AB0EE36
:101B9000476AA7EEA66A8242FDEEC67A17EE903A31
:101BA00021F8023FEDD12248234902F0CDFBCFE7D7
:101BB000224B69461868A022FFF726FB01302AD085
:101BC000224ADFED206A9FED207A02F5A070ADF188
:101BD000020131F9023F07EE903AF8EEE77AB0EEF3
:101BE000476AA7EEA66AFDEEC67A17EE903A22F88B
:101BF000023F8242EDD10E480E4902F0A5FBA2E75A
:101C00004FF4A0726846002106F0D8FE104A13680F
:101C100001331360ACE74FF4A0726846002106F070
:101C2000CDFE0B4A136801331360C9E70010024070
:101C3000886002400044002000880020E80D002059
:101C4000220A002000C0633D00E0FF44E2080020BB
:101C50007869002000B53F4A3F4853693F4943F047
:101C60000403D1B0536102F017FB002834D13A4885
:101C70003B4902F011FB38B9364A536923F004039B
:101C8000536151B05DF804FB364B69461868A022D9
:101C9000FFF7BAFA013047D03349DFED346A9FEDE0
:101CA000347AADF102020DF59F7032F9023F07EE72
:101CB000903AF8EEE77AB0EE476AA7EEA66A82425B
:101CC000FDEEC67A17EE903A21F8023FEDD1224898
:101CD000234902F039FBCFE7224B69461868A0225E
:101CE000FFF792FA01302AD0224ADFED206A9FEDF9
:101CF000207A02F5A070ADF1020131F9023F07EE42
:101D0000903AF8EEE77AB0EE476AA7EEA66AFDEEE3
:101D1000C67A17EE903A22F8023F8242EDD10E4881
:101D20000E4902F011FBA2E74FF4A07268460021B1
:101D300006F044FE104A136801331360ACE74FF419
:101D4000A0726846002106F039FE0B4A1368013381
:101D50001360C9E700100240A0600240004010205C
:101D600000802020E40D0020A20C002000C0633D74
:101D700000E0FF44620B00207869002010B50021CC
:101D8000044602F093FB09282FD1201D002102F008
:101D9000F7FB092829D1601D002102F0F1FB092879
:101DA00023D1A01D002102F0EBFB09281DD1E01D6D
:101DB000002102F0E5FB092817D104F17840A0F5D5
:101DC000804000F47F1000F1006000F58040241A8C
:101DD000240A013CE4B200EB44000430002102F08C
:101DE00099FB092801D1002010BD6FF0040010BD3F
:101DF0002DE9F04FDFF8C0C1DFF8C0B11646ADF5F0
:101E0000037D80460D4699460022694FDFF8B0A158
:101E10004FF6FF7457F8023C01335ED03946002379
:101E200001E03F2B64D031F8020FA04203F101031F
:101E3000F7D11AEB032700F09480FF214FF4807252
:101E400002A806F0BBFD4946324604A88DF80D50A5
:101E50008DF80C808DF80E60FEF700F902A94FF4A2
:101E6000807242A8FEF7FAF80023429301F064FF63
:101E70009DF808010DF20D1400060DF20D2502E08B
:101E800014F8050C000614F8032C14F8043C14F89C
:101E9000021C120242EA03430B431843043401F0CC
:101EA00057FFAC42ECD1029002AD7C1E07F1FF0857
:101EB00001E044455BD015F8013B14F8012F9A422C
:101EC00019462046F5D002F05BFB0928F1D06FF0EF
:101ED00004000DF5037DBDE8F08F504642F210710D
:101EE0008DE8041002F0E2FA09289DE8041095D06C
:101EF0000AF5804AE24507F580478BD18ABB2C4C16
:101F0000012254F8027C013FFB1C09D804F17E0039
:101F1000234601E0984208D033F8021F0029F9D087
:101F200004F580445C45ECD16FE7224B2344980BC9
:101F3000013002218DE8041002F058FAA4F1020ADF
:101F40009DE804100028EBD15046394604F5804442
:101F50008DE8041002F0AAFA5C459DE80410D0D187
:101F600053E76FF01B000DF5037DBDE8F08F07F11F
:101F70007843A3F5804303F47F1303F1006202F575
:101F80008042BB1A1B0A013BDBB202EB4302101D6D
:101F9000918821F001010904090C02F0BBFA09281B
:101FA00008BF304693D10DF5037DBDE8F08F00BF2B
:101FB00002400008FEBFFFF7000001080200010810
:101FC000004000082DE9F04FC3B0DFF8BC8001915C
:101FD00081464FF6FD7758F8023C013348D008F5AA
:101FE0007F563E3608F1FE0B444603E00BF5807B3E
:101FF000B3453DD034F8023F013B9BB2BB42F5D81C
:102000004FF48072594602A8FEF728F80023029385
:1020100001F092FE9DF808200DF10D0A12060DF256
:102020000D1502E01AF8052C12061AF803EC1AF83E
:10203000041C1AF8020C4FEA0E2E4EEA0141084326
:1020400010430AF1040A01F083FEAA45EAD1DBF845
:1020500000308342CAD19BF804304B45C6D19BF86F
:102060000530019A9342C1D1584643B0BDE8F08F84
:10207000044B08F580489845ADD1002043B0BDE839
:10208000F08F00BF02000108024000082DE9F04F68
:10209000A64DCC08A5FB0454A408C4EB4415C1B05C
:1020A000A1EBC501E4B28DB22146174602EB05094A
:1020B00098460090FFF786FF5FFA85FAB9F1F70FAF
:1020C000D8BF57440646D4BFFFB2F827002800F017
:1020D000F08090F806A0002D00F0C08005EB070A04
:1020E0001FFA8AFA00F10803BAF1F80F0DF1080B94
:1020F000194628BF4FF0F80A2A4658460193FDF7C3
:10210000ADFFC5EB0A020BEB05004146FDF7A6FF4C
:10211000019B357996F805C01AF0FF0A14D0317A80
:102120009DF80820914240F0B0800AF1FF3E5BFA32
:102130008EFE584606E013F8011F10F8012F914259
:1021400040F0A3807045F6D13E46C7EB0907013445
:10215000BFB25FFA84F9002F44D0009CF72F2046CD
:10216000494694BF5FFA87FB4FF0F80BFFF72AFF51
:10217000824600285ED08579AB4546D25A46414614
:1021800002A8FDF76BFF02AB0BF1080103EB0B009C
:10219000CBEB05025144FDF761FF9AF8053000933F
:1021A00028469AF804B00AF10803ADB19AF808106D
:1021B0009DF80820914219D105F1FF3C53FA8CFC9F
:1021C00002AA05E013F801EF12F8011F8E450DD1A8
:1021D0006345F7D1002806DB3F1ABFB206448044AE
:1021E000002FBBD1304641B0BDE8F08F5046FFF71D
:1021F000C5FD28B9584600992A4602ABFFF7F8FDFD
:1022000010EA200038BF2846E4E70BF1FF3300F165
:10221000080C057941795CFA83FC08F1FF32C31D93
:1022200013F801EF12F8010F86450AD16345F7D183
:102230005846CFE75A46204649464346FFF7D8FD61
:10224000C8E750460091FFF799FD00990028C1D1D9
:1022500028465A464346FFF7CBFDBBE757453DD2DC
:102260000DF1080B41463A465846FDF7F7FE07F1D7
:102270000801C7EB0A020BEB07003144FDF7EEFE45
:102280001FFA8AFA06F1080343E73046CDF804C086
:10229000FFF774FDDDF804C028B9284661465246B0
:1022A0005B46FFF7A5FD0028BFF64EAF41B0BDE885
:1022B000F08FFF21F82202A806F080FB02AB58192C
:1022C0007A1B4146FDF7CAFE009821463A4602AB0A
:1022D000FFF78EFD0028BFF638AF84E7057990F848
:1022E00005A000F10803002F3FF42EAF017A98F803
:1022F000002091420ED107F1FF3E53FA8EFE424676
:1023000005E013F8010F12F8011F884202D173454E
:10231000F7D119E73046FFF731FD0028C3D1284631
:1023200051463A464346FFF763FDBCE71142082198
:102330002DE9F0472D4FCC08A7FB0447BF08FDB29D
:1023400001EBC707294614469A4607F0FF07814666
:10235000FFF738FE002844D08679B7423DD2F61BFD
:10236000F6B21FFA86F8A04584BFE6B21FFA86F8D7
:10237000C8EB040407F10801014432465046A4B2F8
:10238000FDF76CFEB04614B93046BDE8F087013564
:10239000EDB229464846FFF715FE0028F4D0B244B6
:1023A00000E0B8B18679B7B2A74284BFE6B227464B
:1023B000013500F1080132465046EDB2E41BFDF74D
:1023C0004DFEA4B229464846B244B044FFF7FAFD98
:1023D000002CE6D14046BDE8F0876FF01C00BDE858
:1023E000F0876FF00500BDE8F08700BF11420821BB
:1023F000F8B507460E4615461C4601F0D3FFF320FC
:1024000002F0F2F8234631462A463846FFF73EFEF0
:10241000044601F0DDFF2046F8BD00BF39493A4BC4
:10242000D1F88820394842F47002C1F888201A682F
:10243000002142F001021A6099601A6822F0847249
:1024400022F480321A6058601A6882B022F4802226
:102450001A60D960009101911A6842F480321A60C2
:102460001A4603E0009BB3F5A04F09D0136803F4AC
:1024700000330193009B01330093019B002BF1D0AB
:10248000214B1B6813F4003318BF01230193019BF8
:10249000012B05D01B4B4FF000629A6002B07047D1
:1024A000194B1B491A6C1B4842F080521A640A6887
:1024B00042F440420A609A689A609A6842F4004284
:1024C0009A609A6842F4A0529A6058601A6842F082
:1024D00080721A601A4611680B4B8901FBD50E4AAF
:1024E00040F2056111609A6822F003029A609A68CE
:1024F00042F002029A601A46936803F00C03082B1C
:10250000FAD1C7E700ED00E00038024010300024A7
:102510000070004008544007003C024080B483B083
:1025200000AF03463960FB7197F90730002B0BDAD7
:102530000D49FB7903F00F03043B3A68D2B2120154
:10254000D2B20B441A7609E0084997F907303A6885
:10255000D2B21201D2B20B4483F800230C37BD462D
:102560005DF8047B704700BF00ED00E000E100E093
:1025700080B582B000AF78607B68013BB3F1807FAB
:1025800001D301230FE00A4A7B68013B53604FF0FF
:10259000FF300F21FFF7C2FF054B00229A60044B6A
:1025A00007221A60002318460837BD4680BD00BFC9
:1025B00010E000E080B582B000AF374B1B680133FC
:1025C000354A1360354B1B68002B04D0334B1B6816
:1025D000013B324A1360AFF300800023FB7152E0ED
:1025E000FB792F4A9B0013445B68002B48D0FB7992
:1025F0002B4A9B0013445B681B7B002B40D0FB796C
:10260000274A9B0013445B689B68002B38D0FB79FA
:10261000234A9B0013445B689A68013A9A60FB79ED
:102620001F4A9B0013445B689B68002B28D1FB79F1
:102630001B4A9B0013445B681A69FB7918499B008D
:102640000B445B685B6918469047FB79144A9B0012
:1026500013445A68FB7912499B000B445B681B6862
:102660009360FB790E4A9B0013445B685B68002B08
:1026700006D1FB790A4A9B0013445B6800221A7357
:10268000FB790133FB71064B1B78FA799A42A7D389
:102690000837BD4680BD00BFEC0D0020F00D0020C6
:1026A000F80D002080B500AF0C4B1B680C4AA2FB54
:1026B00003239B091846FFF75BFF0346002B00D05E
:1026C000FEE7064B1B689B09064AA2FB03239B0AF5
:1026D000054A1360054B01221A7080BD00000020DE
:1026E000D34D6210179165027C690020F40D002023
:1026F00090B585B002AF7860084611461A46034689
:102700007B800B467B7013463B707B88002B00D18F
:102710000DE0786800F038F879887A783C783B7E6C
:1027200000933B7F01937868234600F043F80C3711
:10273000BD4690BD80B485B000AF0346FB8000234A
:10274000FB8105E0FB890133FB81FB885B08FB8093
:10275000FB88012BF6D8FB8918461437BD465DF877
:10276000047B704780B483B000AF78607B6803F16E
:102770003F4303F57E039B0A9BB218460C37BD46C8
:102780005DF8047B704700BF80B582B000AF786011
:102790007868FFF7E7FF03461A46012303FA02F1C0
:1027A000034A034B1B6B0B4313630837BD4680BDC5
:1027B0000038024080B584B000AF7860084611460A
:1027C0001A4603467B800B467B7013463B70786845
:1027D000FFF7C8FF0346BB730023FB7367E07A88EB
:1027E000FB7B42FA03F303F00103002B00D15BE013
:1027F000BB7BBA7B314931F8122090B2FA7B0121C0
:1028000001FA02F292B201460A4392B291B22B4A05
:1028100022F813107B68DB68FA7B5200032101FA6F
:1028200002F2D2431340397EFA7B520001FA02F2DF
:102830001A437B68DA607B681A68FB7B5B000321C4
:1028400001FA03F3DB4313407978FA7B520001FA73
:1028500002F21A437B681A607B78012B02D07B78E6
:10286000022B21D17B685B68FA7B012101FA02F21D
:1028700092B2D24313403978FA7B01FA02F292B253
:102880001A437B685A607B689A68FB7B5B00032174
:1028900001FA03F3DB431340397FFA7B520001FA5C
:1028A00002F21A437B689A60FB7B0133FB73FB7B6C
:1028B0000F2B94D91037BD4680BD00BF100E0020ED
:1028C00080B485B000AF78600F4B1A687B6802FB5C
:1028D00003F3FB600D4B1B680D4A934204D00B4B76
:1028E0001B680C4A934204D1074B1B68FA68D31A41
:1028F000FB6000BFFB685A1EFA60002BFAD1143748
:10290000BD465DF8047B70477C6900200000002014
:102910000095BA0A00E1F50580B582B000AF034624
:102920000A46FB711346BB71FFF7BCFE00F0D2F9FB
:102930004AF6C870FFF7C4FF2A4ABB79D370294A08
:10294000FB791371274B00225A71264B00229A7192
:10295000244B00225A70BB79012B06D9214B5B789E
:1029600043F00803DAB21F4B5A70032000F03AF923
:1029700041F29410FFF7A4FF032000F033F941F275
:102980009410FFF79DFF032000F02CF941F2941002
:10299000FFF796FF022000F025F96420FFF790FF73
:1029A000104B5B7843F02003DBB2184600F0E6F8EA
:1029B0000C4B04221A7000F07DF800F015F8094B5A
:1029C00002229A70074B9B7843F00403DBB218464F
:1029D00000F0D4F841F29410FFF772FF0837BD46BB
:1029E00080BD00BF280E002080B500AF012000F0A0
:1029F000C5F840F6B830FFF763FF80BD80B582B000
:102A000000AF03463A60FB710B46BB71FA79BB79A4
:102A10001046194600F02CF942E0254B5A79244B18
:102A20001B799A4210D3224B00225A71204B9B797A
:102A30000133DAB21E4B9A711D4B5A791C4B9B79AC
:102A40001046194600F014F93B681B780A2B0ED18A
:102A5000174B9B790133DAB2154B9A71144B5A79A3
:102A6000134B9B791046194600F002F915E03B68BC
:102A70001B780D2B06D10E4B9B790020194600F0D8
:102A8000F7F80AE03B681B78184600F091F8084B0D
:102A90005B790133DAB2064B5A713B6801333B6014
:102AA0003B681B78002BB8D10837BD4680BD00BFFE
:102AB000280E002080B500AF074B1B7843F00403BD
:102AC000DAB2054B1A70044B1B7843F00803DBB2F3
:102AD000184600F053F880BD280E002080B500AFE6
:102AE000074B1B7843F00103DAB2054B1A70044B15
:102AF0001B7843F00803DBB2184600F03FF880BDB6
:102B0000280E002080B500AF074B1B7823F001038F
:102B1000DAB2054B1A70044B1B7843F00803DBB2A2
:102B2000184600F02BF880BD280E002080B500AFBD
:102B3000074B1B7843F00203DAB2054B1A70044BC3
:102B40001B7843F00803DBB2184600F017F880BD8D
:102B5000280E002080B500AF074B1B7823F002033E
:102B6000DAB2054B1A70044B1B7843F00803DBB252
:102B7000184600F003F880BD280E002080B582B012
:102B800000AF0346FB71094B20225A83FB791B09D6
:102B9000DBB2184600F026F8FB7903F00F03DBB236
:102BA000184600F01FF80837BD4680BD00100240EF
:102BB00080B582B000AF0346FB71094B20221A8317
:102BC000FB791B09DBB2184600F00CF8FB7903F027
:102BD0000F03DBB2184600F005F80837BD4680BD8C
:102BE0000010024080B582B000AF0346FB71FB7954
:102BF00003F00803002B03D01C4B08221A8302E0C9
:102C00001A4B08225A83FB7903F00403002B03D0EC
:102C1000164B04221A8302E0144B04225A83FB79D8
:102C200003F00203002B03D0104B02221A8302E0B0
:102C30000E4B02225A83FB7903F00103002B03D0D1
:102C40000A4B01221A8302E0084B01225A83074BE8
:102C500010221A831420FFF733FE044B10225A83EC
:102C60001420FFF72DFE0837BD4680BD001002403E
:102C700080B584B000AF03460A46FB711346BB71B2
:102C8000124A07F10C0310681860114BDB78BA790F
:102C90009A4201D30023BB710D4AFB7953710C4A50
:102CA000BB799371BB7907F11002134413F8042C1C
:102CB000FB791344DBB2DBB263F07F03DBB2DBB240
:102CC0001846FFF75BFF1037BD4680BDD8F50108F9
:102CD000280E002080B582B002AF002300930023AD
:102CE00001932648202101220023FFF701FD002344
:102CF0000093002301932148102101220023FFF7B4
:102D0000F7FC00230093002301931C4801210122BA
:102D10000023FFF7EDFC00230093002301931748E5
:102D2000022101220023FFF7E3FC0023009300238C
:102D300001931248042101220023FFF7D9FC00234C
:102D40000093002301930D48082101220023FFF77F
:102D5000CFFC0A4B20225A83084B10225A83074B80
:102D600001225A83054B02225A83044B04225A83C0
:102D7000024B08225A83BD4680BD00BF00100240AE
:102D800080B582B002AFFFF72FFE14200421FFF7B9
:102D9000C3FD00200021104AFFF730FE4FF400432E
:102DA00000930E480E494FF480420D4B00F00EFD8B
:102DB0000A48012100F074FD09484FF40051002237
:102DC000084B00F0D1F9084801210122074B00F01F
:102DD000CBF9BD4680BD00BFDCF50108B866002018
:102DE00000080240F12D010800000240412E0108B8
:102DF00080B582B000AF0346FB71FB79002B18D081
:102E0000FB79012B15D10C4B1B88002B0AD10A4BE7
:102E100001221A80094B01221A80FFF787FEFFF773
:102E20005DFE06E0044B00221A80FFF793FEFFF7D9
:102E300069FE0837BD4680BDD8660020320E0020EE
:102E400080B483B000AF0346FB71FB79002B0DD03B
:102E5000FB79012B0AD1084B1B68002B03D1064BD1
:102E600001221A6002E0044B00221A600C37BD46B2
:102E70005DF8047B704700BF340E002080B500AFC2
:102E800000F0D0F9014B1B68184680BD340E0020BD
:102E900080B584B000AF00F0C5F9764B1B88002BDD
:102EA0002DD1754800F0D0FC734B5B68002B11DD11
:102EB000724B1B889BB29BB201339BB29AB26F4B91
:102EC0001A806E4B1B881BB2042B18DD6B4B04223F
:102ED0001A8014E0684B5B68002B10DA674B1B8884
:102EE0009BB29BB2013B9BB29AB2644B1A80634B7C
:102EF0001B881BB2002B02DA604B00221A805F4B4A
:102F00001B881BB2042B00F2B18001A252F823F0FF
:102F1000252F0108672F0108A92F0108EB2F0108B1
:102F20002D30010856486421002200F0C3F8024603
:102F3000544B1A60544B1B881BB2012B03D0514BCE
:102F40001B68002B0ED0514B5B683A461046504927
:102F50001A4605F097FD3B46002002211A46FFF76E
:102F60004DFD83E082E04B481E21002200F0A2F8D4
:102F70000246444B1A60444B1B881BB2012B03D002
:102F8000404B1B68002B0ED0404B9B683A461046C6
:102F900041491A4605F076FD3B46002002211A46BB
:102FA000FFF72CFD62E061E03C4863210A2200F05B
:102FB00081F80246334B1A60334B1B881BB2012B3E
:102FC00003D0304B1B68002B0ED0304BDB683A46E9
:102FD000104633491A4605F055FD3B4600200221B4
:102FE0001A46FFF70BFD41E040E02E483221022255
:102FF00000F060F80246234B1A60234B1B881BB27B
:10300000012B03D01F4B1B68002B0ED01F4B1B69DD
:103010003A46104624491A4605F034FD3B46002046
:1030200002211A46FFF7EAFC20E01FE01F480121B9
:10303000002200F03FF80246124B1A60124B1B8828
:103040001BB2012B03D00F4B1B68002B0DD0174B6D
:103050001B683A46104616491A4605F013FD3B46D2
:10306000002002211A46FFF7C9FC00BF1037BD46F9
:1030700080BD00BFD8660020B8660020300E00205A
:10308000A8660020380E0020320E0020A466002022
:10309000F0F50108AC66002004F60108B0660020D7
:1030A00018F60108B46600202CF60108D46600204A
:1030B00040F6010880B586B000AFF860B9607A606C
:1030C000254B1B881BB2012B0FD1FB681B68234AC1
:1030D0001360FB681B68214AD36000200221204A4C
:1030E000FFF78CFC1C4B00221A801E4B1B881BB266
:1030F000012B2BD1194800F0A7FB184B1B7A022B90
:1031000002D001237B6101E000237B61134BDA686D
:10311000BB689A4208DD114ABB68D3600F4ABB689E
:1031200013600E4B02221A720C4BDA687B689A42CB
:1031300008DA0A4A7B68D360084A7B681360074B49
:1031400002221A72054B1A68FB681A607B691846DE
:103150001837BD4680BD00BF320E0020B866002083
:1031600054F60108D866002080B588B002AFF86038
:103170007B600B467B8113467B72FFF793FA284BEB
:103180001B8D092B01D9002345E0182005F07CF99F
:1031900003463B613B69002B01D100233BE03B69C7
:1031A000FA681A603B697A899A807B7A002B14BF8F
:1031B00001230023DBB21A463B699A713B697A68A6
:1031C0009A603B6900225A743B6964225A823B69C7
:1031D00040F2DC529A823B699B79002B02D0022399
:1031E000FB7501E00123FB757A89FB7D00930023C9
:1031F0000193F868114600220023FFF779FA084B83
:103200001B8D5A1C91B2064A11851946044A3B6926
:1032100042F821303B6918461837BD4680BD00BFD3
:103220003C0E002080B582B000AF0023FB8009E097
:10323000FB88084A52F82330184600F00DF8FB8846
:103240000133FB80034B1B8DFA889A42F0D3083779
:10325000BD4680BD3C0E002080B584B000AF7860D4
:103260007B681B681B697A6892881340002B14BF27
:1032700001230023DBB2FB73344B1B68BB607B680C
:103280005B7C002B12D17B689B79FA7B9A420DD133
:103290007B6801225A747B68BA68DA607B689B6835
:1032A000002B03D07B689B68002098477B685B7C81
:1032B000012B38D17B689B79FA7B9A4213D17B68CA
:1032C000DB687A68928A1A44BB689A422BD27B6880
:1032D0009B68002B03D07B689B68022098477B6823
:1032E00002225A741FE07B689B79FA7B9A4217D0BE
:1032F0007B68DB687A68528A1A44BB689A420BD2B0
:103300007B689B68002B03D07B689B6801209847F3
:103310007B6802225A7406E07B6800225A7402E03D
:103320007B6800225A747B685B7C022B07D17B6828
:103330009B79FA7B9A4202D07B6800225A747B68A0
:10334000FA7B1A741037BD4680BD00BFEC0D00201B
:1033500090B589B002AF78600B467B8013467B70D6
:103360007B88002B05D07A887B88013B1340002B9B
:1033700022D000237B751AE07A887B7D42FA03F322
:1033800003F00103002B0FD07B7D012202FA03F32F
:103390009AB27B78786811461A46FFF7D9FF034640
:1033A000002B01D001230DE17B7D01337B757B7DFB
:1033B0000F2BE1D9002305E1844B1A687B88134069
:1033C000002B05D1814B5A687B881340002B01D01C
:1033D0000123F7E07B88802B43D0802B11DC082B66
:1033E00039D0082B06DC022B2FD0042B30D0012B38
:1033F00028D03CE0202B34D0402B32D0102B2DD0C5
:1034000035E0B3F5006F2FD0B3F5006F09DCB3F5ED
:10341000007F26D0B3F5806F26D0B3F5807F20D013
:1034200025E0B3F5005F1FD0B3F5005F03DCB3F513
:10343000805F19D01BE0B3F5804F15D0B3F5004F76
:1034400012D014E00623BB7513E00723BB7510E010
:103450000823BB750DE00923BB750AE00A23BB7581
:1034600007E01723BB7504E02823BB7501E00123A7
:10347000A8E07B78012B02D10123FB7507E07B7864
:10348000002B02D10223FB7501E00023FB757A8833
:10349000FB7D0093002301937868114600220023EE
:1034A000FFF726F97B881846FFF744F903463B757A
:1034B0007868FFF757F90346FB74454A444B5B6C49
:1034C00043F48043536443493B7D9B08DBB21C4675
:1034D000404A3B7D9B08DBB2023352F823303A7DF1
:1034E00002F0030292000F2000FA02F2D2431A40C7
:1034F000A31C41F8232037483B7D9B08DBB21C46C8
:10350000344A3B7D9B08DBB2023352F82330F97C0E
:103510003A7D02F00302920001FA02F21A43A31C60
:1035200040F823202949294B1B687A88D24313404D
:103530000B602649254B5B687A88D24313404B6069
:103540002249224B1A687B8813430B601F491F4B8B
:10355000DB687A88D2431340CB601C491B4B9B68C5
:103560007A88D24313408B607B78012B06D11749B0
:10357000164BDA687B881343CB6015E07B78002B11
:1035800006D11249114B9A687B8813438B600BE07C
:103590000E490E4BDA687B881343CB600B490B4B0B
:1035A0009A687B8813438B60BB7D3B730A237B73D4
:1035B0003B7DBB730123FB7307F10C03184600F03E
:1035C000CBF9002318461C37BD4690BD003C014096
:1035D000003802400038014080B500AF064B5B69FF
:1035E00003F00103002B05D0034B01225A61012097
:1035F000FDF7E8FE80BD00BF003C014080B500AF94
:10360000064B5B6903F00203002B05D0034B02223B
:103610005A610220FDF7D6FE80BD00BF003C01408C
:1036200080B500AF064B5B6903F00403002B05D0A7
:10363000034B04225A610420FDF7C4FE80BD00BF85
:10364000003C014080B500AF064B5B6903F0080306
:10365000002B05D0034B08225A610820FDF7B2FE6B
:1036600080BD00BF003C014080B500AF064B5B69E8
:1036700003F01003002B05D0034B10225A611020D9
:10368000FDF7A0FE80BD00BF003C014080B500AF4B
:10369000204B5B6903F02003002B05D01D4B20223B
:1036A0005A612020FDF78EFE1A4B5B6903F0400340
:1036B000002B05D0174B40225A614020FDF782FEB7
:1036C000144B5B6903F08003002B05D0114B802263
:1036D0005A618020FDF776FE0E4B5B6903F4807320
:1036E000002B07D00B4B4FF480725A614FF480705F
:1036F000FDF768FE074B5B6903F40073002B07D0EE
:10370000044B4FF400725A614FF40070FDF75AFEFB
:1037100080BD00BF003C014080B500AF2A4B5B6913
:1037200003F48063002B07D0274B4FF480625A616B
:103730004FF48060FDF746FE234B5B6903F40063A2
:10374000002B07D0204B4FF400625A614FF4006009
:10375000FDF738FE1C4B5B6903F48053002B07D048
:10376000194B4FF480525A614FF48050FDF72AFEF6
:10377000154B5B6903F40053002B07D0124B4FF439
:1037800000525A614FF40050FDF71CFE0E4B5B696E
:1037900003F48043002B07D00B4B4FF480425A6157
:1037A0004FF48040FDF70EFE074B5B6903F40043C6
:1037B000002B07D0044B4FF400425A614FF40040F5
:1037C000FDF700FE80BD00BF003C014080B586B023
:1037D00002AFF860B9603B601346FB80FB68BA68D3
:1037E0001A61FB683A685A61FB68FA881A83FB68B9
:1037F0003A8B5A83FB681A69FB681B8B1046194683
:103800000222FFF7A5FDFB685969FB685A8B01236B
:103810000093002301930846114600220023FEF77F
:1038200067FFFB6800225A72FB680022DA60FB68BF
:1038300000225A60FB6800221A60FB6801229A721B
:103840001037BD4680BD00BF80B483B000AF786044
:103850007B68DA687B681B68D21A7B685A607B6871
:10386000DA687B681A607B68DB68002B04DA7B68A7
:1038700001221A7201230CE07B68DB68002B04DD57
:103880007B6800221A72002303E07B6802221A720E
:10389000022318460C37BD465DF8047B704700BF15
:1038A00080B483B000AF78600B46FB707B68FA7819
:1038B0005A720C37BD465DF8047B704780B485B002
:1038C00000AF78607B681B691B697A68128B1340B4
:1038D000002B14BF01230023DBB2FB737B685B6901
:1038E0001B697A68528B1340002B14BF01230023FD
:1038F000DBB2BB737B689B7AFA7B9A4227D07B68EA
:10390000FA7B9A727B689B7A002B20D17B685B7A6A
:10391000002B0ED1BB7B012B05D17B68DB685A1EC7
:103920007B68DA6013E07B68DB685A1C7B68DA60CE
:103930000DE0BB7B012B05D17B68DB685A1C7B68E3
:10394000DA6004E07B68DB685A1E7B68DA60143753
:10395000BD465DF8047B704780B485B000AF7860E9
:103960000023FB730023BB730F237B737B68DB781F
:10397000002B38D0264BDB68DB4303F4E0631B0AE3
:10398000FB73FB7BC3F10403BB737A7BFB7B42FAC3
:1039900003F37B737B685B781A46BB7B02FA03F305
:1039A000FB737B689A787B7B1340DAB2FB7B134313
:1039B000FB73FB7B1B01FB73164A7B681B7813446C
:1039C000FA7B83F80023134A7B681B785B09DBB220
:1039D00018467B681B7803F01F03012101FA03F3EB
:1039E00042F820300FE00B497B681B785B09DBB2A3
:1039F00018467B681B7803F01F0301229A4000F1F0
:103A0000200341F823201437BD465DF8047B70473E
:103A100000ED00E000E100E080B500AF4FF4807001
:103A2000012101F09FFA4FF48070002101F09AFA11
:103A300080BD00BF80B485B000AF786039600023DE
:103A4000FB600023FB727B685B68FB60FB6823F014
:103A5000407323F48073FB603B681B791A023B6858
:103A60001B681343FA681343FB607B68FA685A606B
:103A70007B689B68FB60FA68174B1340FB603B68F0
:103A80001A693B68DB681A433B689B681A433B68CA
:103A90005B795B001343FA681343FB607B68FA6849
:103AA0009A607B68DB6AFB60FB6823F47003FB6051
:103AB0003B681B7D013BDAB2FB7A1343FB72FB7A56
:103AC0001B05FA681343FB607B68FA68DA621437F7
:103AD000BD465DF8047B7047FDF7FFC080B483B03E
:103AE00000AF78600B46FB70FB78002B06D07B683C
:103AF0009B6843F001027B689A6005E07B689B68E5
:103B000023F001027B689A600C37BD465DF8047BA8
:103B1000704700BF80B485B000AF7860084611469A
:103B20001A460346FB700B46BB7013467B7000239E
:103B3000FB600023BB60FB78092B23D97B68DB6823
:103B4000FB60FB78A3F10A0213465B0013440722D3
:103B500002FA03F3BB60BB68DB43FA681340FB6007
:103B60007978FB78A3F10A0213465B00134401FA4B
:103B700003F3BB60FA68BB681343FB607B68FA68B9
:103B8000DA601EE07B681B69FB60FA7813465B0015
:103B90001344072202FA03F3BB60BB68DB43FA68F5
:103BA0001340FB607978FA7813465B00134401FAFE
:103BB00003F3BB60FA68BB681343FB607B68FA6879
:103BC0001A61BB78062B21D87B685B6BFB60BB78E6
:103BD0005A1E13469B0013441F2202FA03F3BB60D4
:103BE000BB68DB43FA681340FB60F978BB785A1E68
:103BF00013469B00134401FA03F3BB60FA68BB68E9
:103C00001343FB607B68FA685A6347E0BB780C2B70
:103C100021D87B681B6BFB60BB78DA1F13469B00C7
:103C200013441F2202FA03F3BB60BB68DB43FA684C
:103C30001340FB60F978BB78DA1F13469B001344EE
:103C400001FA03F3BB60FA68BB681343FB607B684F
:103C5000FA681A6322E07B68DB6AFB60BB78A3F139
:103C60000D0213469B0013441F2202FA03F3BB60AC
:103C7000BB68DB43FA681340FB60F978BB78A3F1BB
:103C80000D0213469B00134401FA03F3BB60FA686C
:103C9000BB681343FB607B68FA68DA621437BD4681
:103CA0005DF8047B704700BF80B483B000AF7860DC
:103CB0007B689B6843F080427B689A600C37BD4606
:103CC0005DF8047B704700BF80B483B000AF7860BC
:103CD0000B46FB70FB78002B06D07B689B6843F497
:103CE00080727B689A6005E07B689B6823F4807231
:103CF0007B689A600C37BD465DF8047B704700BF57
:103D000080B483B000AF78600B46FB70FB78002B6B
:103D100006D07B689B6843F400727B689A6005E07C
:103D20007B689B6823F400727B689A600C37BD4601
:103D30005DF8047B704700BF80B400AF034B0122E5
:103D40009A60BD465DF8047B704700BF00300240BA
:103D500080B483B000AF7860054A7B681360044B81
:103D60001B6818460C37BD465DF8047B704700BFE2
:103D70000030024080B485B000AF78603960002325
:103D8000FB600023BB60134B1B68FB607B6840F645
:103D9000FE7202FA03F3DB43FA681340FB603B68F0
:103DA0001A683B685B681A433B689B681A433B6828
:103DB000DB681343BB607B68BA6802FA03F3FA68F6
:103DC0001343FB60034AFB6813601437BD465DF87C
:103DD000047B70470074004080B483B000AF78600B
:103DE0007B6800221A607B6800225A607B68002290
:103DF0009A607B680022DA600C37BD465DF8047B70
:103E0000704700BF80B483B000AF78600B46FB7092
:103E1000FB78002B09D00C490B4B1A687B680120FA
:103E200000FA03F313430B6009E00749064B1A68D5
:103E30007B68012000FA03F3DB4313400B600C376F
:103E4000BD465DF8047B70470074004080B483B0C9
:103E500000AF78600B46FB70FB78002B0AD00D4951
:103E60000C4B1A687B684FF4805000FA03F313433D
:103E70000B600AE00749074B1A687B684FF48050D3
:103E800000FA03F3DB4313400B600C37BD465DF8CB
:103E9000047B70470074004080B483B000AF78604A
:103EA0007B681B6823F001027B681A607B68002234
:103EB0001A607B6800225A607B6800229A607B68E7
:103EC0000022DA607B6800221A617B6821225A6135
:103ED0007B68454A934203D1444B3D229A607EE081
:103EE0007B68434A934204D1404B4FF474629A601A
:103EF00075E07B683F4A934204D13C4B4FF4741207
:103F00009A606CE07B683C4A934204D1374B4FF097
:103F100074629A6063E07B68384A934203D1334B02
:103F2000374ADA605BE07B68364A934203D12F4B15
:103F3000354ADA6053E07B68344A934203D12B4B15
:103F4000334ADA604BE07B68324A934204D1274B14
:103F50004FF03D52DA6042E07B682F4A934203D132
:103F60002E4B3D229A603AE07B682D4A934204D161
:103F70002A4B4FF474629A6031E07B68294A93427D
:103F800004D1264B4FF474129A6028E07B68264ACD
:103F9000934204D1214B4FF074629A601FE07B681A
:103FA000224A934203D11D4B154ADA6017E07B6821
:103FB0001F4A934203D1194B134ADA600FE07B6822
:103FC0001C4A934203D1154B114ADA6007E07B6823
:103FD000194A934203D1114B4FF03D52DA600C372E
:103FE000BD465DF8047B70471060024000600240EF
:103FF0002860024040600240586002407060024009
:104000003D00002088600240400F0020A060024078
:1040100000003D20B860024010640240006402408D
:1040200028640240406402405864024070640240C8
:1040300088640240A0640240B864024080B485B045
:1040400000AF786039600023FB607B681B68FB6011
:10405000FA68244B1340FB603B681A683B68DB68D6
:104060001A433B685B691A433B689B691A433B6888
:10407000DB691A433B681B6A1A433B685B6A1A4355
:104080003B689B6A1A433B685B6B1A433B689B6BBC
:104090001343FA681343FB607B68FA681A607B6815
:1040A0005B69FB60FB6823F00703FB603B68DA6A2F
:1040B0003B681B6B1343FA681343FB607B68FA6829
:1040C0005A613B681A697B685A603B685A687B682A
:1040D0009A603B689A687B68DA601437BD465DF881
:1040E000047B70473F801CF080B483B000AF7860E1
:1040F0000B46FB70FB78002B06D07B681B6843F0F7
:1041000001027B681A6005E07B681B6823F00102EE
:104110007B681A600C37BD465DF8047B704700BFB2
:1041200080B485B000AF78600023FB737B681B68A8
:1041300003F00103002B02D00123FB7301E00023F5
:10414000FB73FB7B18461437BD465DF8047B704754
:1041500080B487B000AF786039600023FB7500231E
:10416000FB607B68154A934202D8154B3B6101E026
:10417000144B3B613B6803F00053002B03D03B69B9
:104180005B68FB6002E03B691B68FB60FB6823F037
:10419000F02323F08213FB60FA683B681340002B86
:1041A00002D00123FB7501E00023FB75FB7D18465F
:1041B0001C37BD465DF8047B704700BF0F640240AA
:1041C000006002400064024080B485B000AF7860B7
:1041D00039607B68104A934202D8104BFB6001E0C3
:1041E0000F4BFB603B6803F00053002B07D03B688C
:1041F00023F0F02323F08213FA68D36006E03B68D3
:1042000023F0F02323F08213FA6893601437BD463D
:104210005DF8047B704700BF0F64024000600240FD
:104220000064024080B485B000AFF860B960134606
:10423000FB71BB6803F08003002B0FD0FB79002BD0
:1042400006D0FB685B6943F08002FB685A6105E0B9
:10425000FB685B6923F08002FB685A61BB68802BB6
:1042600014D0FB79002B08D0FB681A68BB6803F0F8
:104270001E031A43FB681A6008E0FB681A68BB68F3
:1042800003F01E03DB431A40FB681A601437BD4677
:104290005DF8047B704700BF80B487B000AF7860E2
:1042A00039600023FB750023FB600023BB607B6843
:1042B000224A934202D8224B3B6101E0214B3B61F1
:1042C0003B6823F0F02323F0C313002B0AD03B6894
:1042D000DB0A03F01E03FB607B681A68FB6813406F
:1042E000BB6004E07B685B6903F08003BB603B68F4
:1042F00003F00053002B03D03B695B68FB6002E0D6
:104300003B691B68FB60FB6823F0F02323F08213FA
:10431000FB60FA683B681340002B05D0BB68002B9C
:1043200002D00123FB7501E00023FB75FB7D1846DD
:104330001C37BD465DF8047B704700BF0F64024028
:10434000006002400064024080B485B000AF786035
:1043500039607B68104A934202D8104BFB6001E041
:104360000F4BFB603B6803F00053002B07D03B680A
:1043700023F0F02323F08213FA68D36006E03B6851
:1043800023F0F02323F08213FA6893601437BD46BC
:104390005DF8047B704700BF0F640240006002407C
:1043A0000064024080B400AF064B1B69002B05DAA5
:1043B000044B054A5A60034B044A5A60BD465DF8F7
:1043C000047B7047003C024023016745AB89EFCD79
:1043D00080B400AF044A044B1B6943F000431361EF
:1043E000BD465DF8047B7047003C024080B584B058
:1043F00000AF78600B46FB700023FB600923FB7263
:10440000FB78002B02D10023FB6010E0FB78012B2E
:1044100003D14FF48073FB6009E0FB78022B03D1DA
:104420004FF40073FB6002E04FF44073FB6000F058
:1044300027F90346FB72FB7A092B2FD11A4A1A4B34
:104440001B6923F4407313611749174B1A69FB6802
:1044500013430B61144A144B1B6923F0F8031361D7
:104460001149114B1A697B68134343F002030B6136
:104470000D4A0D4B1B6943F48033136100F000F9C2
:104480000346FB72084A084B1B6923F002031361C1
:10449000054A054B1B6923F0F8031361FB7A1846A4
:1044A0001037BD4680BD00BF003C024080B584B0DF
:1044B00000AF786039600923FB7300F0E1F8034630
:1044C000FB73FB7B092B1ED1114A114B1B6923F493
:1044D000407313610E4A0E4B1B6943F40073136162
:1044E0000B4A0B4B1B6943F0010313617B683A686D
:1044F0001A6000F0C5F80346FB73054A044B1B69BC
:1045000023F001031361FB7B18461037BD4680BDC5
:10451000003C024080B584B000AF78600B467B80E1
:104520000923FB7300F0ACF80346FB73FB7B092BFC
:104530001ED1124A114B1B6923F4407313610F4AB9
:104540000E4B1B6943F4807313610C4A0B4B1B69C0
:1045500043F0010313617B687A881A8000F090F8B9
:104560000346FB73054A054B1B6923F001031361E6
:10457000FB7B18461037BD4680BD00BF003C0240A3
:1045800080B584B000AF78600B46FB700923FB73E5
:1045900000F076F80346FB73FB7B092B1CD1114A14
:1045A000104B1B6923F4407313610E4A0D4B1B69BA
:1045B00013610C4A0B4B1B6943F0010313617B68C9
:1045C000FA781A7000F05CF80346FB73054A054B55
:1045D0001B6923F001031361FB7B18461037BD46AE
:1045E00080BD00BF003C024080B483B000AF786063
:1045F000034A7B68D3600C37BD465DF8047B704787
:10460000003C024080B483B000AF0923FB711B4B18
:10461000DB6803F48033002B02D00123FB7125E01B
:10462000164BDB6803F01003002B02D00623FB714E
:104630001CE0124BDB6803F48073002B02D00223D2
:10464000FB7113E00D4BDB6803F0EF03002B02D08E
:104650000723FB710AE0094BDB6803F00203002B20
:1046600002D00823FB7101E00923FB71FB79184696
:104670000C37BD465DF8047B704700BF003C02402C
:1046800080B582B000AF0923FB71FFF7BBFF034683
:10469000FB7103E0FFF7B6FF0346FB71FB79DBB26A
:1046A000012BF7D0FB79DBB218460837BD4680BD39
:1046B00080B487B000AF7860396000237B6100234D
:1046C0003B610023FB6000237B6176E07B69012274
:1046D00002FA03F33B613B681A683B691340FB60D5
:1046E000FA683B699A4265D17B681A687B695B000E
:1046F000194603238B40DB431A407B681A607B68B2
:104700001A683B681B7919467B695B0001FA03F361
:104710001A437B681A603B681B79012B03D03B6806
:104720001B79022B2ED17B689A687B695B00194646
:1047300003238B40DB431A407B689A607B689A684E
:104740003B685B7919467B695B0001FA03F31A4306
:104750007B689A607B685A687B699BB21946012323
:104760008B40DB431A407B685A607B685B683A6821
:10477000927911467A6992B201FA02F292B21A4320
:104780007B685A607B68DA687B699BB25B000321B7
:1047900001FA03F3DB431A407B68DA607B68DA686E
:1047A0003B68DB7919467B695B0001FA03F31A4326
:1047B0007B68DA607B6901337B617B690F2B85D96C
:1047C0001C37BD465DF8047B704700BF80B483B0E2
:1047D00000AF78607B684FF6FF721A607B6800223A
:1047E0001A717B6800225A717B6800229A717B687B
:1047F0000022DA710C37BD465DF8047B704700BFBC
:1048000080B483B000AF78600B467B807B687A8889
:104810001A830C37BD465DF8047B704780B483B0C3
:1048200000AF78600B467B807B687A885A830C37B0
:10483000BD465DF8047B704780B485B000AF7860FA
:104840000B467B8013467B700023FB600023BB601C
:104850007B787A8802F0070292009340FB607B88A5
:10486000DB089BB218467B88DB089BB21A467B6844
:10487000083253F822207B8803F007039B00194677
:104880000F238B40DB4302EA03017B6800F108023F
:1048900043F822107B88DB089BB21A467B680832FB
:1048A00053F82220FB681343BB607B88DB089BB274
:1048B0001A467B680832B96843F822101437BD469F
:1048C0005DF8047B704700BF80B582B000AF7860B0
:1048D0007B68174A93420AD14FF40010012100F07F
:1048E00023FB4FF40010002100F01EFB1CE07B684E
:1048F000104A93420AD14FF48000012100F014FBCA
:104900004FF48000002100F00FFB0DE07B680A4AA5
:10491000934209D14FF40000012100F005FB4FF450
:104920000000002100F000FB0837BD4680BD00BF3D
:104930000054004000580040005C004080B58AB040
:1049400000AF786039600023FB8400237B8404235C
:10495000BB84574BFB617B689B88FB84FB8C23F0FB
:104960003F03FB8407F10C03184600F0D9F97B697B
:10497000FB61FB694F4AA2FB03239B0C7B84FA8CEF
:104980007B8C1343FB847B68FA8C9A807B681B8842
:104990009BB223F001039AB27B681A800023FB8448
:1049A0003B681B68444A934215D83B681B685B0010
:1049B000FA69B2FBF3F3BB84BB8C032B01D804234D
:1049C000BB84FA8CBB8C1343FB847B8C01339AB27F
:1049D0007B681A8440E03B68DB884BF6FF729342A9
:1049E00009D13B681A6813465B001344FA69B2FBAD
:1049F000F3F3BB840EE03B681A6813469B00134434
:104A00009A001344FA69B2FBF3F3BB84BB8C43F402
:104A10008043BB84BB8CC3F30B03002B03D1BB8C43
:104A200043F00103BB84BA8CFB8C13439BB26FEA47
:104A300043436FEA5343FB847B8C4FF4967202FB33
:104A400003F31E4A82FB03129211DB17D31A9BB2A7
:104A500001339AB27B681A847B68FA8C9A837B68EC
:104A60001B889BB243F001039AB27B681A807B6873
:104A70001B88FB84FB8C23F4816323F00203FB84FB
:104A80003B689A883B685B8913439AB2FB8C13435B
:104A9000FB847B68FA8C1A803B689A893B681B8987
:104AA00013439AB27B681A812837BD4680BD00BF88
:104AB00000127A0083DE1B43A0860100D34D6210F2
:104AC00080B483B000AF78600B46FB70FB78002B9E
:104AD00008D07B681B889BB243F001039AB27B68C5
:104AE0001A8007E07B681B889BB223F001039AB20F
:104AF0007B681A800C37BD465DF8047B704700BFA9
:104B000080B483B000AF78600B46FB70FB78002B5D
:104B100008D07B681B889BB243F480739AB27B6891
:104B20001A8007E07B681B889BB223F480739AB2DB
:104B30007B681A800C37BD465DF8047B704700BF68
:104B400080B483B000AF78600B46FB70FB78002B1D
:104B500008D07B681B889BB243F400739AB27B68D1
:104B60001A8007E07B681B889BB223F400739AB21B
:104B70007B681A800C37BD465DF8047B704700BF28
:104B800080B483B000AF78600B46FB701346BB70F7
:104B9000BB78002B04D0FB7843F00103FB7003E0EB
:104BA000FB7823F00103FB70FB789AB27B681A82D2
:104BB0000C37BD465DF8047B704700BF80B483B0FE
:104BC00000AF78600B46FB70FB78002B08D07B6849
:104BD0001B889BB243F480639AB27B681A8007E01B
:104BE0007B681B889BB223F480639AB27B681A802F
:104BF0000C37BD465DF8047B704700BF80B483B0BE
:104C000000AF78600B46FB70FB789AB27B681A8223
:104C10000C37BD465DF8047B704700BF80B483B09D
:104C200000AF78607B681B8A9BB2DBB218460C37FA
:104C3000BD465DF8047B704780B487B000AF7860F4
:104C4000396000233B610023FB600023BB6000232D
:104C5000FB757B689B8A9BB2FB607B681B8B9BB25E
:104C6000BB60BB681B04BB60FA68BB68134323F0DE
:104C70007F433B613A693B681A403B689A4202D1E4
:104C80000123FB7501E00023FB75FB7D18461C37F3
:104C9000BD465DF8047B704780B487B000AF786094
:104CA00039600023FB7500233B610023FB607B68B8
:104CB000FB603B681B0F3B613B6823F07F433B601D
:104CC0003B69002B03D0FB681433FB6005E03B68B5
:104CD0001B0C3B60FB681833FB60FB681A683B6881
:104CE0001340002B02D00123FB7501E00023FB756C
:104CF000FB7D18461C37BD465DF8047B704700BF3E
:104D000080B483B000AF0346FB71044AFB791360A3
:104D10000C37BD465DF8047B704700BF6800474212
:104D200080B489B000AF78600023BB6100237B6151
:104D30000023FB6102233B610023FB600223BB6075
:104D4000484B9B6803F00C03BB61BB69042B07D085
:104D5000082B09D0002B3FD17B68434A1A603FE003
:104D60007B68424A1A603BE03E4B5B6803F4800379
:104D70009B0DFB603B4B5B6803F03F03BB60FB6834
:104D8000002B0DD0394ABB68B2FBF3F2354B5968A2
:104D900047F6C0730B409B0903FB02F3FB610CE079
:104DA000314ABB68B2FBF3F22E4B596847F6C07329
:104DB0000B409B0903FB02F3FB612A4B5B6803F486
:104DC00040331B0C01335B003B61FA693B69B2FB6A
:104DD000F3F27B681A6003E07B68234A1A6000BF25
:104DE000204B9B6803F0F003BB61BB691B09BB61EF
:104DF0001F4ABB6913441B78DBB27B617B681A686E
:104E00007B69DA407B685A60164B9B6803F4E05379
:104E1000BB61BB699B0ABB61154ABB6913441B7824
:104E2000DBB27B617B685A687B69DA407B689A6099
:104E30000C4B9B6803F46043BB61BB695B0BBB61BC
:104E40000B4ABB6913441B78DBB27B617B685A68F1
:104E50007B69DA407B68DA602437BD465DF8047B05
:104E6000704700BF003802400024F40040787D0104
:104E70000400002080B483B000AF78600B46FB7064
:104E8000FB78002B06D00949084B1A6B7B6813434B
:104E90000B6306E00549054B1A6B7B68DB43134047
:104EA0000B630C37BD465DF8047B70470038024049
:104EB00080B483B000AF78600B46FB70FB78002BAA
:104EC00006D00949084B1A6C7B6813430B6406E053
:104ED0000549054B1A6C7B68DB4313400B640C37A8
:104EE000BD465DF8047B70470038024080B483B053
:104EF00000AF78600B46FB70FB78002B06D00949A9
:104F0000084B5A6C7B6813434B6406E00549054B1C
:104F10005A6C7B68DB4313404B640C37BD465DF82D
:104F2000047B70470038024080B483B000AF7860E3
:104F30000B46FB70FB78002B06D00949084B1A6A18
:104F40007B6813430B6206E00549054B1A6A7B68D0
:104F5000DB4313400B620C37BD465DF8047B7047A2
:104F60000038024080B483B000AF78600B46FB701D
:104F7000FB78002B06D00949084B5A6A7B6813431B
:104F80004B6206E00549054B5A6A7B68DB431340D8
:104F90004B620C37BD465DF8047B70470038024019
:104FA00080B582B000AF78607B682D4A93420AD109
:104FB0004FF480500121FFF7D5FF4FF480500021BE
:104FC000FFF7D0FF49E07B68264A93420AD14FF4AD
:104FD00080400121FFF7A8FF4FF480400021FFF738
:104FE000A3FF3AE07B68204A93420AD14FF4004085
:104FF0000121FFF799FF4FF400400021FFF794FFD4
:105000002BE07B68194A93420AD14FF400500121EA
:10501000FFF7A8FF4FF400500021FFF7A3FF1CE0AB
:105020007B68134A93420AD14FF480100121FFF7A5
:1050300099FF4FF480100021FFF794FF0DE07B688B
:105040000C4A934209D14FF400100121FFF78AFF67
:105050004FF400100021FFF785FF0837BD4680BDE3
:105060000030014000380040003C00400034014066
:10507000005001400054014080B48BB000AF786014
:10508000396000237B830223FB840023BB8401233C
:105090007B840023FB6100237B6100233B610023B1
:1050A000FB600023BB607B689B8B9BB223F47B631C
:1050B00023F00F039AB27B689A837B6802221A84DA
:1050C0007B689B8B7B833B689B68022B04D100230E
:1050D000BB840223FB8472E03B689B88002B02D1D7
:1050E00001237B8401E002237B844D4B9B6803F406
:1050F0000003002B05D04A4A494B9B6823F4000368
:105100009360474BD3F8842047F6C07313409B0944
:10511000C3F30803FB60424BD3F8843003F0E04351
:105120001B0F03F00703BB603D4B5B6803F03F03BD
:105130003B613C4A3B69B2FBF3F3FA6802FB03F2C2
:10514000BB68B2FBF3F37B613B68DB88B3F5007FA0
:105150000FD17B691A0A13469B0013445B001A4661
:105160003B689B68B2FBF3F39BB205339BB2FB61D8
:1051700012E07B8C5B011A467B69B3FBF2F21346AB
:105180009B0013445B001A463B689B68B2FBF3F339
:105190009BB205339BB2FB61FB69234AA2FB03234D
:1051A000DB08FB61FB699BB203F00103BB84BB8C92
:1051B000FA69D31A5B08FB84BB8C1B02BB84FB8C93
:1051C000012B02D9FB8CFF2B03D90223FB84002384
:1051D000BB843B68DA88BB8C13439AB2FB8C1343C5
:1051E0009AB27B681A843B681A883B6859883B6886
:1051F00098883B689B8903439BB20B439BB2134344
:105200009AB27B8B13439BB243F400637B837B682E
:105210007A8B9A832C37BD465DF8047B704700BFBC
:105220000038024040787D01CDCCCCCC80B483B036
:1052300000AF78600B46FB70FB78002B08D07B68D2
:105240009B8B9BB243F480639AB27B689A8307E09E
:105250007B689B8B9BB223F480639AB27B689A83B2
:105260000C37BD465DF8047B704700BF80B483B047
:1052700000AF78600B467B807B687A889A810C3718
:10528000BD465DF8047B704780B485B000AF7860A0
:105290000B467B800023FB737B681B899AB27B885B
:1052A00013409BB2002B02D00123FB7301E00023CB
:1052B000FB73FB7B18461437BD465DF8047B7047D3
:1052C00080B485B000AF786039600023FB817B68D3
:1052D0001B88FB817B68284A934213D07B68274A4E
:1052E00093420FD07B68B3F1804F0BD07B68244A88
:1052F000934207D07B68234A934203D07B68224ABB
:10530000934208D1FB8923F07003FB813B685A88E4
:10531000FB891343FB817B681C4A93420CD07B685A
:105320001B4A934208D0FB8923F44073FB813B68FE
:105330001A89FB891343FB817B68FA891A803B68D1
:105340005A687B68DA623B681A887B681A857B68D2
:10535000094A934203D07B68084A934204D13B68D0
:105360009B7A9AB27B681A867B6801229A821437EC
:10537000BD465DF8047B7047000001400004014019
:105380000004004000080040000C004000100040F5
:105390000014004080B483B000AF78607B684FF0A9
:1053A000FF325A607B6800221A807B6800221A81D3
:1053B0007B6800225A807B6800229A720C37BD46B7
:1053C0005DF8047B704700BF80B483B000AF7860A5
:1053D0000B46FB70FB78002B08D07B681B889BB2C8
:1053E00043F001039AB27B681A8007E07B681B8850
:1053F0009BB223F001039AB27B681A800C37BD463A
:105400005DF8047B704700BF80B483B000AF786064
:105410000B467B807B689B889BB223F070039AB21B
:105420007B689A807B689B889AB27B8813439AB288
:105430007B689A800C37BD465DF8047B704700BFDF
:1054400080B5A0B000AF786039607B681B88BB6610
:10545000BB6E9B003A6813447B677B685B683B6765
:105460003B687B667B6F3B66BB6E5B08BB66BB6E57
:105470009B003A681344FB67BB6E9B007A6F134432
:10548000BB67BB6E9B08FB66B6E13B681B68BB63F2
:105490003B685B68FB633B689B683B643B68DB681D
:1054A0007B647B6F1B68BB627B6F5B68FB627B6F9F
:1054B0009B683B637B6FDB687B63FB6F1B68BB6137
:1054C000FB6F5B68FB61FB6F9B683B62FB6FDB689C
:1054D0007B62BB6F1B68BB60BB6F5B68FB60BB6FB5
:1054E0009B683B61BB6FDB687B613B681A1D3A6060
:1054F00097ED0E7AD7ED0A7A77EE277AC3ED007A28
:105500003B681A1D3A6097ED0F7AD7ED0B7A77EE6C
:10551000277AC3ED007A3B681A1D3A6097ED107A3E
:10552000D7ED0C7A77EE277AC3ED007A3B681A1D27
:105530003A6097ED117AD7ED0D7A77EE277AC3EDC1
:10554000007A97ED0E7AD7ED0A7A77EE677AC7ED93
:105550000A7A97ED0F7AD7ED0B7A77EE677AC7ED77
:105560000B7A97ED107AD7ED0C7A77EE677AC7ED64
:105570000C7A97ED117AD7ED0D7A77EE677AC7ED51
:105580000D7AFB6F1A1DFA6797ED067AD7ED027A4E
:1055900077EE277AC3ED007AFB6F1A1DFA6797ED55
:1055A000077AD7ED037A77EE277AC3ED007AFB6F9F
:1055B0001A1DFA6797ED087AD7ED047A77EE277A05
:1055C000C3ED007AFB6F1A1DFA6797ED097AD7EDE4
:1055D000057A77EE277AC3ED007A97ED027AD7ED58
:1055E000067A77EE677AC7ED027A97ED037AD7ED00
:1055F000077A77EE677AC7ED037A97ED047AD7EDED
:10560000087A77EE677AC7ED047A97ED057AD7EDD9
:10561000097A77EE677AC7ED057A3B6F1A1D3A670C
:105620001B68FB653B6F1A1D3A671B68BB6597EDEE
:105630000A7AD7ED177A67EE277AC7ED157A97EDD4
:105640000B7AD7ED167A67EE277AC7ED147A97EDC5
:105650000B7AD7ED177A67EE277AC7ED137A97EDB5
:105660000A7AD7ED167A67EE277AC7ED127A7B6F42
:105670001A1D7A6797ED157AD7ED147A77EE277AA7
:10568000C3ED007A7B6F1A1D7A6797ED137AD7ED19
:10569000127A77EE677AC3ED007A97ED027AD7ED4A
:1056A000167A67EE277AC7ED157A97ED037AD7ED6C
:1056B000177A67EE277AC7ED147A97ED037AD7ED5C
:1056C000167A67EE277AC7ED137A97ED027AD7ED4F
:1056D000177A67EE277AC7ED127ABB6F1A1DBA6781
:1056E00097ED157AD7ED147A77EE677AC3ED007AE5
:1056F000BB6F1A1DBA6797ED137AD7ED127A77EE62
:10570000277AC3ED007A3B6F1A1D3A671B68FB6569
:105710003B6F1A1D3A671B68BB6597ED0C7AD7ED96
:10572000177A67EE277AC7ED157A97ED0D7AD7EDE0
:10573000167A67EE277AC7ED147A97ED0D7AD7EDD2
:10574000177A67EE277AC7ED137A97ED0C7AD7EDC3
:10575000167A67EE277AC7ED127A7B6F1A1D7A6781
:1057600097ED157AD7ED147A77EE277AC3ED007AA4
:105770007B6F1A1D7A6797ED137AD7ED127A77EE61
:10578000677AC3ED007A97ED047AD7ED167A67EE63
:10579000277AC7ED157A97ED057AD7ED177A67EE78
:1057A000277AC7ED147A97ED057AD7ED167A67EE6A
:1057B000277AC7ED137A97ED047AD7ED177A67EE5B
:1057C000277AC7ED127ABB6F1A1DBA6797ED157A63
:1057D000D7ED147A77EE677AC3ED007ABB6F1A1DA6
:1057E000BA6797ED137AD7ED127A77EE277AC3ED81
:1057F000007AFB6E013BFB66FB6E002B7FF445AE2F
:10580000BB6E9AB27B685B68786E11461A460223BB
:1058100000F0E6FEBB6E9AB27B685B68386E11469C
:105820001A46022300F0DCFE8037BD4680BD00BF73
:1058300080B5ACB000AF786039607B681B885B08CE
:105840009BB2C7F88030D7F880309B003A68134489
:10585000C7F89030D7F880309B00D7F890201344D9
:10586000C7F88C30D7F880309B00D7F88C201344D1
:10587000C7F888303B68FB67D7F89030BB67D7F82C
:105880008C307B67D7F888303B67D7F89030043B83
:10589000C7F8AC30D7F88C30043BC7F8A830D7F83D
:1058A0008830043BC7F8A430D7F880309B00D7F885
:1058B000A4201344C7F8A0307B685B68C7F8943015
:1058C000D7F89430C7F89830D7F89830C7F89C309C
:1058D000D7F880305B08C7F880300223FB660423CA
:1058E000BB6606237B663B6893ED007AD7F88C3065
:1058F000D3ED007A77EE277AC7ED187A3B6893EDFF
:10590000007AD7F88C30D3ED007A77EE677AC7ED5E
:10591000177A3B68043393ED007AD7F88C30043360
:10592000D3ED007A77EE277AC7ED167A3B68043319
:1059300093ED007AD7F88C300433D3ED007A77EE0C
:10594000677AC7ED157AD7F89030043393ED007A73
:10595000D7ED177A37EE277AD7F888300433D3EDAE
