:020000040800F2
:1000000000000220B51B0108FD1B0108951B01081B
:100010009D1B0108A51B0108AD1B01080000000085
:10002000000000000000000000000000FD1B0108AF
:10003000FD1B010800000000FD1B0108FD1B01085D
:10004000FD1B0108FD1B0108FD1B0108FD1B01082C
:10005000FD1B0108FD1B0108FD1B0108FD1B01081C
:10006000FD1B0108FD1B0108FD1B0108FD1B01080C
:10007000FD1B0108FD1B0108FD1B0108FD1B0108FC
:1000800095210108BD220108FD1B0108FD1B010887
:10009000FD1B0108FD1B0108FD1B0108FD1B0108DC
:1000A000FD1B0108FD1B0108FD1B0108FD1B0108CC
:1000B000FD1B0108FD1B0108FD1B0108FD1B0108BC
:1000C000FD1B0108FD1B0108FD1B0108FD1B0108AC
:1000D000FD1B0108FD1B0108FD1B0108FD1B01089C
:1000E000FD1B0108FD1B0108FD1B0108FD1B01088C
:1000F000FD1B0108FD1B0108FD1B0108FD1B01087C
:10010000FD1B0108FD1B0108FD1B0108FD1B01086B
:10011000FD1B0108FD1B0108FD1B0108FD1B01085B
:10012000ED1D0108FD1B0108FD1B0108FD1B010859
:10013000FD1B0108FD1B0108FD1B0108FD1B01083B
:10014000FD1B0108FD1B0108FD1B0108FD1B01082B
:10015000FD1B0108FD1B0108FD1B0108FD1B01081B
:10016000FD1B0108FD1B0108FD1B0108FD1B01080B
:020000040801F1
:1000000010B5054C237833B9044B13B10448AFF352
:1000100000800123237010BD700800200000000044
:1000200030C20108084B10B51BB108480849AFF3AE
:1000300000800848036803B910BD074B002BFBD0B4
:10004000BDE81040184700BF0000000030C20108A2
:10005000740800207008002000000000844641EA77
:10006000000313F003036DD1403A41D351F8043B30
:1000700040F8043B51F8043B40F8043B51F8043B82
:1000800040F8043B51F8043B40F8043B51F8043B72
:1000900040F8043B51F8043B40F8043B51F8043B62
:1000A00040F8043B51F8043B40F8043B51F8043B52
:1000B00040F8043B51F8043B40F8043B51F8043B42
:1000C00040F8043B51F8043B40F8043B51F8043B32
:1000D00040F8043B51F8043B40F8043B51F8043B22
:1000E00040F8043B51F8043B40F8043B403ABDD291
:1000F000303211D351F8043B40F8043B51F8043B33
:1001000040F8043B51F8043B40F8043B51F8043BF1
:1001100040F8043B103AEDD20C3205D351F8043BC1
:1001200040F8043B043AF9D2043208D0D2071CBF8D
:1001300011F8013B00F8013B01D30B8803806046B6
:10014000704700BF082A13D38B078DD010F003032C
:100150008AD0C3F10403D21ADB071CBF11F8013B9C
:1001600000F8013B80D331F8023B20F8023B7BE7EB
:10017000043AD9D3013A11F8013B00F8013BF9D216
:100180000B7803704B7843708B78837060467047B0
:1001900081F0004102E000BF83F0004330B54FEA38
:1001A00041044FEA430594EA050F08BF90EA020FA5
:1001B0001FBF54EA000C55EA020C7FEA645C7FEA38
:1001C000655C00F0E2804FEA5454D4EB5555B8BF5B
:1001D0006D420CDD2C4480EA020281EA030382EACC
:1001E000000083EA010180EA020281EA0303362D5E
:1001F00088BF30BD11F0004F4FEA01314FF4801C31
:100200004CEA113102D0404261EB410113F0004F42
:100210004FEA03334CEA133302D0524263EB4303F9
:1002200094EA050F00F0A780A4F10104D5F1200E97
:100230000DDB02FA0EFC22FA05F2801841F10001F2
:1002400003FA0EF2801843FA05F359410EE0A5F1C6
:1002500020050EF1200E012A03FA0EFC28BF4CF0F7
:10026000020C43FA05F3C01851EBE37101F00045AD
:1002700007D54FF0000EDCF1000C7EEB00006EEBBA
:100280000101B1F5801F1BD3B1F5001F0CD3490844
:100290005FEA30004FEA3C0C04F101044FEA44529B
:1002A00012F5800F80F09A80BCF1004F08BF5FEA22
:1002B000500C50F1000041EB045141EA050130BD02
:1002C0005FEA4C0C404141EB010111F4801FA4F1A5
:1002D0000104E9D191F0000F04BF01460020B1FAFA
:1002E00081F308BF2033A3F10B03B3F120020CDA32
:1002F0000C3208DD02F1140CC2F10C0201FA0CF010
:1003000021FA02F10CE002F11402D8BFC2F1200C74
:1003100001FA02F120FA0CFCDCBF41EA0C0190402A
:10032000E41AA2BF01EB0451294330BD6FEA040473
:100330001F3C1CDA0C340EDC04F11404C4F120025E
:1003400020FA04F001FA02F340EA030021FA04F370
:1003500045EA030130BDC4F10C04C4F1200220FAC7
:1003600002F001FA04F340EA0300294630BD21FA05
:1003700004F0294630BD94F0000F83F4801306BFCB
:1003800081F480110134013D4EE77FEA645C18BFBF
:100390007FEA655C29D094EA050F08BF90EA020F56
:1003A00005D054EA000C04BF1946104630BD91EA4E
:1003B000030F1EBF0021002030BD5FEA545C05D151
:1003C0004000494128BF41F0004130BD14F5800490
:1003D0003CBF01F5801130BD01F0004545F0FE4104
:1003E00041F470014FF0000030BD7FEA645C1ABF39
:1003F000194610467FEA655C1CBF0B46024650EA70
:10040000013406BF52EA033591EA030F41F400219B
:1004100030BD00BF90F0000F04BF0021704730B521
:100420004FF4806404F132044FF000054FF00001F6
:1004300050E700BF90F0000F04BF0021704730B5B7
:100440004FF4806404F1320410F0004548BF40428C
:100450004FF000013EE700BF42004FEAE2014FEAE1
:1004600031014FEA02701FBF12F07F4393F07F4FBC
:1004700081F06051704792F0000F14BF93F07F4FEE
:10048000704730B54FF4607401F0004521F0004131
:1004900020E700BF50EA010208BF704730B54FF0B7
:1004A00000050AE050EA010208BF704730B511F0BC
:1004B000004502D5404261EB41014FF4806404F1F4
:1004C00032045FEA915C3FF4DCAE4FF003025FEA76
:1004D000DC0C18BF03325FEADC0C18BF033202EBFE
:1004E000DC02C2F1200300FA03FC20FA02F001FA58
:1004F00003FE40EA0E0021FA02F11444C1E600BFF7
:1005000070B54FF0FF0C4CF4E06C1CEA11541DBFA9
:100510001CEA135594EA0C0F95EA0C0F00F0DEF874
:100520002C4481EA030621EA4C5123EA4C5350EA59
:10053000013518BF52EA033541F4801143F48013AA
:1005400038D0A0FB02CE4FF00005E1FB02E506F03B
:100550000042E0FB03E54FF00006E1FB03569CF090
:10056000000F18BF4EF0010EA4F1FF04B6F5007F96
:1005700064F5407404D25FEA4E0E6D4146EB060608
:1005800042EAC62141EA55514FEAC52040EA5E5091
:100590004FEACE2EB4F1FD0C88BFBCF5E06F1ED83B
:1005A000BEF1004F08BF5FEA500E50F1000041EB72
:1005B000045170BD06F0004646EA010140EA02001F
:1005C00081EA0301B4EB5C04C2BFD4EB0C0541EA41
:1005D000045170BD41F480114FF0000E013C00F356
:1005E000AB8014F1360FDEBF002001F0004170BD7A
:1005F000C4F10004203C35DA0C341BDC04F1140493
:10060000C4F1200500FA05F320FA04F001FA05F21E
:1006100040EA020001F0004221F0004110EBD370EB
:1006200021FA04F642EB06015EEA430E08BF20EA17
:10063000D37070BDC4F10C04C4F1200500FA04F3BA
:1006400020FA05F001FA04F240EA020001F000414C
:1006500010EBD37041F100015EEA430E08BF20EABF
:10066000D37070BDC4F1200500FA05F24EEA020E07
:1006700020FA04F301FA05F243EA020321FA04F036
:1006800001F0004121FA04F220EA020000EBD370ED
:100690005EEA430E08BF20EAD37070BD94F0000FED
:1006A0000FD101F00046400041EB010111F4801F21
:1006B00008BF013CF7D041EA060195F0000F18BFD2
:1006C000704703F00046520043EB030313F4801F0E
:1006D00008BF013DF7D043EA0603704794EA0C0FC8
:1006E0000CEA135518BF95EA0C0F0CD050EA4106DE
:1006F00018BF52EA4306D1D181EA030101F000415B
:100700004FF0000070BD50EA410606BF1046194682
:1007100052EA430619D094EA0C0F02D150EA01368E
:1007200013D195EA0C0F05D152EA03361CBF1046CF
:1007300019460AD181EA030101F0004141F0FE416E
:1007400041F470014FF0000070BD41F0FE4141F4F2
:10075000780170BD70B54FF0FF0C4CF4E06C1CEAF2
:1007600011541DBF1CEA135594EA0C0F95EA0C0FA7
:1007700000F0A7F8A4EB050481EA030E52EA033562
:100780004FEA013100F088804FEA03334FF0805583
:1007900045EA131343EA12634FEA022245EA1115B0
:1007A00045EA10654FEA00260EF000419D4208BF61
:1007B000964244F1FD0404F5407402D25B084FEA0E
:1007C0003202B61A65EB03055B084FEA32024FF4BA
:1007D00080104FF4002CB6EB020E75EB030E22BF17
:1007E000B61A754640EA0C005B084FEA3202B6EBD7
:1007F000020E75EB030E22BFB61A754640EA5C0086
:100800005B084FEA3202B6EB020E75EB030E22BF15
:10081000B61A754640EA9C005B084FEA3202B6EB16
:10082000020E75EB030E22BFB61A754640EADC00D5
:1008300055EA060E18D04FEA051545EA16754FEA37
:1008400006164FEAC30343EA52734FEAC2025FEA55
:100850001C1CC0D111F4801F0BD141EA00014FF0E4
:1008600000004FF0004CB6E711F4801F04BF0143B5
:100870000020B4F1FD0C88BFBCF5E06F3FF6AFAED1
:10088000B5EB030C04BFB6EB020C5FEA500C50F161
:10089000000041EB045170BD0EF0004E4EEA1131E4
:1008A00014EB5C04C2BFD4EB0C0541EA045170BDEB
:1008B00041F480114FF0000E013C90E645EA060E2F
:1008C0008DE60CEA135594EA0C0F08BF95EA0C0F5D
:1008D0003FF43BAF94EA0C0F0AD150EA01347FF4A5
:1008E00034AF95EA0C0F7FF425AF104619462CE77C
:1008F00095EA0C0F06D152EA03353FF4FDAE1046DF
:10090000194622E750EA410618BF52EA43067FF42F
:10091000C5AE50EA41047FF40DAF52EA43057FF4BF
:10092000EBAE12E74FF0FF3C06E000BF4FF0010CCA
:1009300002E000BF4FF0010C4DF804CD4FEA410C2E
:100940007FEA6C5C4FEA430C18BF7FEA6C5C1BD0FB
:1009500001B050EA410C0CBF52EA430C91EA030F7C
:1009600002BF90EA020F0020704710F1000F91EAD9
:10097000030F58BF994208BF90422CBFD8176FEAA7
:10098000E37040F0010070474FEA410C7FEA6C5C75
:1009900002D150EA013C07D14FEA430C7FEA6C5C7C
:1009A000D6D152EA033CD3D05DF8040B704700BFA8
:1009B0008446104662468C461946634600E000BFF6
:1009C00001B5FFF7B7FF002848BF10F1000F01BDC8
:1009D0004DF808EDFFF7F4FF0CBF012000205DF893
:1009E00008FB00BF4DF808EDFFF7EAFF34BF012018
:1009F00000205DF808FB00BF4DF808EDFFF7E0FFB1
:100A000094BF012000205DF808FB00BF4DF808ED01
:100A1000FFF7CEFF94BF012000205DF808FB00BF68
:100A20004DF808EDFFF7C4FF34BF012000205DF84A
:100A300008FB00BF4FEA4102B2F1E04324BFB3F527
:100A4000001CDCF1FE5C0DD901F0004C4FEAC00245
:100A50004CEA5070B2F1004F40EB830008BF20F029
:100A60000100704711F0804F21D113F13872BCBFE3
:100A700001F00040704741F480114FEA5252C2F138
:100A80001802C2F1200C10FA0CF320FA02F018BF81
:100A900040F001004FEAC1234FEAD32303FA0CFCD4
:100AA00040EA0C0023FA02F34FEA4303CCE77FEA63
:100AB000625307D150EA01331EBF4FF0FE4040F4AD
:100AC0004000704701F0004040F0FE4040F400005C
:100AD000704700BF53B94AB9002908BF00281CBF9E
:100AE0004FF0FF314FF0FF3000F03CB882B0EC46E1
:100AF0002DE9005000F01EF8DDF804E002B00CBC57
:100B0000704700BF2DE9F041069C154606460F468A
:100B1000984600F029F805FB01F300FB0838A5FB17
:100B20000023B21A434467EB0303C4E90023BDE882
:100B3000F08100BF2DE9F041069C904606460F4625
:100B40001D4600F05FF900FB05F5A0FB082308FB3C
:100B50000155B21A2B4467EB0303C4E90023BDE837
:100B6000F08100BF704700BF00292DE9F043C0F2BB
:100B7000A6800026002BC0F29C80884694469E46A4
:100B8000154604460F46002B3DD18A4259D9B2FA88
:100B900082F33BB1C3F120029F4020FA02F29D4054
:100BA00017439C40290C220CB7FBF1FEA8B201FBB5
:100BB0001E7742EA074700FB0EF3BB420AD97F19B2
:100BC0000EF1FF3280F00581BB4240F20281AEF1AE
:100BD000020E2F44FF1AA4B2B7FBF1F301FB137707
:100BE00044EA074700FB03F0B84208D97F1903F134
:100BF000FF3280F0F080B84240F2ED80023B43EAE1
:100C00000E43002203E08B420FD900221346341C0E
:100C100018BF012460424FF0000565EB45015840C4
:100C2000514000196941BDE8F083B3FA83F2002A0C
:100C300040F086808B4202D3844500F2DB800123A2
:100C4000E5E712B90123B3FBF2F5B5FA85F0002808
:100C50003BD1781B4FEA154E1FFA85FC0122B0FBF1
:100C6000FEF8210C0EFB180741EA07470CFB08F3BE
:100C7000BB4207D97F1908F1FF3102D2BB4200F213
:100C8000BD808846FF1AA4B2B7FBFEF30EFB1377B4
:100C900044EA07470CFB03FCBC4507D97F1903F165
:100CA000FF3102D2BC4500F2A7800B4643EA08435D
:100CB000ADE752426FEA060663EB43035DE740424D
:100CC00061EB41014FF0FF3654E7C0F1200224FAF6
:100CD00002F107FA00F385404FEA154ED740194359
:100CE000B7FBFEF20B0C0EFB12771FFA85FC43EAF2
:100CF00007430CFB02F79F4204FA00F407D95B1983
:100D000002F1FF3074D29F4272D9023A2B44DF1BAA
:100D100089B2B7FBFEF80EFB187341EA03430CFBE4
:100D200008F79F4208D95B1908F1FF315CD29F4256
:100D30005AD9A8F102082B44D81B48EA02428EE790
:100D4000C2F120032CFA03F10EFA02FE20FA03F797
:100D500041EA0E0E08FA02F028FA03F14FEA1E45A6
:100D60003843B1FBF5F8030C05FB18111FFA8EF799
:100D700043EA014107FB08F38B420CFA02FC09D954
:100D800011EB0E0108F1FF3930D28B422ED9A8F1B8
:100D900002087144C91A80B2B1FBF5F305FB1311C7
:100DA00040EA014107FB03F78F4208D911EB0E011E
:100DB00003F1FF3016D28F4214D9023B714443EA4B
:100DC0000843C91BA3FB0C89494509D305D0002260
:100DD0001DE79646FEE6134611E794404445F6D2D9
:100DE000013BF4E70346EAE78846A5E7C846D1E7B2
:100DF00002468CE713460AE7023B57E7A8F10208D0
:100E00002F443FE72DE9F041002B44D18A4215469B
:100E100004464FD9B2FA82F70E464FB1C7F120030C
:100E2000B94020FA03F602FA07F50E4300FA07F478
:100E30004FEA154E230CB6FBFEF0AFB20EFB10616D
:100E400043EA014307FB00F1994209D95B1900F11C
:100E5000FF3280F0EC80994240F2E98002382B4466
:100E60005A1AA4B2B2FBFEF30EFB132244EA02426A
:100E700007FB03F7974208D9521903F1FF3180F0BD
:100E8000D880974240F2D580023B43EA00400026DA
:100E90003146BDE8F0818B4247D8B3FA83F6002E85
:100EA00048D18B4202D3824200F2CD8001203146EC
:100EB000BDE8F08112B90125B5FBF2F5B5FA85F868
:100EC000B8F1000F77D14A1B4FEA154EAFB2012699
:100ED000B2FBFEF0230C0EFB102143EA014107FB9D
:100EE00000F38B4207D9491900F1FF3202D28B423D
:100EF00000F2BA801046C91AA4B2B1FBFEF30EFB91
:100F0000131144EA014407FB03F7A74208D9641907
:100F100003F1FF3280F08F80A74240F28C80023BC9
:100F200043EA00403146BDE8F081002630463146B4
:100F3000BDE8F081C6F1200422FA04F5B3402B434A
:100F400020FA04FC01FA06F721FA04F54FEA134EE1
:100F50004CEA0707B5FBFEF8390C0EFB18551FFAD3
:100F600083FC41EA05450CFB08F1A94202FA06F2AE
:100F700004D9ED1808F1FF3467D3A0466D1ABFB24B
:100F8000B5FBFEF40EFB145547EA05410CFB04FCCF
:100F90008C4504D9C91804F1FF355CD32C4644EACA
:100FA0000844CCEB0101A4FB0223994248D344D06E
:100FB000204600266CE7C8F1200401FA08F305FA80
:100FC00008F520FA04F7E1404FEA154E1F43B1FB44
:100FD000FEF63A0C0EFB16111FFA85FC42EA01439D
:100FE0000CFB06F29A4200FA08F407D95B1906F1E5
:100FF000FF3137D29A4235D9023E2B449B1ABFB2F9
:10100000B3FBFEF00EFB103347EA03430CFB00F189
:10101000994207D95B1900F1FF3221D299421FD9B9
:1010200002382B445A1A40EA0646674650E71046F3
:1010300016E70B4629E7134672E7B0409042B7D255
:10104000601E002624E7304622E7A94295D9A8F180
:1010500002081D4492E78C45A0D9023C19449EE742
:101060001046DFE70E46C9E70238294443E700BFD0
:101070002DE9F04FDFF870822DED088BB8F90030C4
:10108000ADF5405D012B89B0064600F0CA8008AD81
:10109000894A0DF581570DF500544FF0000E1146A9
:1010A00003973B46203451F8040BC3F804E0186062
:1010B0000833A342F7D1023E8049334633F9020F89
:1010C00007EE900AF8EEE77AE2EC017A8A42F5D16F
:1010D0000DF54051002023462031324632F902EF0F
:1010E000586007EE90EAF8EEE77A083343ED027AAB
:1010F0008B42F3D12A463B46F2EC017A93ED007A1B
:1011000067EE277ABA4217EE901A43F8081BF3D11C
:101110006B4B0293002201236A48394603F058F8CA
:10112000029A3B46D3ED017A93ED007A67EEA77AF7
:101130000833E7EE077A9C4217EE901A42F8081B34
:10114000F0D1B8F90030022B00F0D080032B00F072
:10115000F3800DF540510DF54052DFF874E1381D74
:1011600018311C323B4610ED017AFEEC017A27EE75
:10117000277A083300ED017A13ED017A27EE277AFA
:10118000083003ED017A12ED017A27EE277A9C42AE
:1011900002ED017A91ED017A67EE277AA2F1080259
:1011A000C1ED017AA1F10801DDD1012213464548C4
:1011B000394603F00DF83B46F5EC017A93ED007AE1
:1011C00067EE277AAF4217EE902A43F8082BF3D147
:1011D0003D48039D024600F500612B46B2EC017AC2
:1011E000D3ED007A77EE277A8A42FDEEE77A05F1B1
:1011F000080517EE903A26F8023FEED12268026009
:10120000324B0DF50052283252F8080B43F8040B0C
:101210008B42F9D10DF5405D09B0BDEC088BBDE8FE
:10122000F08F00214FF40062234804F06FFB284B3D
:101230002848294903F500654FF07E524FF07C5451
:1012400043F8042BAB4240F8042B41F8044BF7D190
:1012500022489FED239ADFED238A00214FF400629C
:1012600004F054FB08ADB7EE000AB0EE408A2F46FA
:10127000002409E007EE904AB8EEE70A20EE090ADA
:1012800080EE280A06F08AFD013438EE400AF6EEB8
:10129000007A60EE277AB1EEE70AB4EE400AF1EE8A
:1012A00010FA40F08482B4F5806FA7EC010AE1D116
:1012B0000223A8F80030EBE6904800209050002070
:1012C0008C280020808E010890380020943800205F
:1012D0008C2000208C180020905000208C080020CA
:1012E000DB0FC94000C07F4400000020E44BE5490B
:1012F000E54A9FEDE66A03F50060F6EE006A964661
:101300009EED007AD3ED007AE7EE067A083227EEFA
:10131000A67AE3EC017A8342A1EC017AEFD1DC4AB0
:1013200013780133DBB2132B13707FF612AF002159
:1013300003231170A8F80030DFF848A3DFF8949376
:10134000DFF84483DFEDD3AA9FEDD3AADFEDD39A74
:101350009FEDD39ADFEDD38AD346D8ED00BA9BED4B
:10136000008A2BEEAA0AB7EE00BA80EE080A06F051
:1013700051FDF0EE4B6AE0EE0A6AD9ED005A9FED9E
:10138000CA6ADFEDC87ACBEE266A26EEA97A16EE97
:10139000900AA5EE897AB4EEE87AF1EE10FAA9EC9B
:1013A000017A0FDCFFF758F89FEDAB1B41EC100BF7
:1013B00006F098FC51EC100BFFF73CFB07EE900A8F
:1013C0003BEE676A68EE277A9FEDB87ADFEDB86A80
:1013D000B84BEBEE867A994508F1080867EE877AF4
:1013E000E8EE267AEBEC017AB7D1DFF8ECB2B24B3B
:1013F000B24AA5499FEDB2AA0695DC46CDF81CB0CD
:101400000493B346059299469046F7EE009A0D462E
:1014100066462B4693ED007AFAEC017AC7EE277AFE
:10142000083517EE900AFFF717F89FED8D1B41EC7A
:10143000100B06F057FC9FED8C1B06F025FC51ECC1
:10144000100BFFF7F7FA07EE900A77EEE97A49F802
:10145000040B17EE900AFEF7FFFFB8EC019A9FED20
:10146000841B41EC100B06F00FFC69EE0A7AB0EE1B
:10147000408AF0EE608A17EE900AFEF7EDFF7EA339
:10148000D3E90023CDE9000151EC180BFFF738F840
:101490000B460246DDE90001FEF780FE9FED741B5E
:1014A00041EC100B06F0F0FB51EC100BFFF7C2FA09
:1014B000844B46F8040B9A45ABD15E46DFF810A288
:1014C000DDF81CB0069D0095D046049DDFF80C9217
:1014D000CDF810A09FED7C9ADA46B346059EF7EE54
:1014E000008ABAEC017AB5EC018A77EE287A27EE09
:1014F000087AC7EE277A27EEA70AA7EE890AF1EE47
:10150000C07AF4EE677AF1EE10FA40F05D8188EE71
:10151000887A67EE277A17EE900AFEF79DFF9FED17
:10152000521B41EC100B06F0AFFB51EC100BFFF718
:1015300081FA07EE900A28EE278ACA4567EE887A74
:1015400048F8040BE6EC017ACBD1DFED656A5F4A1F
:10155000009DDDF810A002995E46B0EE666AA2F525
:101560000063F3EC017A084690ED007A67EEA77A03
:10157000934201F1080136EE076AE7EE276AF0D1DF
:10158000C6EE866AF6EE087AF4EEE76AF1EE10FA35
:1015900000F3D380C6EEA76AF7EE007A77EEE66A2C
:1015A000B2EE0E7AF6EE007AE6EE877AFDEEE77A94
:1015B00017EE903A5B0001339BB200931BB203EB32
:1015C000D37E4FEA6E0ECEF5007CF445994600F3CB
:1015D000F380C3F50071BEF1000F26DDBDF90030C8
:1015E000DFF89C809FED3E6A06EE903AF8EEE66AE0
:1015F0004FEA890B002009EB0003984288ED006A4E
:10160000DFED377A08DA0AEB0B025346B3EC017AC6
:10161000934277EE877AF9D1C7EEA67A013070450A
:101620000AF1040AE8EC017AE5D1B1F5007F74DA39
:10163000BDF90030DFF8488006EE903A8A00244B6E
:10164000101DC9EB897AF8EEE66A4FF0000B1844DA
:1016500090444FEA8A0A45E0000000000000F03F95
:101660000000000000408F40000000E04D62503F4D
:10167000000000000000000000000000E07A743F5D
:101680008C0800208C1000208C280020CDCC4C3DF4
:101690008C38002088BE7FBF00407A44F05A423E1A
:1016A00044694F3FA4707D3F00D7233CECC0B93E56
:1016B0008A1F233F90580020904000208C18002063
:1016C00052B87E3F8C18002090A0383F8C28002014
:1016D0008C20002090500020905800209060002026
:1016E00000000000C9EB01039942C8F800B05FEDAB
:1016F000047A08DD00EB0A02034633ED017A9342D7
:1017000077EE877AF9D1C7EEA67A0131B1F5007F7D
:1017100000F10400E8EC017AE4D1E645BFF619AD2A
:101720002C4B2D49CEEB0C024FEA8E0E920003EBB0
:101730000E007144FEF792FC0BE54FF0010940F2F8
:10174000FF13CDF800900293F7EE006A4FF0000E01
:101750004FF4007C1F4B204A9FED206ACEEB4E7B5E
:101760004FEACB0B03EBCE0302EB8E08ABF1040B7D
:101770000433724602EB0E00CEEB0201884288ED84
:10178000006ADFED167A07DB0BEB0301B1EC017A9F
:101790008B4277EE877AF9D1C7EEA67A013262459D
:1017A00003F10403E8EC017AE4DB029913E7B0EEFD
:1017B000670A06F0B1FB76E507EE903AC3F50072D2
:1017C0000292F8EEE76AC5E706F0A6FBF0EE407A73
:1017D0009DE600BF8C2000208C0800200000000047
:1017E00010B5102082B0012101F090FB0F210023E1
:1017F00002220091012407488DF8044069468DF8C3
:1018000005208DF806308DF8073001F0F1FA02B0AE
:1018100010BD00BF0010024038B50546102003F08F
:10182000DBFD044648B1680003F0D6FD206050B1EE
:101830006060A060E560204638BD0648064A074B58
:10184000302103F06FFD0348034A054B332103F0B9
:1018500069FD00BF9C8E0108EC8E0108AC8E01086A
:10186000BC8E010870B5436809B38468C568A3429B
:10187000A3EB04042CBF641005EB64042C1BA242F0
:1018800012DA002A0DDD066801EB420206EB45057F
:1018900031F8024B1C800233AB4208BF3346914201
:1018A000F6D14360002070BD4FF0FF3070BD03489B
:1018B000034A044B472103F035FD00BF9C8E01080D
:1018C000908E0108D08E010870B5836811B344680A
:1018D000A34219D9C568E41A05EB6404A24216DCD8
:1018E000002A0EDD0668C56801EB420206EB4505DD
:1018F0001C8821F8024B0233AB4208BF33469142A9
:10190000F6D18360002070BDE41A6410E6E74FF062
:10191000FF3070BD0248034A034B642103F002FD0F
:101920009C8E0108E08E0108D08E01082DE9F04F51
:1019300083B000AF00F070F801214FF4805001F047
:10194000E5FA4FF4006000F0F3FA4FF4006141F261
:10195000824000F0FFF9ADF5816D012000F09EF8A6
:10196000002000F0ADF8002000F0BAF8002000F0F0
:10197000C9F8012000F0D8F8264D00236C467B60A2
:10198000ADF102080DF2FE391E4646F6605B2046B8
:101990004FF4007100F034F982460028F7D1082393
:1019A0006B61012000F08CF8504600F0ABF8C246A5
:1019B00001E0CA450BD03AF9023F002BB8BF5B42A9
:1019C0005B45F6DD012000F09DF8CA45F3D1EEB984
:1019D0004FF40071204600F0D5FB00F0B3F8012869
:1019E0000AD0304600F07CF8002000F069F86B69FE
:1019F00023F008036B61CAE77B6801330A2B7B6025
:101A0000EFDD002386F001067B60EAE72046FFF762
:101A10002FFBDDE70010024070B51E4E82B008209B
:101A20000121002401F072FA0125304669464FF485
:101A3000744300938DF804508DF805408DF80640EE
:101A40008DF8074001F0D4F93046694683230093AE
:101A50008DF804408DF805408DF8074001F0C8F975
:101A60004FF480733046694600938DF804408DF83A
:101A700005408DF8075001F0BBF96946064800950E
:101A80008DF804408DF805408DF8074001F0B0F95D
:101A900002B070BD000C024000000240074A00285E
:101AA000536903DD43F480535361704714BF83F4DB
:101AB000805323F480535361704700BF000C0240F1
:101AC000064A0028536903DD43F40053536170470D
:101AD000FAD123F400535361704700BF000C024059
:101AE000074A0028536903DD43F48043536170477C
:101AF00014BF83F4804323F480435361704700BFD5
:101B0000000C0240074A0028536903DD43F40043F8
:101B10005361704714BF83F4004323F400435361BF
:101B2000704700BF000C0240054A536918B923F4FE
:101B300080635361704743F480635361704700BF13
:101B4000000C0240024B186900F00100704700BF12
:101B5000000002400C4B10B40C4C186001224FF4F2
:101B600080510B4B013BFDD1520092B289B20F2A3A
:101B7000618303D811038BB22383F2E74FF48053C0
:101B800019460122F8E700BFD0650020000C024092
:101B9000414B4C0008B50120FFF7DCFF08B50220DF
:101BA000FFF7D8FF08B50320FFF7D4FF08B50420DE
:101BB000FFF7D0FF002103E00B4B5B58435004318B
:101BC0000A480B4B42189A42F6D30A4A02E0002315
:101BD00042F8043B084B9A42F9D300F003FC03F0AF
:101BE000D3FBFFF7A3FE70475CC201080000002092
:101BF000700800207008002074680020FEE70000D4
:101C0000024B0A4601461868FFF75EBED865002001
:101C10002DE9F04F4FF4807099B0012101F0B2F935
:101C20000120014601F072F9454E464FDFF81CB124
:101C30004FF480000121002401F068F94FF00608FC
:101C4000032301A940488DF8083001254FF0020A0E
:101C5000CDF804804FF400698DF80B4001F0C8F80E
:101C600000F0A0FC30464FF0C0624FF0805303A953
:101C7000069205938DF820A003948DF81140CDF8BD
:101C80001C908DF8105000F09BFC304629462A46E7
:101C9000434600F005FD514652464346304600F0AB
:101CA000FFFC384600F0A0FEDFF8A4A0CDF840907D
:101CB0004FF4806C4FF4005E4FF400334FF48072A9
:101CC000384609A94FF4A078CDF83CC0CDF844E0DF
:101CD0001393129209940C940E94149415951694DF
:101CE0001794CDF828B0CDF82CA0CDF8348000F0B2
:101CF0004DFF3046294600F0C9FD3046294600F028
:101D0000A9FD3846294600F097FF2A463846182193
:101D100000F0AEFF382368468DF800308DF80140A2
:101D20008DF802408DF8035000F0DCFB3046294668
:101D300000F09AFC304600F07DFD19B0BDE8F08F50
:101D40000020014010640240000002404C2001408D
:101D5000EC65002030B5054685B008460C46FFF717
:101D60005BFD1C4B186048B32046FFF755FD1A4B2E
:101D7000186048B30120014601F0E6F801A801F01F
:101D8000A7F9002301A94FF08040ADF80430ADF869
:101D90000C30ADF80630029501F030F94FF080407C
:101DA000202101F0CFF94FF08040012101F0AAF984
:101DB000FFF72EFFFFF714FD05B030BD0748084AB6
:101DC000084B3A2103F0AEFA0448054A064B3C2181
:101DD00003F0A8FAE4650020D8650020048F01080C
:101DE000F88E01081C8F0108308F010830B5444A75
:101DF00044485369444943F00103ADF5217D5361E3
:101E000000F070FF60B34149414B0A6801320A603B
:101E100003F5A075ADF102040DF59F7033F8021CB7
:101E200033F8042BA1F50041A2F50042AB4224F89F
:101E3000021F20F8022FF1D1364B69461868502254
:101E4000FFF710FD013050D0334B50A918685022D5
:101E5000FFF708FD01304DD02A482B4900F09AFFCA
:101E600028482E4900F03EFF68B32D492D4B0A68E3
:101E700001320A6003F5A075ADF102040DF59F7003
:101E8000B3F84011B3F842210433A1F50041A2F5A3
:101E90000042AB4224F8021F20F8022FF0D11D4B64
:101EA000694618685022FFF7DDFC013018D01A4B44
:101EB00050A918685022FFF7D5FC01300BD011480B
:101EC000164900F067FF0E4A536923F0010353617E
:101ED0000DF5217D30BD144A136801331360EEE720
:101EE000124A136801331360E1E7104A13680133A3
:101EF0001360A9E70C4A136801331360ACE700BF15
:101F0000001002401064024010400010D465002010
:101F1000EE650020E4650020D865002020800010D8
:101F2000E0650020EC650020E8650020DC6500200D
:101F30002DE9F04F854E864F864C99B0054600211D
:101F40004FF42072304603F0E1FC4FF42072002180
:101F5000384603F0DBFC2846FFF75EFC206028468D
:101F6000FFF75AFC7C4A23681060002B00F0E280E7
:101F7000002800F0E5804FF40010012100F0C6FFBA
:101F80000120014600F0C2FF4FF000500121002463
:101F900000F0DAFF3022032303A9704803928DF882
:101FA00010308DF8134000F023FF0121102000F0C5
:101FB000CBFF09A801F08CF841F2824309A96848D7
:101FC0000A93ADF82440ADF82C40ADF8264001F05E
:101FD00015F86348202101F0B5F80121604801F0AF
:101FE00091F805A800F0A0FC042305A9204605935C
:101FF00001930694089400F065FC5A4800F0F4FC44
:102000004FF4005311934FF4807301254FF4006C8B
:102010004FF0606B09A9544A12934FF0400A4FF4F5
:1020200000334FF4A0794FF480684E48CDF840C09B
:10203000CDF800C013930B960A920E941494169444
:102040001794CDF824B0CDF830A0CDF83490CDF869
:102050003C80159500F09AFD2A461821414800F071
:1020600007FE102602A88DF809408DF80A408DF869
:102070000B508DF8086000F035FA2946394800F019
:10208000DBFD2046294600F065FC2946204600F08D
:1020900085FC05A800F048FC019B059305A9304686
:1020A0000694089400F00EFC304800F09DFC4FF4BC
:1020B000005211924FF48072DDF800C02C4B129246
:1020C00009A94FF400322948CDF840C00A93139271
:1020D000CDF824B0CDF830A0CDF834900E94CDF8E2
:1020E0003C8014941595169417940B9700F04EFDB0
:1020F0002A4618211D4800F0BBFD112302A88DF8C7
:1021000008308DF809408DF80A408DF80B5000F02A
:10211000E9F92946154800F08FFD3046294600F0C0
:1021200019FC3046294600F039FCFFF759FB19B07D
:10213000BDE8F08F0F48104A104B4A2103F0F2F827
:102140000C480D4A0E4B4B2103F0ECF89060002038
:10215000106300209465002090650020000002407C
:10216000001000408860024008740040A0600240F7
:1021700014740040508F0108448F0108688F0108D3
:102180007C8F0108024B0A4601461868FFF76ABBBC
:102190009465002000B53F4A3F4853693F4943F0EA
:1021A0000203D1B0536100F09DFD002834D13A48BC
:1021B0003B4900F097FD38B9364A536923F00203D2
:1021C000536151B05DF804FB364B69461868A02294
:1021D000FFF77AFB013047D03349DFED346A9FEDDA
:1021E000347AADF102020DF59F7032F9023F07EE2D
:1021F000903AF8EEE77AB0EE476AA7EEA66A824216
:10220000FDEEC67A17EE903A21F8023FEDD1224852
:10221000234900F0BFFDCFE7224B69461868A02292
:10222000FFF752FB01302AD0224ADFED206A9FEDF2
:10223000207A02F5A070ADF1020131F9023F07EEFC
:10224000903AF8EEE77AB0EE476AA7EEA66AFDEE9E
:10225000C67A17EE903A22F8023F8242EDD10E483C
:102260000E4900F097FDA2E74FF4A07268460021E6
:1022700003F04CFB104A136801331360ACE74FF4D2
:10228000A0726846002103F041FB0B4A136801333A
:102290001360C9E70010024088600240004400203B
:1022A0000088002094650020CE61002000C0633DBE
:1022B00000E0FF448E6000206C68002000B53F4ABB
:1022C0003F4853693F4943F00403D1B0536100F0E4
:1022D00009FD002834D13A483B4900F003FD38B9E4
:1022E000364A536923F00403536151B05DF804FB8F
:1022F000364B69461868A022FFF7E6FA013047D04E
:102300003349DFED346A9FED347AADF102020DF509
:102310009F7032F9023F07EE903AF8EEE77AB0EE9E
:10232000476AA7EEA66A8242FDEEC67A17EE903A99
:1023300021F8023FEDD12248234900F02BFDCFE7E1
:10234000224B69461868A022FFF7BEFA01302AD056
:10235000224ADFED206A9FED207A02F5A070ADF1F0
:10236000020131F9023F07EE903AF8EEE77AB0EE5B
:10237000476AA7EEA66AFDEEC67A17EE903A22F8F3
:10238000023F8242EDD10E480E4900F003FDA2E764
:102390004FF4A0726846002103F0B8FA104A13689F
:1023A00001331360ACE74FF4A0726846002103F0DC
:1023B000ADFA0B4A136801331360C9E700100240FD
:1023C000A060024000401020008020209065002086
:1023D0004E64002000C0633D00E0FF440E63002017
:1023E0006C68002039493A4BD1F88820394842F4CA
:1023F0007002C1F888201A68002142F001021A60B8
:1024000099601A6822F0847222F480321A6058604F
:102410001A6882B022F480221A60D960009101917A
:102420001A6842F480321A601A4603E0009BB3F542
:10243000A04F09D0136803F400330193009B0133CC
:102440000093019B002BF1D0214B1B6813F4003348
:1024500018BF01230193019B012B05D01B4B4FF0AB
:1024600000629A6002B07047194B1B491A6C1B48F6
:1024700042F080521A640A6842F440420A609A6844
:102480009A609A6842F400429A609A6842F4A052B4
:102490009A6058601A6842F080721A601A46116891
:1024A0000B4B8901FBD50E4A40F2056111609A6819
:1024B00022F003029A609A6842F002029A601A4679
:1024C000936803F00C03082BFAD1C7E700ED00E096
:1024D00000380240103000240070004008544007CB
:1024E000003C024080B485B000AF78600023FB73ED
:1024F0000023BB730F237B737B68DB78002B38D002
:10250000264BDB68DB4303F4E0631B0AFB73FB7BB6
:10251000C3F10403BB737A7BFB7B42FA03F37B7347
:102520007B685B781A46BB7B02FA03F3FB737B681C
:102530009A787B7B1340DAB2FB7B1343FB73FB7B04
:102540001B01FB73164A7B681B781344FA7B83F8E4
:102550000023134A7B681B785B09DBB218467B6853
:102560001B7803F01F03012101FA03F342F8203026
:102570000FE00B497B681B785B09DBB218467B6870
:102580001B7803F01F0301229A4000F1200341F859
:1025900023201437BD465DF8047B704700ED00E052
:1025A00000E100E080B500AF4FF48070012100F041
:1025B00007FD4FF48070002100F002FD80BD00BFD8
:1025C00080B485B000AF786039600023FB600023E1
:1025D000FB727B685B68FB60FB6823F0407323F44D
:1025E0008073FB603B681B791A023B681B681343CE
:1025F000FA681343FB607B68FA685A607B689B68E3
:10260000FB60FA68174B1340FB603B681A693B6834
:10261000DB681A433B689B681A433B685B795B0045
:102620001343FA681343FB607B68FA689A607B681F
:10263000DB6AFB60FB6823F47003FB603B681B7D77
:10264000013BDAB2FB7A1343FB72FB7A1B05FA6893
:102650001343FB607B68FA68DA621437BD465DF8A5
:10266000047B7047FDF7FFC080B483B000AF786093
:102670000B46FB70FB78002B06D07B689B6843F011
:1026800001027B689A6005E07B689B6823F0010289
:102690007B689A600C37BD465DF8047B704700BFCD
:1026A00080B485B000AF7860084611461A460346EC
:1026B000FB700B46BB7013467B700023FB6000234E
:1026C000BB60FB78092B23D97B68DB68FB60FB7858
:1026D000A3F10A0213465B001344072202FA03F334
:1026E000BB60BB68DB43FA681340FB607978FB781A
:1026F000A3F10A0213465B00134401FA03F3BB6023
:10270000FA68BB681343FB607B68FA68DA601EE016
:102710007B681B69FB60FA7813465B001344072251
:1027200002FA03F3BB60BB68DB43FA681340FB604B
:102730007978FA7813465B00134401FA03F3BB601F
:10274000FA68BB681343FB607B68FA681A61BB7860
:10275000062B21D87B685B6BFB60BB785A1E134647
:102760009B0013441F2202FA03F3BB60BB68DB43E8
:10277000FA681340FB60F978BB785A1E13469B0039
:10278000134401FA03F3BB60FA68BB681343FB60B0
:102790007B68FA685A6347E0BB780C2B21D87B68CA
:1027A0001B6BFB60BB78DA1F13469B0013441F2290
:1027B00002FA03F3BB60BB68DB43FA681340FB60BB
:1027C000F978BB78DA1F13469B00134401FA03F330
:1027D000BB60FA68BB681343FB607B68FA681A63E6
:1027E00022E07B68DB6AFB60BB78A3F10D02134635
:1027F0009B0013441F2202FA03F3BB60BB68DB4358
:10280000FA681340FB60F978BB78A3F10D02134618
:102810009B00134401FA03F3BB60FA68BB681343DF
:10282000FB607B68FA68DA621437BD465DF8047BAA
:10283000704700BF80B483B000AF78607B689B684E
:1028400043F080427B689A600C37BD465DF8047B9C
:10285000704700BF80B483B000AF78600B46FB7058
:10286000FB78002B06D07B689B6843F480727B6802
:102870009A6005E07B689B6823F480727B689A60AD
:102880000C37BD465DF8047B704700BF80B483B051
:1028900000AF78600B46FB70FB78002B06D07B689E
:1028A0009B6843F400727B689A6005E07B689B68D4
:1028B00023F400727B689A600C37BD465DF8047B98
:1028C000704700BF80B485B000AF786039600023E6
:1028D000FB600023BB60134B1B68FB607B6840F60A
:1028E000FE7202FA03F3DB43FA681340FB603B68B5
:1028F0001A683B685B681A433B689B681A433B68ED
:10290000DB681343BB607B68BA6802FA03F3FA68BA
:102910001343FB60034AFB6813601437BD465DF840
:10292000047B70470074004080B483B000AF7860CF
:102930007B6800221A607B6800225A607B68002254
:102940009A607B680022DA600C37BD465DF8047B34
:10295000704700BF80B483B000AF78600B46FB7057
:10296000FB78002B09D00C490B4B1A687B680120BF
:1029700000FA03F313430B6009E00749064B1A689A
:102980007B68012000FA03F3DB4313400B600C3734
:10299000BD465DF8047B70470074004080B483B08E
:1029A00000AF78600B46FB70FB78002B0AD00D4916
:1029B0000C4B1A687B684FF4805000FA03F3134302
:1029C0000B600AE00749074B1A687B684FF4805098
:1029D00000FA03F3DB4313400B600C37BD465DF890
:1029E000047B70470074004080B483B000AF78600F
:1029F0007B681B6823F001027B681A607B680022F9
:102A00001A607B6800225A607B6800229A607B68AB
:102A10000022DA607B6800221A617B6821225A61F9
:102A20007B68454A934203D1444B3D229A607EE045
:102A30007B68434A934204D1404B4FF474629A60DE
:102A400075E07B683F4A934204D13C4B4FF47412CB
:102A50009A606CE07B683C4A934204D1374B4FF05C
:102A600074629A6063E07B68384A934203D1334BC7
:102A7000374ADA605BE07B68364A934203D12F4BDA
:102A8000354ADA6053E07B68344A934203D12B4BDA
:102A9000334ADA604BE07B68324A934204D1274BD9
:102AA0004FF03D52DA6042E07B682F4A934203D1F7
:102AB0002E4B3D229A603AE07B682D4A934204D126
:102AC0002A4B4FF474629A6031E07B68294A934242
:102AD00004D1264B4FF474129A6028E07B68264A92
:102AE000934204D1214B4FF074629A601FE07B68DF
:102AF000224A934203D11D4B154ADA6017E07B68E6
:102B00001F4A934203D1194B134ADA600FE07B68E6
:102B10001C4A934203D1154B114ADA6007E07B68E7
:102B2000194A934203D1114B4FF03D52DA600C37F2
:102B3000BD465DF8047B70471060024000600240B3
:102B400028600240406002405860024070600240CD
:102B50003D00002088600240400F0020A06002403D
:102B600000003D20B8600240106402400064024052
:102B7000286402404064024058640240706402408D
:102B800088640240A0640240B864024080B485B00A
:102B900000AF786039600023FB607B681B68FB60D6
:102BA000FA68244B1340FB603B681A683B68DB689B
:102BB0001A433B685B691A433B689B691A433B684D
:102BC000DB691A433B681B6A1A433B685B6A1A431A
:102BD0003B689B6A1A433B685B6B1A433B689B6B81
:102BE0001343FA681343FB607B68FA681A607B68DA
:102BF0005B69FB60FB6823F00703FB603B68DA6AF4
:102C00003B681B6B1343FA681343FB607B68FA68ED
:102C10005A613B681A697B685A603B685A687B68EE
:102C20009A603B689A687B68DA601437BD465DF845
:102C3000047B70473F801CF080B483B000AF7860A5
:102C40000B46FB70FB78002B06D07B681B6843F0BB
:102C500001027B681A6005E07B681B6823F00102B3
:102C60007B681A600C37BD465DF8047B704700BF77
:102C700080B485B000AFF860B9601346FB71BB68E3
:102C800003F08003002B0FD0FB79002B06D0FB68EC
:102C90005B6943F08002FB685A6105E0FB685B6991
:102CA00023F08002FB685A61BB68802B14D0FB794B
:102CB000002B08D0FB681A68BB6803F01E031A4398
:102CC000FB681A6008E0FB681A68BB6803F01E0323
:102CD000DB431A40FB681A601437BD465DF8047B7D
:102CE000704700BF80B487B000AF786039600023C0
:102CF000FB750023FB600023BB607B68224A934284
:102D000002D8224B3B6101E0214B3B613B6823F041
:102D1000F02323F0C313002B0AD03B68DB0A03F037
:102D20001E03FB607B681A68FB681340BB6004E00D
:102D30007B685B6903F08003BB603B6803F0005372
:102D4000002B03D03B695B68FB6002E03B691B68BA
:102D5000FB60FB6823F0F02323F08213FB60FA682A
:102D60003B681340002B05D0BB68002B02D0012329
:102D7000FB7501E00023FB75FB7D18461C37BD4643
:102D80005DF8047B704700BF0F64024000600240A2
:102D90000064024080B485B000AF786039607B6821
:102DA000104A934202D8104BFB6001E00F4BFB60CE
:102DB0003B6803F00053002B07D03B6823F0F0235F
:102DC00023F08213FA68D36006E03B6823F0F02317
:102DD00023F08213FA6893601437BD465DF8047BD4
:102DE000704700BF0F640240006002400064024070
:102DF00080B487B000AF7860396000237B61002326
:102E00003B610023FB6000237B6176E07B6901224C
:102E100002FA03F33B613B681A683B691340FB60AD
:102E2000FA683B699A4265D17B681A687B695B00E6
:102E3000194603238B40DB431A407B681A607B688A
:102E40001A683B681B7919467B695B0001FA03F33A
:102E50001A437B681A603B681B79012B03D03B68DF
:102E60001B79022B2ED17B689A687B695B0019461F
:102E700003238B40DB431A407B689A607B689A6827
:102E80003B685B7919467B695B0001FA03F31A43DF
:102E90007B689A607B685A687B699BB219460123FC
:102EA0008B40DB431A407B685A607B685B683A68FA
:102EB000927911467A6992B201FA02F292B21A43F9
:102EC0007B685A607B68DA687B699BB25B00032190
:102ED00001FA03F3DB431A407B68DA607B68DA6847
:102EE0003B68DB7919467B695B0001FA03F31A43FF
:102EF0007B68DA607B6901337B617B690F2B85D945
:102F00001C37BD465DF8047B704700BF80B483B0BA
:102F100000AF78600B46FB70FB78002B06D00949A8
:102F2000084B1A6B7B6813430B6306E00549054B9E
:102F30001A6B7B68DB4313400B630C37BD465DF8AF
:102F4000047B70470038024080B483B000AF7860E3
:102F50000B46FB70FB78002B06D00949084B1A6C16
:102F60007B6813430B6406E00549054B1A6C7B68CC
:102F7000DB4313400B640C37BD465DF8047B7047A0
:102F80000038024080B483B000AF78600B46FB701D
:102F9000FB78002B06D00949084B5A6C7B68134319
:102FA0004B6406E00549054B5A6C7B68DB431340D4
:102FB0004B640C37BD465DF8047B70470038024017
:102FC00080B483B000AF78600B46FB70FB78002BB9
:102FD00006D00949084B5A6A7B6813434B6206E0E6
:102FE0000549054B5A6A7B68DB4313404B620C373B
:102FF000BD465DF8047B70470038024080B485B060
:1030000000AF786039600023FB817B681B88FB81FF
:103010007B68284A934213D07B68274A93420FD09B
:103020007B68B3F1804F0BD07B68244A934207D072
:103030007B68234A934203D07B68224A934208D19B
:10304000FB8923F07003FB813B685A88FB8913439B
:10305000FB817B681C4A93420CD07B681B4A9342DD
:1030600008D0FB8923F44073FB813B681A89FB89F4
:103070001343FB817B68FA891A803B685A687B6836
:10308000DA623B681A887B681A857B68094A934232
:1030900003D07B68084A934204D13B689B7A9AB27A
:1030A0007B681A867B6801229A821437BD465DF8D8
:1030B000047B704700000140000401400004004010
:1030C00000080040000C00400010004000140040C8
:1030D00080B483B000AF78607B684FF0FF325A60F5
:1030E0007B6800221A807B6800221A817B6800229C
:1030F0005A807B6800229A720C37BD465DF8047BCB
:10310000704700BF80B483B000AF78600B46FB709F
:10311000FB78002B08D07B681B889BB243F001032F
:103120009AB27B681A8007E07B681B889BB223F009
:1031300001039AB27B681A800C37BD465DF8047BA8
:10314000704700BF80B483B000AF78600B467B80CF
:103150007B689B889BB223F070039AB27B689A804D
:103160007B689B889AB27B8813439AB27B689A806B
:103170000C37BD465DF8047B704700BF80B5A0B03A
:1031800000AF786039607B681B88BB66BB6E9B00B4
:103190003A6813447B677B685B683B673B687B6688
:1031A0007B6F3B66BB6E5B08BB66BB6E9B003A6881
:1031B0001344FB67BB6E9B007A6F1344BB67BB6E07
:1031C0009B08FB66B6E13B681B68BB633B685B68BA
:1031D000FB633B689B683B643B68DB687B647B6F9D
:1031E0001B68BB627B6F5B68FB627B6F9B683B63AA
:1031F0007B6FDB687B63FB6F1B68BB61FB6F5B688E
:10320000FB61FB6F9B683B62FB6FDB687B62BB6FA4
:103210001B68BB60BB6F5B68FB60BB6F9B683B61FF
:10322000BB6FDB687B613B681A1D3A6097ED0E7AD5
:10323000D7ED0A7A77EE277AC3ED007A3B681A1D3C
:103240003A6097ED0F7AD7ED0B7A77EE277AC3EDD8
:10325000007A3B681A1D3A6097ED107AD7ED0C7A28
:1032600077EE277AC3ED007A3B681A1D3A6097ED36
:10327000117AD7ED0D7A77EE277AC3ED007A97EDC4
:103280000E7AD7ED0A7A77EE677AC7ED0A7A97ED6C
:103290000F7AD7ED0B7A77EE677AC7ED0B7A97ED59
:1032A000107AD7ED0C7A77EE677AC7ED0C7A97ED46
:1032B000117AD7ED0D7A77EE677AC7ED0D7AFB6F4D
:1032C0001A1DFA6797ED067AD7ED027A77EE277A1C
:1032D000C3ED007AFB6F1A1DFA6797ED077AD7EDF9
:1032E000037A77EE277AC3ED007AFB6F1A1DFA672F
:1032F00097ED087AD7ED047A77EE277AC3ED007A56
:10330000FB6F1A1DFA6797ED097AD7ED057A77EE0C
:10331000277AC3ED007A97ED027AD7ED067A77EE39
:10332000677AC7ED027A97ED037AD7ED077A77EEE1
:10333000677AC7ED037A97ED047AD7ED087A77EECE
:10334000677AC7ED047A97ED057AD7ED097A77EEBB
:10335000677AC7ED057A3B6F1A1D3A671B68FB65F4
:103360003B6F1A1D3A671B68BB6597ED0A7AD7ED6C
:10337000177A67EE277AC7ED157A97ED0B7AD7EDB6
:10338000167A67EE277AC7ED147A97ED0B7AD7EDA8
:10339000177A67EE277AC7ED137A97ED0A7AD7ED99
:1033A000167A67EE277AC7ED127A7B6F1A1D7A6755
:1033B00097ED157AD7ED147A77EE277AC3ED007A78
:1033C0007B6F1A1D7A6797ED137AD7ED127A77EE35
:1033D000677AC3ED007A97ED027AD7ED167A67EE39
:1033E000277AC7ED157A97ED037AD7ED177A67EE4E
:1033F000277AC7ED147A97ED037AD7ED167A67EE40
:10340000277AC7ED137A97ED027AD7ED177A67EE30
:10341000277AC7ED127ABB6F1A1DBA6797ED157A36
:10342000D7ED147A77EE677AC3ED007ABB6F1A1D79
:10343000BA6797ED137AD7ED127A77EE277AC3ED54
:10344000007A3B6F1A1D3A671B68FB653B6F1A1DBC
:103450003A671B68BB6597ED0C7AD7ED177A67EE74
:10346000277AC7ED157A97ED0D7AD7ED167A67EEC4
:10347000277AC7ED147A97ED0D7AD7ED177A67EEB4
:10348000277AC7ED137A97ED0C7AD7ED167A67EEA7
:10349000277AC7ED127A7B6F1A1D7A6797ED157A36
:1034A000D7ED147A77EE277AC3ED007A7B6F1A1D79
:1034B0007A6797ED137AD7ED127A77EE677AC3EDD4
:1034C000007A97ED047AD7ED167A67EE277AC7ED82
:1034D000157A97ED057AD7ED177A67EE277AC7ED5B
:1034E000147A97ED057AD7ED167A67EE277AC7ED4D
:1034F000137A97ED047AD7ED177A67EE277AC7ED3E
:10350000127ABB6F1A1DBA6797ED157AD7ED147A48
:1035100077EE677AC3ED007ABB6F1A1DBA6797ED35
:10352000137AD7ED127A77EE277AC3ED007AFB6E25
:10353000013BFB66FB6E002B7FF445AEBB6E9AB27F
:103540007B685B68786E11461A46022300F0E6FE3F
:10355000BB6E9AB27B685B68386E11461A460223CE
:1035600000F0DCFE8037BD4680BD00BF80B5ACB04A
:1035700000AF786039607B681B885B089BB2C7F836
:103580008030D7F880309B003A681344C7F89030F9
:10359000D7F880309B00D7F890201344C7F88C30C0
:1035A000D7F880309B00D7F88C201344C7F88830B8
:1035B0003B68FB67D7F89030BB67D7F88C307B67E8
:1035C000D7F888303B67D7F89030043BC7F8AC3069
:1035D000D7F88C30043BC7F8A830D7F88830043BC4
:1035E000C7F8A430D7F880309B00D7F8A420134444
:1035F000C7F8A0307B685B68C7F89430D7F8943080
:10360000C7F89830D7F89830C7F89C30D7F8803092
:103610005B08C7F880300223FB660423BB660623E1
:103620007B663B6893ED007AD7F88C30D3ED007A57
:1036300077EE277AC7ED187A3B6893ED007AD7F8D2
:103640008C30D3ED007A77EE677AC7ED177A3B6856
:10365000043393ED007AD7F88C300433D3ED007A3D
:1036600077EE277AC7ED167A3B68043393ED007A3C
:10367000D7F88C300433D3ED007A77EE677AC7ED54
:10368000157AD7F89030043393ED007AD7ED177A96
:1036900037EE277AD7F888300433D3ED007A77EE07
:1036A000677AC7ED0B7AD7F89030D3ED007A97EDB3
:1036B000157A37EE677AD7F88830D3ED007A77EE4F
:1036C000277AC7ED0C7AD7F89030D3ED007A97EDD2
:1036D000187A37EE677AD7F88830D3ED007A77EE2C
:1036E000677AC7ED077AD7F890300433D3ED007AC4
:1036F00097ED167A37EE677AD7F888300433D3ED32
:10370000007A77EE677AC7ED087AD7F890300433FD
:10371000D3ED007A97ED177A37EE677AD7F88830CD
:103720000433D3ED007A77EE277AC7ED037AD7F822
:10373000903093ED007AD7ED157A37EE277AD7F8E7
:103740008830D3ED007A77EE677AC7ED047A3B686C
:103750001A1D3A60D7F8902092ED007AD7ED187ACA
:1037600037EE277AD7F88820D2ED007A77EE277ADD
:10377000C3ED007A3B681A1D3A60D7F890200432F6
:1037800092ED007AD7ED167A37EE277AD7F88820AF
:103790000432D2ED007A77EE277AC3ED007AD7F8BB
:1037A00090301A1DC7F89020FA6A1A60D7F8903046
:1037B0001A1DC7F890203A6B1A60D7F88C301A1D82
:1037C000C7F88C20FA691A60D7F88C301A1DC7F830
:1037D0008C203A6A1A60D7F888301A1DC7F88820FA
:1037E000FA681A60D7F888301A1DC7F888203A6935
:1037F0001A60FB6E9B00D7F89C201344C7F89C30DE
:10380000BB6E9B00D7F898201344C7F898307B6EA6
:103810009B00D7F894201344C7F89430D7F8803031
:10382000023B5B08C7F884301AE33B6893ED007AEB
:10383000D7F88C30D3ED007A77EE277AC7ED187A77
:103840003B6893ED007AD7F88C30D3ED007A77EEB1
:10385000677AC7ED177A3B68043393ED007AD7F89F
:103860008C300433D3ED007A77EE277AC7ED167AE1
:103870003B68043393ED007AD7F88C300433D3EDF2
:10388000007A77EE677AC7ED157AD7F8903004336F
:1038900093ED007AD7ED177A37EE277AD7F888308C
:1038A0000433D3ED007A77EE677AC7ED0B7AD7F859
:1038B0009030D3ED007A97ED157A37EE677AD7F826
:1038C0008830D3ED007A77EE277AC7ED0C7AD7F8F7
:1038D0009030D3ED007A97ED187A37EE677AD7F803
:1038E0008830D3ED007A77EE677AC7ED077AD7F89C
:1038F00090300433D3ED007A97ED167A37EE677A7D
:10390000D7F888300433D3ED007A77EE677AC7EDC5
:10391000087AD7F890300433D3ED007A97ED177A10
:1039200037EE677AD7F888300433D3ED007A77EE34
:10393000277AC7ED037AD7F8903093ED007AD7ED68
:10394000157A37EE277AD7F88830D3ED007A77EEFC
:10395000677AC7ED047A3B681A1D3A60D7F8902061
:1039600092ED007AD7ED187A37EE277AD7F88820CB
:10397000D2ED007A77EE277AC3ED007A3B681A1D04
:103980003A60D7F89020043292ED007AD7ED167A9B
:1039900037EE277AD7F888200432D2ED007A77EE16
:1039A000277AC3ED007AD7F8AC30043B93ED007A68
:1039B000D7F8A430043BD3ED007A77EE277AC7ED31
:1039C000167AD7F8AC30043B93ED007AD7F8A430E0
:1039D000043BD3ED007A77EE677AC7ED157AD7F816
:1039E000AC3093ED007AD7F8A430D3ED007A77EEBF
:1039F000277AC7ED187AD7F8AC3093ED007AD7F86C
:103A0000A430D3ED007A77EE677AC7ED177AD7F84E
:103A1000A83093ED007AD7F8A030D3ED007A37EED6
:103A2000677AD7ED157A77EE277AC7ED0D7AD7F852
:103A3000AC3093ED007AD7F8A430D3ED007A37EEAE
:103A4000677AD7F8A830043BD3ED007A37EE677A6F
:103A5000D7F8A030043BD3ED007A77EE277AC7ED94
:103A60000E7AD7F8A830043BD3ED007A97ED167A9A
:103A700037EE677AD7F8A030043BD3ED007A77EEC3
:103A8000677AC7ED097AD7F8A830D3ED007A97EDB9
:103A9000187A37EE677AD7F8A030D3ED007A77EE50
:103AA000677AC7ED0A7AD7F8A83093ED007AD7F88D
:103AB000A030D3ED007A37EE677AD7ED157A77EE3E
:103AC000677AC7ED057AD7F8A030043B93ED007A0A
:103AD000D7F8A830043BD3ED007A37EE677AD7EDFC
:103AE000177A77EE677AC7ED067AD7F8AC301A1FE7
:103AF000C7F8AC20D7F8A82092ED007AD7ED187A55
:103B000037EE277AD7F8A020D2ED007A77EE277A21
:103B1000C3ED007AD7F8AC301A1FC7F8AC20D7F83D
:103B2000A820043A92ED007AD7ED167A37EE277A7C
:103B3000D7F8A020043AD2ED007A77EE277AC3EDC9
:103B4000007AD7F89C301A1DC7F89C201B683B658B
:103B5000D7F89C301A1DC7F89C201B68FB6497EDB2
:103B60000B7AD7ED147A67EE277AC7ED127A97EDC4
:103B70000C7AD7ED137A67EE277AC7ED117A97EDB5
:103B80000C7AD7ED147A67EE277AC7ED107A97EDA5
:103B90000B7AD7ED137A67EE277AC7ED0F7AD7F84D
:103BA00090301A1DC7F8902097ED127AD7ED117A50
:103BB00077EE277AC3ED007AD7F890301A1DC7F850
:103BC000902097ED107AD7ED0F7A77EE677AC3EDF4
:103BD000007A97ED0E7AD7ED137A67EE277AC7ED64
:103BE000127A97ED0D7AD7ED147A67EE277AC7ED42
:103BF000117A97ED0D7AD7ED137A67EE277AC7ED34
:103C0000107A97ED0E7AD7ED147A67EE277AC7ED22
:103C10000F7AD7F8A8301A1FC7F8A82097ED127AA4
:103C2000D7ED117A77EE677AC3ED007AD7F8A8302E
:103C30001A1FC7F8A82097ED107AD7ED0F7A77EE04
:103C4000277AC3ED007AD7F898301B683B65D7F820
:103C500098305B68FB64BB6E9B00D7F898201344D8
:103C6000C7F8983097ED077AD7ED147A67EE277A80
:103C7000C7ED127A97ED087AD7ED137A67EE277AB7
:103C8000C7ED117A97ED087AD7ED147A67EE277AA7
:103C9000C7ED107A97ED077AD7ED137A67EE277A9A
:103CA000C7ED0F7AD7F88C301A1DC7F88C2097ED26
:103CB000127AD7ED117A77EE277AC3ED007AD7F82A
:103CC0008C301A1DC7F88C2097ED107AD7ED0F7A3B
:103CD00077EE677AC3ED007AD7ED0A7AB1EE677AAC
:103CE000D7ED147A67EE277AC7ED127A97ED097A45
:103CF000D7ED137A67EE277AC7ED117A97ED097A37
:103D0000D7ED147A67EE277AC7ED107A97ED0A7A25
:103D1000D7ED137A67EE277AC7ED0F7AD7F8A4307C
:103D20001A1FC7F8A42097ED127AD7ED117A77EE13
:103D3000677AC3ED007AD7F8A4301A1FC7F8A42019
:103D400097ED0F7AD7ED107A77EE677AC3ED007AA8
:103D5000D7F894301B683B65D7F894305B68FB64F8
:103D60007B6E9B00D7F894201344C7F8943097EDEE
:103D7000037AD7ED147A67EE277AC7ED127A97EDBA
:103D8000047AD7ED137A67EE277AC7ED117A97EDAB
:103D9000047AD7ED147A67EE277AC7ED107A97ED9B
:103DA000037AD7ED137A67EE277AC7ED0F7AD7F843
:103DB00088301A1DC7F8882097ED127AD7ED117A4E
:103DC00077EE277AC3ED007AD7F888301A1DC7F846
:103DD000882097ED107AD7ED0F7A77EE677AC3EDEA
:103DE000007A97ED067AD7ED137A67EE277AC7ED5A
:103DF000127A97ED057AD7ED147A67EE277AC7ED38
:103E0000117A97ED057AD7ED137A67EE277AC7ED29
:103E1000107A97ED067AD7ED147A67EE277AC7ED18
:103E20000F7AD7F8A0301A1FC7F8A02097ED127AA2
:103E3000D7ED117A77EE677AC3ED007AD7F8A03024
:103E40001A1FC7F8A02097ED107AD7ED0F7A77EEFA
:103E5000277AC3ED007AD7F88430013BC7F8843065
:103E6000D7F88430002B7FF4E0AC3B6893ED007A08
:103E7000D7F88C30D3ED007A77EE277AC7ED187A31
:103E80003B6893ED007AD7F88C30D3ED007A77EE6B
:103E9000677AC7ED177A3B68043393ED007AD7F859
:103EA0008C300433D3ED007A77EE277AC7ED167A9B
:103EB0003B68043393ED007AD7F88C300433D3EDAC
:103EC000007A77EE677AC7ED157AD7F89030043329
:103ED00093ED007AD7ED177A37EE277AD7F8883046
:103EE0000433D3ED007A77EE677AC7ED0B7AD7F813
:103EF0009030D3ED007A97ED157A37EE677AD7F8E0
:103F00008830D3ED007A77EE277AC7ED0C7AD7F8B0
:103F10009030D3ED007A97ED187A37EE677AD7F8BC
:103F20008830D3ED007A77EE677AC7ED077AD7F855
:103F300090300433D3ED007A97ED167A37EE677A36
:103F4000D7F888300433D3ED007A77EE677AC7ED7F
:103F5000087AD7F890300433D3ED007A97ED177ACA
:103F600037EE677AD7F888300433D3ED007A77EEEE
:103F7000277AC7ED037AD7F8903093ED007AD7ED22
:103F8000157A37EE277AD7F88830D3ED007A77EEB6
:103F9000677AC7ED047A3B681A1D3A60D7F890201B
:103FA00092ED007AD7ED187A37EE277AD7F8882085
:103FB000D2ED007A77EE277AC3ED007A3B681A1DBE
:103FC0003A60D7F89020043292ED007AD7ED167A55
:103FD00037EE277AD7F888200432D2ED007A77EED0
:103FE000277AC3ED007AD7F89C301B683B65D7F879
:103FF0009C305B68FB6497ED0B7AD7ED147A67EE23
:10400000277AC7ED127A97ED0C7AD7ED137A67EE1F
:10401000277AC7ED117A97ED0C7AD7ED147A67EE0F
:10402000277AC7ED107A97ED0B7AD7ED137A67EE02
:10403000277AC7ED0F7AD7F890301A1DC7F890206D
:1040400097ED127AD7ED117A77EE277AC3ED007AE1
:10405000D7F890301A1DC7F8902097ED107AD7ED59
:104060000F7A77EE677AC3ED007AD7F898301B683D
:104070003B65D7F898305B68FB6497ED077AD7ED1E
:10408000147A67EE277AC7ED127A97ED087AD7EDA2
:10409000137A67EE277AC7ED117A97ED087AD7ED94
:1040A000147A67EE277AC7ED107A97ED077AD7ED85
:1040B000137A67EE277AC7ED0F7AD7F88C301A1D7E
:1040C000C7F88C2097ED127AD7ED117A77EE277A20
:1040D000C3ED007AD7F88C301A1DC7F88C2097ED05
:1040E000107AD7ED0F7A77EE677AC3ED007AD7F8BA
:1040F00094301B683B65D7F894305B68FB6497EDA0
:10410000037AD7ED147A67EE277AC7ED127A97ED26
:10411000047AD7ED137A67EE277AC7ED117A97ED17
:10412000047AD7ED147A67EE277AC7ED107A97ED07
:10413000037AD7ED137A67EE277AC7ED0F7AD7F8AF
:1041400088301A1DC7F8882097ED127AD7ED117ABA
:1041500077EE277AC3ED007AD7F888301A1DC7F8B2
:10416000882097ED107AD7ED0F7A77EE677AC3ED56
:10417000007AD7F880309AB27B685B68F86F114696
:104180001A46042300F0CAF8D7F880309AB27B6848
:104190005B68B86F11461A46042300F0BFF8D7F8E1
:1041A00080309AB27B685B68786F11461A460423A8
:1041B00000F0B4F8D7F880309AB27B685B68386F4B
:1041C00011461A46042300F0A9F8B037BD4680BD59
:1041D00080B588B000AFF860B96011461A460B464A
:1041E000FB711346BB71FB681B887B61FB79012B5C
:1041F00017D1BB680433BB610023FB610DE0BB69D1
:10420000D3ED007AF1EE677ABB69C3ED007ABB6942
:104210000833BB61FB690133FB61FA697B699A4230
:10422000EDD37B69B3F5807F24D0B3F5807F0BD8C5
:10423000202B1FD0202B02D8102B16D02AE0402B89
:104240001DD0802B11D025E0B3F5806F0DD0B3F5D4
:10425000806F03D8B3F5007F11D01BE0B3F5006F7A
:1042600008D0B3F5805F0AD014E0F868B968FEF7AB
:1042700085FF0FE0F868B968FFF778F90AE07B6915
:104280009AB2FB685B68B86811461A46012300F0D1
:1042900045F800BFBB79002B08D0FB689A89FB6802
:1042A0009B68B86811461A4604F0B4FDFB79012BEF
:1042B00030D17B6907EE903AF8EE677AB7EE007A74
:1042C000C7EE277AC7ED047ABB68BB610023FB61A8
:1042D0001CE0BB691A1DBA6193ED007AD7ED047A30
:1042E00067EE277AC3ED007ABB69D3ED007AB1EEB1
:1042F000677AD7ED047A67EE277ABB69C3ED007A57
:10430000BB690433BB61FB690133FB61FA697B69FB
:104310009A42DED32037BD4680BD00BF80B4BDB019
:1043200000AFF8607A601A460B467B8113463B81EA
:10433000094BC7F8DC307B89C7F8E430D7F8E430A4
:10434000C7F8D830D7F8E430DB08C7F8E4300023EA
:10435000C7F8E83002E000BFF304353FD7F8E820A3
:10436000D7F8E4301344C7F8D430D7F8D420D7F8BE
:10437000E4301344C7F8D030D7F8D020D7F8E43071
:104380001344C7F8CC30D7F8CC20D7F8E430134426
:10439000C7F8C830D7F8C820D7F8E4301344C7F8B6
:1043A000C430D7F8C420D7F8E4301344C7F8C0307D
:1043B000D7F8C020D7F8E4301344C7F8BC30D7F89A
:1043C000E830DB00FA68134493ED007AD7F8C83080
:1043D000DB00FA681344D3ED007A77EE277AC7ED55
:1043E0002E7AD7F8E830DB00FA68134493ED007AB0
:1043F000D7F8C830DB00FA681344D3ED007A77EEC3
:10440000677AC7ED2D7AD7F8D430DB00FA68134409
:1044100093ED007AD7F8C430DB00FA681344D3ED8B
:10442000007A77EE277AC7ED2C7AD7F8D430DB0004
:10443000FA68134493ED007AD7F8C430DB00FA68C9
:104440001344D3ED007A77EE677AC7ED2B7AD7F86D
:10445000D030DB00FA68134493ED007AD7F8C0300F
:10446000DB00FA681344D3ED007A77EE277AC7EDC4
:104470002A7AD7F8D030DB00FA68134493ED007A3B
:10448000D7F8C030DB00FA681344D3ED007A77EE3A
:10449000677AC7ED297AD7F8CC30DB00FA68134485
:1044A00093ED007AD7F8BC30DB00FA681344D3ED03
:1044B000007A77EE277AC7ED287AD7F8CC30DB0080
:1044C000FA68134493ED007AD7F8BC30DB00FA6841
:1044D0001344D3ED007A77EE677AC7ED277A97ED2C
:1044E0002E7AD7ED2A7A77EE677AC7ED267A97ED9E
:1044F0002E7AD7ED2A7A77EE277AC7ED2E7A97EDC6
:104500002C7AD7ED287A77EE677AC7ED2A7A97ED7D
:104510002C7AD7ED287A77EE277AC7ED2C7AD7F860
:10452000E830DB00FA68134497ED2E7AD7ED2C7A49
:1045300077EE277AC3ED007AD7F8C830DB00FA6847
:10454000134497ED2E7AD7ED2C7A77EE677AC3ED88
:10455000007AD7F8E830DB000433FA68134493EDAF
:10456000007AD7F8C830DB000433FA681344D3ED7F
:10457000007A77EE277AC7ED2E7AD7F8E830DB009D
:104580000433FA68134493ED007AD7F8C830DB009F
:104590000433FA681344D3ED007A77EE677AC7EDF7
:1045A000257AD7F8D430DB000433FA68134493ED4E
:1045B000007AD7F8C430DB000433FA681344D3ED33
:1045C000007A77EE277AC7ED2C7AD7F8D430DB0063
:1045D0000433FA68134493ED007AD7F8C430DB0053
:1045E0000433FA681344D3ED007A77EE677AC7EDA7
:1045F000247AD7F8D030DB000433FA68134493ED03
:10460000007AD7F8C030DB000433FA681344D3EDE6
:10461000007A77EE277AC7ED237AD7F8D030DB001F
:104620000433FA68134493ED007AD7F8C030DB0006
:104630000433FA681344D3ED007A77EE677AC7ED56
:10464000227AD7F8CC30DB000433FA68134493EDB8
:10465000007AD7F8BC30DB000433FA681344D3ED9A
:10466000007A77EE277AC7ED287AD7F8CC30DB00CE
:104670000433FA68134493ED007AD7F8BC30DB00BA
:104680000433FA681344D3ED007A77EE677AC7ED06
:10469000217A97ED2E7AD7ED237A77EE677AC7EDF8
:1046A000207A97ED2E7AD7ED237A77EE277AC7ED29
:1046B0002E7A97ED2C7AD7ED287A77EE677AC7EDC8
:1046C000237A97ED2C7AD7ED287A77EE277AC7ED03
:1046D0002C7AD7F8E830DB000433FA68134497EDFE
:1046E0002E7AD7ED2C7A77EE277AC3ED007AD7F8B9
:1046F000C830DB000433FA68134497ED2E7AD7ED07
:104700002C7A77EE677AC3ED007AD7F8D030DB00E9
:10471000FA68134497ED267AD7ED237A77EE277A55
:10472000C3ED007AD7F8C030DB00FA68134497ED88
:10473000267AD7ED237A77EE677AC3ED007AD7F839
:10474000D030DB000433FA68134497ED207AD7EDBC
:104750002A7A77EE677AC3ED007AD7F8C030DB00AB
:104760000433FA68134497ED207AD7ED2A7A77EE6E
:10477000277AC3ED007A97ED2B7AD7ED277A37EEBB
:10478000677AD7ED377A67EE277AC7ED2E7A97EDFD
:104790002B7AD7ED277A37EE277AD7ED377A67EE7F
:1047A000277AC7ED2B7A97ED247AD7ED217A37EE69
:1047B000677AD7ED377A67EE277AC7ED2C7A97EDCF
:1047C000247AD7ED217A37EE277AD7ED377A67EE5C
:1047D000277AC7ED247A97ED2D7AD7ED2E7A77EEEA
:1047E000677AC7ED267A97ED2D7AD7ED2E7A77EE98
:1047F000277AC7ED2D7A97ED297AD7ED2B7A77EEC8
:10480000677AC7ED277A97ED297AD7ED2B7A77EE7D
:10481000277AC7ED297A97ED257AD7ED2C7A77EEAE
:10482000677AC7ED207A97ED257AD7ED2C7A77EE67
:10483000277AC7ED257A97ED227AD7ED247A77EE9D
:10484000677AC7ED217A97ED227AD7ED247A77EE51
:10485000277AC7ED227AD7F8D430DB00FA68134400
:1048600097ED2D7AD7ED227A77EE277AC3ED007A8D
:10487000D7F8BC30DB00FA68134497ED2D7AD7EDFA
:10488000227A77EE677AC3ED007AD7F8C430DB007E
:10489000FA68134497ED267AD7ED217A77EE277AD6
:1048A000C3ED007AD7F8CC30DB00FA68134497EDFB
:1048B000267AD7ED217A77EE677AC3ED007AD7F8BA
:1048C000D430DB000433FA68134497ED257AD7ED32
:1048D000297A77EE677AC3ED007AD7F8BC30DB002F
:1048E0000433FA68134497ED257AD7ED297A77EEE9
:1048F000277AC3ED007AD7F8C430DB000433FA68B6
:10490000134497ED207AD7ED277A77EE677AC3EDD7
:10491000007AD7F8CC30DB000433FA68134497ED03
:10492000207AD7ED277A77EE277AC3ED007AD7F889
:10493000E820D7F8D8301344C7F8E8307A89D7F898
:10494000E8309A423FF60AADD7F8E430072B01D899
:1049500000F0E2BC0023C7F8EC300123C7F8E030D8
:104960003A89D7F8EC301344FB67FB6FC7F8EC309B
:10497000D7F8EC20FB6F1344BB67BA6FFB6F13448F
:104980007B677A6FFB6F13443B673A6FFB6F13448F
:10499000FB66FA6EFB6F1344BB66BA6EFB6F134483
:1049A0007B66D7F8EC30DB007A6813441B683B6603
:1049B000BB6FDB007A6813441B68FB657B6FDB0011
:1049C0007A6813441B68BB653B6FDB007A6813444D
:1049D0001B687B65FB6EDB007A6813441B683B65D4
:1049E000BB6EDB007A6813441B68FB647B6EDB00E4
:1049F0007A6813441B68BB64D7F8EC30DB000433DF
:104A00007A6813441B687B64BB6FDB0004337A68ED
:104A100013441B683B647B6FDB0004337A681344E8
:104A20001B68FB633B6FDB0004337A6813441B682D
:104A3000BB63FB6EDB0004337A6813441B687B6343
:104A4000BB6EDB0004337A6813441B683B637B6EE8
:104A5000DB0004337A6813441B68FB62D7F8E0304C
:104A6000C7F8E830D7F8E820D7F8E4301344C7F89F
:104A7000D430D7F8D420D7F8E4301344C7F8D03076
:104A8000D7F8D020D7F8E4301344C7F8CC30D7F8A3
:104A9000CC20D7F8E4301344C7F8C830D7F8C82082
:104AA000D7F8E4301344C7F8C430D7F8C420D7F897
:104AB000E4301344C7F8C030D7F8C020D7F8E4304A
:104AC0001344C7F8BC30D7F8E830DB00FA68134469
:104AD00093ED007AD7F8C830DB00FA681344D3EDC1
:104AE000007A77EE277AC7ED2E7AD7F8E830DB0028
:104AF000FA68134493ED007AD7F8C830DB00FA68FF
:104B00001344D3ED007A77EE677AC7ED2D7AD7F8A4
:104B1000D430DB00FA68134493ED007AD7F8C43040
:104B2000DB00FA681344D3ED007A77EE277AC7EDFD
:104B30002C7AD7F8D430DB00FA68134493ED007A6E
:104B4000D7F8C430DB00FA681344D3ED007A77EE6F
:104B5000677AC7ED2B7AD7F8D030DB00FA681344B8
:104B600093ED007AD7F8C030DB00FA681344D3ED38
:104B7000007A77EE277AC7ED2A7AD7F8D030DB00B3
:104B8000FA68134493ED007AD7F8C030DB00FA6876
:104B90001344D3ED007A77EE677AC7ED297AD7F818
:104BA000CC30DB00FA68134493ED007AD7F8BC30C0
:104BB000DB00FA681344D3ED007A77EE277AC7ED6D
:104BC000287AD7F8CC30DB00FA68134493ED007AEA
:104BD000D7F8BC30DB00FA681344D3ED007A77EEE7
:104BE000677AC7ED277A97ED2E7AD7ED2A7A77EE96
:104BF000677AC7ED267A97ED2E7AD7ED2A7A77EE87
:104C0000277AC7ED2E7A97ED2C7AD7ED287A77EEB2
:104C1000677AC7ED2A7A97ED2C7AD7ED287A77EE66
:104C2000277AC7ED2C7AD7F8E830DB00FA6813440E
:104C300097ED2E7AD7ED2C7A77EE277AC3ED007AAE
:104C400097ED2E7AD7ED2C7A77EE677AC7ED2C7A2E
:104C5000D7F8E830DB000433FA68134493ED007AA8
:104C6000D7F8C830DB000433FA681344D3ED007A78
:104C700077EE277AC7ED0A7AD7F8E830DB000433FD
:104C8000FA68134493ED007AD7F8C830DB00043398
:104C9000FA681344D3ED007A77EE677AC7ED257A88
:104CA000D7F8D430DB000433FA68134493ED007A6C
:104CB000D7F8C430DB000433FA681344D3ED007A2C
:104CC00077EE277AC7ED097AD7F8D430DB000433C2
:104CD000FA68134493ED007AD7F8C430DB0004334C
:104CE000FA681344D3ED007A77EE677AC7ED247A39
:104CF000D7F8D030DB000433FA68134493ED007A20
:104D0000D7F8C030DB000433FA681344D3ED007ADF
:104D100077EE277AC7ED237AD7F8D030DB0004335B
:104D2000FA68134493ED007AD7F8C030DB000433FF
:104D3000FA681344D3ED007A77EE677AC7ED227AEA
:104D4000D7F8CC30DB000433FA68134493ED007AD3
:104D5000D7F8BC30DB000433FA681344D3ED007A93
:104D600077EE277AC7ED087AD7F8CC30DB0004332A
:104D7000FA68134493ED007AD7F8BC30DB000433B3
:104D8000FA681344D3ED007A77EE677AC7ED217A9B
:104D900097ED0A7AD7ED237A77EE677AC7ED207A16
:104DA00097ED0A7AD7ED237A77EE277AC7ED0A7A5C
:104DB00097ED097AD7ED087A77EE677AC7ED237A0F
:104DC00097ED097AD7ED087A77EE277AC7ED097A59
:104DD00097ED267AD7ED237A77EE277AC7ED2E7AEC
:104DE00097ED267AD7ED237A77EE677AC7ED267AA4
:104DF000D7F8E830DB000433FA68134497ED0A7AF9
:104E0000D7ED097A77EE277AC3ED007A97ED0A7A23
:104E1000D7ED097A77EE677AC7ED097A97ED207AB0
:104E2000D7ED2A7A77EE677AC7ED0A7A97ED207A7E
:104E3000D7ED2A7A77EE277AC7ED207A97ED157AA3
:104E4000D7ED2C7A67EE277AC7ED077A97ED0E7AC1
:104E5000D7ED097A67EE277AC7ED067A97ED157ACE
:104E6000D7ED097A67EE277AC7ED057A97ED0E7AC6
:104E7000D7ED2C7A67EE277AC7ED047AD7F8C830D9
:104E8000DB00FA68134497ED077AD7ED067A77EEE0
:104E9000277AC3ED007AD7F8C830DB000433FA680C
:104EA000134497ED057AD7ED047A77EE677AC3ED70
:104EB000007A97ED177AD7ED2E7A67EE277AC7ED4D
:104EC000077A97ED107AD7ED0A7A67EE277AC7ED61
:104ED000067A97ED177AD7ED0A7A67EE277AC7ED4B
:104EE000057A97ED107AD7ED2E7A67EE277AC7ED1F
:104EF000047AD7F8D030DB00FA68134497ED077ACC
:104F0000D7ED067A77EE277AC3ED007AD7F8D0305E
:104F1000DB000433FA68134497ED057AD7ED047A81
:104F200077EE677AC3ED007A97ED137AD7ED267A9C
:104F300067EE277AC7ED077A97ED0C7AD7ED207ADE
:104F400067EE277AC7ED067A97ED137AD7ED207AC8
:104F500067EE277AC7ED057A97ED0C7AD7ED267ABA
:104F600067EE277AC7ED047AD7F8C030DB00FA681D
:104F7000134497ED077AD7ED067A77EE277AC3EDDB
:104F8000007AD7F8C030DB000433FA68134497ED99
:104F9000057AD7ED047A77EE677AC3ED007A97ED5C
:104FA0002B7AD7ED277A37EE677AD7ED377A67EE27
:104FB000277AC7ED2E7A97ED2B7AD7ED277A37EE41
:104FC000277AD7ED377A67EE277AC7ED2B7A97EDF8
:104FD000247AD7ED217A37EE677AD7ED377A67EE04
:104FE000277AC7ED0A7A97ED247AD7ED217A37EE42
:104FF000277AD7ED377A67EE277AC7ED247A97EDCF
:105000002D7AD7ED2E7A77EE677AC7ED267A97ED6F
:105010002D7AD7ED2E7A77EE277AC7ED2D7A97ED98
:10502000297AD7ED2B7A77EE677AC7ED277A97ED55
:10503000297AD7ED2B7A77EE277AC7ED297A97ED83
:10504000257AD7ED0A7A77EE677AC7ED207A97ED61
:10505000257AD7ED0A7A77EE277AC7ED257A97ED8C
:10506000227AD7ED247A77EE677AC7ED217A97ED29
:10507000227AD7ED247A77EE277AC7ED227A97ED58
:105080002D7AD7ED227A77EE277AC7ED2E7A97ED33
:105090002D7AD7ED227A77EE677AC7ED2D7A97EDE4
:1050A000267AD7ED217A77EE277AC7ED2B7A97ED1E
:1050B000267AD7ED217A77EE677AC7ED267A97EDD3
:1050C000257AD7ED297A77EE677AC7ED0A7A97EDD8
:1050D000257AD7ED297A77EE277AC7ED257A97EDED
:1050E000207AD7ED277A77EE677AC7ED247A97EDA5
:1050F000207AD7ED277A77EE277AC7ED207A97EDD9
:10510000187AD7ED2E7A67EE277AC7ED077A97EDF2
:10511000117AD7ED0A7A67EE277AC7ED067A97ED0E
:10512000187AD7ED0A7A67EE277AC7ED057A97EDF8
:10513000117AD7ED2E7A67EE277AC7ED047AD7F881
:10514000D430DB00FA68134497ED077AD7ED067A7E
:1051500077EE277AC3ED007AD7F8D430DB0004333A
:10516000FA68134497ED057AD7ED047A77EE677AFB
:10517000C3ED007A97ED127AD7ED2D7A67EE277A94
:10518000C7ED077A97ED0B7AD7ED257A67EE277A88
:10519000C7ED067A97ED127AD7ED257A67EE277A72
:1051A000C7ED057A97ED0B7AD7ED2D7A67EE277A62
:1051B000C7ED047AD7F8BC30DB00FA68134497EDEA
:1051C000077AD7ED067A77EE277AC3ED007AD7F81B
:1051D000BC30DB000433FA68134497ED057AD7ED51
:1051E000047A77EE677AC3ED007A97ED147AD7EDFB
:1051F0002B7A67EE277AC7ED077A97ED0D7AD7ED10
:10520000247A67EE277AC7ED067A97ED147AD7ED00
:10521000247A67EE277AC7ED057A97ED0D7AD7EDF8
:105220002B7A67EE277AC7ED047AD7F8C430DB0013
:10523000FA68134497ED077AD7ED067A77EE277A66
:10524000C3ED007AD7F8C430DB000433FA681344A6
:1052500097ED057AD7ED047A77EE677AC3ED007A99
:1052600097ED167AD7ED267A67EE277AC7ED077A9B
:1052700097ED0F7AD7ED207A67EE277AC7ED067A99
:1052800097ED167AD7ED207A67EE277AC7ED057A83
:1052900097ED0F7AD7ED267A67EE277AC7ED047A75
:1052A000D7F8CC30DB00FA68134497ED077AD7EDD6
:1052B000067A77EE277AC3ED007AD7F8CC30DB0098
:1052C0000433FA68134497ED057AD7ED047A77EE44
:1052D000677AC3ED007AD7F8E820D7F8D8301344BE
:1052E000C7F8E8307A89D7F8E8309A423FF6BAAB87
:1052F000D7F8E0300133C7F8E030D7F8E020D7F82E
:10530000E4309A42FFF42CAB3B89DB003B81D7F8B9
:10531000E430072B3FF612A8F437BD465DF8047B56
:10532000704700BF00B50A4C2468054685B0E068A8
:1053300052B1084C02928DE812001A4606492B46DB
:1053400000F00EF801F032FA044C2246F2E700BFFA
:1053500030040020A0BD0108B0BD0108ACBD0108AB
:105360000EB410B583B005AB064C53F8042B019373
:105370000146206800F06AFB03B0BDE8104003B0AE
:10538000704700BF3004002070B50F4E0F4D761BE4
:10539000B61018BF002405D0013455F8043B9847D7
:1053A000A642F9D10A4E0B4D761B06F041FFB6100E
:1053B00018BF002406D0013455F8043B9847A64294
:1053C000F9D170BD70BD00BF50C2010850C20108C4
:1053D00058C2010850C20108024B0146186800F08B
:1053E00003B800BF300400202DE9F04F01F10B0598
:1053F000162D83B0064627D935F0070500F1B68093
:10540000A94200F2B38000F0CFFAB5F5FC7F22D2BA
:10541000C24FE80807EBC003DC689C4200F0C8817B
:105420006368E168A56823F00303234430465A68A3
:10543000E96042F001028D605A6000F0B7FA08346A
:10544000204603B0BDE8F08F102900F28F8000F0F5
:10545000ABFA1025DCE7680A00F08F80042800F220
:105460005481A80938304100AC4F07EB8101CC686A
:10547000A14206D10CE0002A80F28280E468A142B9
:1054800006D0636823F003035A1B0F2AF3DD0138AB
:105490000130A2493C6901F1080E744500F07D819C
:1054A000636823F003035A1B0F2A00F36381002A69
:1054B000C1F814E0C1F810E073DAB3F5007F80F0B2
:1054C0003981DB0801EBC3084FEAA30C4A68D8F81E
:1054D0000890C4F80890012303FA0CF31343C4F8AE
:1054E0000C804B60C8F80840C9F80C4082100124B9
:1054F00094409C4262D8234206D120F0030064000D
:10550000234200F10400FAD007EBC008C4468146EC
:10551000DCF80C309C4507D141E1002980F2518133
:10552000DB689C4500F03B815A6822F00302511B66
:105530000F29F2DD1C46D3F80CC054F8088F5A1915
:1055400045F0010941F00105C3F804903046C8F860
:105550000CC0CCF808807A613A61C2F80CE0C2F85D
:1055600008E05560515000F021FA69E700240C234F
:105570002046336003B0BDE8F08F7E213F2073E703
:105580002344E1685A68A56842F00102E9603046A8
:105590008D605A6000F00AFA0834204603B0BDE876
:1055A000F08F234430465A6842F001025A6000F0FE
:1055B000FDF90834204603B0BDE8F08FBC6863688D
:1055C00023F00308454504D8C5EB08030F2B00F36F
:1055D0008C80534BDFF858A11A68DAF80030013399
:1055E0002A4404EB080B00F0508102F580520F3280
:1055F00022F47F6222F00F0211463046019200F041
:10560000D7F9B0F1FF3F8146019A00F04781834509
:1056100000F2EE80434B1968CB451144196000F04D
:105620004281DAF80000DFF808E101301BBFCBEB64
:10563000090B5944CEF80090196019F0070100F0E9
:105640000781C1F10800C1F58051814408314A4405
:10565000C2F30B02C2EB010A51463046019300F03F
:10566000A7F9431C019B00F02C81C9EB00025244B6
:1056700042F001021968C7F808905144BC42C9F8C9
:1056800004201960DFF89CA016D0B8F10F0F40F28B
:10569000EE806268A8F10C0323F00703E01802F023
:1056A00001024FF0050E1A430F2B6260C0F804E0B0
:1056B000C0F808E000F209811B4BBC681A689142EF
:1056C00088BF1960194B1A689142626888BF1960D7
:1056D00022F003029542A2EB050301D80F2B04DC54
:1056E000304600F063F90024AAE6621943F0010392
:1056F00045F0010565603046BA60536000F056F928
:105700000834204603B0BDE8F08F142868D9542827
:1057100000F29780280B6E304100A5E6340400208B
:10572000A0650020A46500209C65002098650020ED
:10573000400800205A0A042A55D9142A00F2A780EA
:105740005B324FEA420C07EB8C0CDFF8BC81DCF8D3
:10575000081061457FD04A6822F00302934202D2CA
:1057600089688C45F7D1CA687B68E260A160946063
:10577000CC60BBE6631942F0010745F001056560A6
:1057800030464B610B61C3F80CE0C3F808E05F6082
:105790009A50083400F00AF952E64B68A6E609F17F
:1057A000010919F0030F0CF1080C7FF4B1AE2CE0E5
:1057B00004F108036469A34208BF02303FF469AEF4
:1057C0002EE61A441C465168DB6854F8085F41F025
:1057D000010151603046EB609D6000F0E7F82FE674
:1057E0005B30410040E69A0938324FEA420CAAE7A2
:1057F000BC42454B3FF40EAF9C68626822F0030246
:1058000068E7D8F8008098457CD110F0030FA8F124
:10581000080300F1FF30F4D17B6823EA04037B60C6
:1058200064009C423FF6CAAE002C3FF4C7AE234250
:1058300048467FF469AE6400234200F10400FAD0C8
:1058400062E6B0F5AA7F18D8E80B773041000BE686
:105850004FF48051FBE6D8F8043092104FF0010C61
:105860000CFA02F21343C8F804300A467DE701231C
:10587000C9F804304C4600222CE740F254539842B9
:105880001CD8A80C7C304100EEE51032B4E6542A56
:1058900023D81A0B6E324FEA420C54E7BC68626898
:1058A00022F0030216E7CBF30B0000287FF4B9AE19
:1058B0004244BB6842F001025A60FDE6FC217E20B2
:1058C000D2E501224FF0000AD4E604F10801304687
:1058D00001F090F9DAF80010EEE6B2F5AA7F04D8EC
:1058E000DA0B77324FEA420C2DE740F254518A42EC
:1058F00004D89A0C7C324FEA420C24E74FF0FC0C9F
:105900007E2220E77B688BE73404002070B4840794
:1059100046D0541E002A41D0CDB2034602E0621E9A
:10592000E4B3144603F8015B9A07F8D1032C2ED98F
:10593000CDB245EA05250F2C45EA054519D903F1F5
:1059400010022646103E0F2E42F8105C42F80C5C06
:1059500042F8085C42F8045C02F11002F2D8A4F1AB
