:020000040800F2
:1000000000000220351501087D15010815150108AD
:100010001D150108251501082D1501080000000017
:100020000000000000000000000000007D15010835
:100030007D150108000000007D150108FD1E010866
:100040007D1501087D1501087D1501087D15010844
:100050007D1501087D150108B1280108D528010882
:10006000F92801081D290108412901087D15010809
:100070007D1501087D1501087D1501087D15010814
:10008000151B01083D1C01087D1501087D1501089F
:100090007D1501087D1501087D15010865290108F8
:1000A0007D1501087D1501087D1501087D150108E4
:1000B0007D1501087D1501087D1501087D150108D4
:1000C0007D1501087D1501087D1501087D150108C4
:1000D0007D1501087D1501087D1501087D150108B4
:1000E000F12901087D1501087D1501087D1501081C
:1000F0007D1501087D1501087D1501087D15010894
:100100007D1501087D1501087D1501087D15010883
:100110007D1501087D1501087D1501087D15010873
:100120006D1701087D1501087D1501087D15010871
:100130007D1501087D1501087D1501087D15010853
:100140007D1501087D1501087D1501087D15010843
:100150007D1501087D1501087D1501087D15010833
:100160007D1501087D1501087D1501087D15010823
:020000040801F1
:1000000010B5054C237833B9044B13B10448AFF352
:1000100000800123237010BDA8080020000000000C
:1000200000FF0108084B10B51BB108480849AFF3A1
:1000300000800848036803B910BD074B002BFBD0B4
:10004000BDE81040184700BF0000000000FF010895
:10005000AC080020A808002000000000844641EA07
:10006000000313F003036DD1403A41D351F8043B30
:1000700040F8043B51F8043B40F8043B51F8043B82
:1000800040F8043B51F8043B40F8043B51F8043B72
:1000900040F8043B51F8043B40F8043B51F8043B62
:1000A00040F8043B51F8043B40F8043B51F8043B52
:1000B00040F8043B51F8043B40F8043B51F8043B42
:1000C00040F8043B51F8043B40F8043B51F8043B32
:1000D00040F8043B51F8043B40F8043B51F8043B22
:1000E00040F8043B51F8043B40F8043B403ABDD291
:1000F000303211D351F8043B40F8043B51F8043B33
:1001000040F8043B51F8043B40F8043B51F8043BF1
:1001100040F8043B103AEDD20C3205D351F8043BC1
:1001200040F8043B043AF9D2043208D0D2071CBF8D
:1001300011F8013B00F8013B01D30B8803806046B6
:10014000704700BF082A13D38B078DD010F003032C
:100150008AD0C3F10403D21ADB071CBF11F8013B9C
:1001600000F8013B80D331F8023B20F8023B7BE7EB
:10017000043AD9D3013A11F8013B00F8013BF9D216
:100180000B7803704B7843708B78837060467047B0
:1001900081F0004102E000BF83F0004330B54FEA38
:1001A00041044FEA430594EA050F08BF90EA020FA5
:1001B0001FBF54EA000C55EA020C7FEA645C7FEA38
:1001C000655C00F0E2804FEA5454D4EB5555B8BF5B
:1001D0006D420CDD2C4480EA020281EA030382EACC
:1001E000000083EA010180EA020281EA0303362D5E
:1001F00088BF30BD11F0004F4FEA01314FF4801C31
:100200004CEA113102D0404261EB410113F0004F42
:100210004FEA03334CEA133302D0524263EB4303F9
:1002200094EA050F00F0A780A4F10104D5F1200E97
:100230000DDB02FA0EFC22FA05F2801841F10001F2
:1002400003FA0EF2801843FA05F359410EE0A5F1C6
:1002500020050EF1200E012A03FA0EFC28BF4CF0F7
:10026000020C43FA05F3C01851EBE37101F00045AD
:1002700007D54FF0000EDCF1000C7EEB00006EEBBA
:100280000101B1F5801F1BD3B1F5001F0CD3490844
:100290005FEA30004FEA3C0C04F101044FEA44529B
:1002A00012F5800F80F09A80BCF1004F08BF5FEA22
:1002B000500C50F1000041EB045141EA050130BD02
:1002C0005FEA4C0C404141EB010111F4801FA4F1A5
:1002D0000104E9D191F0000F04BF01460020B1FAFA
:1002E00081F308BF2033A3F10B03B3F120020CDA32
:1002F0000C3208DD02F1140CC2F10C0201FA0CF010
:1003000021FA02F10CE002F11402D8BFC2F1200C74
:1003100001FA02F120FA0CFCDCBF41EA0C0190402A
:10032000E41AA2BF01EB0451294330BD6FEA040473
:100330001F3C1CDA0C340EDC04F11404C4F120025E
:1003400020FA04F001FA02F340EA030021FA04F370
:1003500045EA030130BDC4F10C04C4F1200220FAC7
:1003600002F001FA04F340EA0300294630BD21FA05
:1003700004F0294630BD94F0000F83F4801306BFCB
:1003800081F480110134013D4EE77FEA645C18BFBF
:100390007FEA655C29D094EA050F08BF90EA020F56
:1003A00005D054EA000C04BF1946104630BD91EA4E
:1003B000030F1EBF0021002030BD5FEA545C05D151
:1003C0004000494128BF41F0004130BD14F5800490
:1003D0003CBF01F5801130BD01F0004545F0FE4104
:1003E00041F470014FF0000030BD7FEA645C1ABF39
:1003F000194610467FEA655C1CBF0B46024650EA70
:10040000013406BF52EA033591EA030F41F400219B
:1004100030BD00BF90F0000F04BF0021704730B521
:100420004FF4806404F132044FF000054FF00001F6
:1004300050E700BF90F0000F04BF0021704730B5B7
:100440004FF4806404F1320410F0004548BF40428C
:100450004FF000013EE700BF42004FEAE2014FEAE1
:1004600031014FEA02701FBF12F07F4393F07F4FBC
:1004700081F06051704792F0000F14BF93F07F4FEE
:10048000704730B54FF4607401F0004521F0004131
:1004900020E700BF50EA010208BF704730B54FF0B7
:1004A00000050AE050EA010208BF704730B511F0BC
:1004B000004502D5404261EB41014FF4806404F1F4
:1004C00032045FEA915C3FF4DCAE4FF003025FEA76
:1004D000DC0C18BF03325FEADC0C18BF033202EBFE
:1004E000DC02C2F1200300FA03FC20FA02F001FA58
:1004F00003FE40EA0E0021FA02F11444C1E600BFF7
:1005000070B54FF0FF0C4CF4E06C1CEA11541DBFA9
:100510001CEA135594EA0C0F95EA0C0F00F0DEF874
:100520002C4481EA030621EA4C5123EA4C5350EA59
:10053000013518BF52EA033541F4801143F48013AA
:1005400038D0A0FB02CE4FF00005E1FB02E506F03B
:100550000042E0FB03E54FF00006E1FB03569CF090
:10056000000F18BF4EF0010EA4F1FF04B6F5007F96
:1005700064F5407404D25FEA4E0E6D4146EB060608
:1005800042EAC62141EA55514FEAC52040EA5E5091
:100590004FEACE2EB4F1FD0C88BFBCF5E06F1ED83B
:1005A000BEF1004F08BF5FEA500E50F1000041EB72
:1005B000045170BD06F0004646EA010140EA02001F
:1005C00081EA0301B4EB5C04C2BFD4EB0C0541EA41
:1005D000045170BD41F480114FF0000E013C00F356
:1005E000AB8014F1360FDEBF002001F0004170BD7A
:1005F000C4F10004203C35DA0C341BDC04F1140493
:10060000C4F1200500FA05F320FA04F001FA05F21E
:1006100040EA020001F0004221F0004110EBD370EB
:1006200021FA04F642EB06015EEA430E08BF20EA17
:10063000D37070BDC4F10C04C4F1200500FA04F3BA
:1006400020FA05F001FA04F240EA020001F000414C
:1006500010EBD37041F100015EEA430E08BF20EABF
:10066000D37070BDC4F1200500FA05F24EEA020E07
:1006700020FA04F301FA05F243EA020321FA04F036
:1006800001F0004121FA04F220EA020000EBD370ED
:100690005EEA430E08BF20EAD37070BD94F0000FED
:1006A0000FD101F00046400041EB010111F4801F21
:1006B00008BF013CF7D041EA060195F0000F18BFD2
:1006C000704703F00046520043EB030313F4801F0E
:1006D00008BF013DF7D043EA0603704794EA0C0FC8
:1006E0000CEA135518BF95EA0C0F0CD050EA4106DE
:1006F00018BF52EA4306D1D181EA030101F000415B
:100700004FF0000070BD50EA410606BF1046194682
:1007100052EA430619D094EA0C0F02D150EA01368E
:1007200013D195EA0C0F05D152EA03361CBF1046CF
:1007300019460AD181EA030101F0004141F0FE416E
:1007400041F470014FF0000070BD41F0FE4141F4F2
:10075000780170BD70B54FF0FF0C4CF4E06C1CEAF2
:1007600011541DBF1CEA135594EA0C0F95EA0C0FA7
:1007700000F0A7F8A4EB050481EA030E52EA033562
:100780004FEA013100F088804FEA03334FF0805583
:1007900045EA131343EA12634FEA022245EA1115B0
:1007A00045EA10654FEA00260EF000419D4208BF61
:1007B000964244F1FD0404F5407402D25B084FEA0E
:1007C0003202B61A65EB03055B084FEA32024FF4BA
:1007D00080104FF4002CB6EB020E75EB030E22BF17
:1007E000B61A754640EA0C005B084FEA3202B6EBD7
:1007F000020E75EB030E22BFB61A754640EA5C0086
:100800005B084FEA3202B6EB020E75EB030E22BF15
:10081000B61A754640EA9C005B084FEA3202B6EB16
:10082000020E75EB030E22BFB61A754640EADC00D5
:1008300055EA060E18D04FEA051545EA16754FEA37
:1008400006164FEAC30343EA52734FEAC2025FEA55
:100850001C1CC0D111F4801F0BD141EA00014FF0E4
:1008600000004FF0004CB6E711F4801F04BF0143B5
:100870000020B4F1FD0C88BFBCF5E06F3FF6AFAED1
:10088000B5EB030C04BFB6EB020C5FEA500C50F161
:10089000000041EB045170BD0EF0004E4EEA1131E4
:1008A00014EB5C04C2BFD4EB0C0541EA045170BDEB
:1008B00041F480114FF0000E013C90E645EA060E2F
:1008C0008DE60CEA135594EA0C0F08BF95EA0C0F5D
:1008D0003FF43BAF94EA0C0F0AD150EA01347FF4A5
:1008E00034AF95EA0C0F7FF425AF104619462CE77C
:1008F00095EA0C0F06D152EA03353FF4FDAE1046DF
:10090000194622E750EA410618BF52EA43067FF42F
:10091000C5AE50EA41047FF40DAF52EA43057FF4BF
:10092000EBAE12E74FF0FF3C06E000BF4FF0010CCA
:1009300002E000BF4FF0010C4DF804CD4FEA410C2E
:100940007FEA6C5C4FEA430C18BF7FEA6C5C1BD0FB
:1009500001B050EA410C0CBF52EA430C91EA030F7C
:1009600002BF90EA020F0020704710F1000F91EAD9
:10097000030F58BF994208BF90422CBFD8176FEAA7
:10098000E37040F0010070474FEA410C7FEA6C5C75
:1009900002D150EA013C07D14FEA430C7FEA6C5C7C
:1009A000D6D152EA033CD3D05DF8040B704700BFA8
:1009B0008446104662468C461946634600E000BFF6
:1009C00001B5FFF7B7FF002848BF10F1000F01BDC8
:1009D0004DF808EDFFF7F4FF0CBF012000205DF893
:1009E00008FB00BF4DF808EDFFF7EAFF34BF012018
:1009F00000205DF808FB00BF4DF808EDFFF7E0FFB1
:100A000094BF012000205DF808FB00BF4DF808ED01
:100A1000FFF7CEFF94BF012000205DF808FB00BF68
:100A20004DF808EDFFF7C4FF34BF012000205DF84A
:100A300008FB00BF4FEA410212F5001215D211D592
:100A40006FF47873B3EB625212D94FEAC12343F0CB
:100A5000004343EA505311F0004F23FA02F018BF4D
:100A6000404270474FF00000704750EA013005D116
:100A700011F0004008BF6FF0004070474FF00000D9
:100A8000704700BF4FEA4102B2F1E04324BFB3F523
:100A9000001CDCF1FE5C0DD901F0004C4FEAC002F5
:100AA0004CEA5070B2F1004F40EB830008BF20F0D9
:100AB0000100704711F0804F21D113F13872BCBF93
:100AC00001F00040704741F480114FEA5252C2F1E8
:100AD0001802C2F1200C10FA0CF320FA02F018BF31
:100AE00040F001004FEAC1234FEAD32303FA0CFC84
:100AF00040EA0C0023FA02F34FEA4303CCE77FEA13
:100B0000625307D150EA01331EBF4FF0FE4040F45C
:100B10004000704701F0004040F0FE4040F400000B
:100B2000704700BF53B94AB9002908BF00281CBF4D
:100B30004FF0FF314FF0FF3000F03CB882B0EC4690
:100B40002DE9005000F01EF8DDF804E002B00CBC06
:100B5000704700BF2DE9F041069C154606460F463A
:100B6000984600F029F805FB01F300FB0838A5FBC7
:100B70000023B21A434467EB0303C4E90023BDE832
:100B8000F08100BF2DE9F041069C904606460F46D5
:100B90001D4600F05FF900FB05F5A0FB082308FBEC
:100BA0000155B21A2B4467EB0303C4E90023BDE8E7
:100BB000F08100BF704700BF00292DE9F043C0F26B
:100BC000A6800026002BC0F29C80884694469E4654
:100BD000154604460F46002B3DD18A4259D9B2FA38
:100BE00082F33BB1C3F120029F4020FA02F29D4004
:100BF00017439C40290C220CB7FBF1FEA8B201FB65
:100C00001E7742EA074700FB0EF3BB420AD97F1961
:100C10000EF1FF3280F00581BB4240F20281AEF15D
:100C2000020E2F44FF1AA4B2B7FBF1F301FB1377B6
:100C300044EA074700FB03F0B84208D97F1903F1E3
:100C4000FF3280F0F080B84240F2ED80023B43EA90
:100C50000E43002203E08B420FD900221346341CBE
:100C600018BF012460424FF0000565EB4501584074
:100C7000514000196941BDE8F083B3FA83F2002ABC
:100C800040F086808B4202D3844500F2DB80012352
:100C9000E5E712B90123B3FBF2F5B5FA85F00028B8
:100CA0003BD1781B4FEA154E1FFA85FC0122B0FBA1
:100CB000FEF8210C0EFB180741EA07470CFB08F36E
:100CC000BB4207D97F1908F1FF3102D2BB4200F2C3
:100CD000BD808846FF1AA4B2B7FBFEF30EFB137764
:100CE00044EA07470CFB03FCBC4507D97F1903F115
:100CF000FF3102D2BC4500F2A7800B4643EA08430D
:100D0000ADE752426FEA060663EB43035DE74042FC
:100D100061EB41014FF0FF3654E7C0F1200224FAA5
:100D200002F107FA00F385404FEA154ED740194308
:100D3000B7FBFEF20B0C0EFB12771FFA85FC43EAA1
:100D400007430CFB02F79F4204FA00F407D95B1932
:100D500002F1FF3074D29F4272D9023A2B44DF1B5A
:100D600089B2B7FBFEF80EFB187341EA03430CFB94
:100D700008F79F4208D95B1908F1FF315CD29F4206
:100D80005AD9A8F102082B44D81B48EA02428EE740
:100D9000C2F120032CFA03F10EFA02FE20FA03F747
:100DA00041EA0E0E08FA02F028FA03F14FEA1E4556
:100DB0003843B1FBF5F8030C05FB18111FFA8EF749
:100DC00043EA014107FB08F38B420CFA02FC09D904
:100DD00011EB0E0108F1FF3930D28B422ED9A8F168
:100DE00002087144C91A80B2B1FBF5F305FB131177
:100DF00040EA014107FB03F78F4208D911EB0E01CE
:100E000003F1FF3016D28F4214D9023B714443EAFA
:100E10000843C91BA3FB0C89494509D305D000220F
:100E20001DE79646FEE6134611E794404445F6D288
:100E3000013BF4E70346EAE78846A5E7C846D1E761
:100E400002468CE713460AE7023B57E7A8F102087F
:100E50002F443FE72DE9F041002B44D18A4215464B
:100E600004464FD9B2FA82F70E464FB1C7F12003BC
:100E7000B94020FA03F602FA07F50E4300FA07F428
:100E80004FEA154E230CB6FBFEF0AFB20EFB10611D
:100E900043EA014307FB00F1994209D95B1900F1CC
:100EA000FF3280F0EC80994240F2E98002382B4416
:100EB0005A1AA4B2B2FBFEF30EFB132244EA02421A
:100EC00007FB03F7974208D9521903F1FF3180F06D
:100ED000D880974240F2D580023B43EA004000268A
:100EE0003146BDE8F0818B4247D8B3FA83F6002E35
:100EF00048D18B4202D3824200F2CD80012031469C
:100F0000BDE8F08112B90125B5FBF2F5B5FA85F817
:100F1000B8F1000F77D14A1B4FEA154EAFB2012648
:100F2000B2FBFEF0230C0EFB102143EA014107FB4C
:100F300000F38B4207D9491900F1FF3202D28B42EC
:100F400000F2BA801046C91AA4B2B1FBFEF30EFB40
:100F5000131144EA014407FB03F7A74208D96419B7
:100F600003F1FF3280F08F80A74240F28C80023B79
:100F700043EA00403146BDE8F08100263046314664
:100F8000BDE8F081C6F1200422FA04F5B3402B43FA
:100F900020FA04FC01FA06F721FA04F54FEA134E91
:100FA0004CEA0707B5FBFEF8390C0EFB18551FFA83
:100FB00083FC41EA05450CFB08F1A94202FA06F25E
:100FC00004D9ED1808F1FF3467D3A0466D1ABFB2FB
:100FD000B5FBFEF40EFB145547EA05410CFB04FC7F
:100FE0008C4504D9C91804F1FF355CD32C4644EA7A
:100FF0000844CCEB0101A4FB0223994248D344D01E
:10100000204600266CE7C8F1200401FA08F305FA2F
:1010100008F520FA04F7E1404FEA154E1F43B1FBF3
:10102000FEF63A0C0EFB16111FFA85FC42EA01434C
:101030000CFB06F29A4200FA08F407D95B1906F194
:10104000FF3137D29A4235D9023E2B449B1ABFB2A8
:10105000B3FBFEF00EFB103347EA03430CFB00F139
:10106000994207D95B1900F1FF3221D299421FD969
:1010700002382B445A1A40EA0646674650E71046A3
:1010800016E70B4629E7134672E7B0409042B7D205
:10109000601E002624E7304622E7A94295D9A8F130
:1010A00002081D4492E78C45A0D9023C19449EE7F2
:1010B0001046DFE70E46C9E70238294443E700BF80
:1010C00010B5102082B0012102F0C6FA0F210023D2
:1010D00002220091012407488DF8044069468DF8EA
:1010E00005208DF806308DF8073002F027FA02B09F
:1010F00010BD00BF0010024038B50546102005F0B5
:10110000F3F8044648B1680005F0EEF8206050B1ED
:101110006060A060E560204638BD0648064A074B7F
:10112000302105F087F80348034A054B332105F0C9
:1011300081F800BFE4C9010834CA0108F4C90108F4
:1011400004CA010870B5436809B38468C568A3423E
:10115000A3EB04042CBF641005EB64042C1BA24217
:1011600012DA002A0DDD066801EB420206EB4505A6
:1011700031F8024B1C800233AB4208BF3346914228
:10118000F6D14360002070BD4FF0FF3070BD0348C2
:10119000034A044B472105F04DF800BFE4C901089C
:1011A000D8C9010818CA010870B5836811B344682A
:1011B000A34219D9C568E41A05EB6404A24216DCFF
:1011C000002A0EDD0668C56801EB420206EB450504
:1011D0001C8821F8024B0233AB4208BF33469142D0
:1011E000F6D18360002070BDE41A6410E6E74FF08A
:1011F000FF3070BD0248034A034B642105F01AF822
:10120000E4C9010828CA010818CA01082DE9F04FED
:1012100089B002AF00F0C0F801214FF4805002F015
:101220001BFA4FF4006000F043FB4FF4006141F201
:10123000824000F04FFAADF5816D012000F0EEF82C
:10124000002000F0FDF8002000F00AF9002000F076
:1012500019F9012000F028F901F06AF8142004219E
:1012600000F0FEFF00200146414A424D01F06AF8BD
:10127000414942484FF400434FF4804200930B46EB
:1012800001F010FC02AC3D48012101F075FC002387
:10129000A21E3B607A6004F2FE3A98461E4646F66D
:1012A000605B20464FF4007100F06AF98146002827
:1012B000F7D108216961012000F0C2F8484600F02A
:1012C000E1F8D7F8049001E0D1450BD039F9022FAD
:1012D000002AB8BF52425A45F6DD012000F0D2F88C
:1012E000D145F3D1B8F1000F3CD14FF40071204645
:1012F00000F008FC00F0E6F8012829D0404600F094
:10130000AFF8002000F09CF86A691C4E22F0080239
:101310006A61304601F004FCF268642A11DD64223F
:10132000F2603260154B1E681549324607F108001D
:1013300005F0D8FA0020022107F1080201F002F8B6
:10134000AFE7002AEEDA0022F26032601646EBE7E1
:101350003B6801330A2B3B60D0DD002388F0010895
:101360003B60CBE73146204604F082FBBDE700BF7F
:1013700040CA010800100240000802404C660020EC
:1013800054CA0108034B1A8B824200D0704718469A
:1013900001F000BC4C66002070B51E4E82B00820E3
:1013A0000121002402F058F90125304669464FF426
:1013B000744300938DF804508DF805408DF8064075
:1013C0008DF8074002F0BAF830466946832300934F
:1013D0008DF804408DF805408DF8074002F0AEF816
:1013E0004FF480733046694600938DF804408DF8C1
:1013F00005408DF8075002F0A1F8694606480095AF
:101400008DF804408DF805408DF8074002F096F8FD
:1014100002B070BD000C024000000240074A0028E4
:10142000536903DD43F480535361704714BF83F461
:10143000805323F480535361704700BF000C024077
:10144000064A0028536903DD43F400535361704793
:10145000FAD123F400535361704700BF000C0240DF
:10146000074A0028536903DD43F480435361704702
:1014700014BF83F4804323F480435361704700BF5B
:10148000000C0240074A0028536903DD43F400437F
:101490005361704714BF83F4004323F40043536146
:1014A000704700BF000C0240054A536918B923F485
:1014B00080635361704743F480635361704700BF9A
:1014C000000C0240024B186900F00100704700BF99
:1014D000000002400C4B10B40C4C186001224FF479
:1014E00080510B4B013BFDD1520092B289B20F2AC1
:1014F000618303D811038BB22383F2E74FF4805347
:1015000019460122F8E700BF68660020000C02407F
:10151000414B4C0008B50120FFF7DCFF08B5022065
:10152000FFF7D8FF08B50320FFF7D4FF08B5042064
:10153000FFF7D0FF002103E00B4B5B584350043111
:101540000A480B4B42189A42F6D30A4A02E000239B
:1015500042F8043B084B9A42F9D300F003FC04F034
:101560009BFEFFF753FE70472CFF01080000002090
:10157000A8080020A808002010690020FEE700004D
:10158000024B0A4601461868FFF70EBE706600203F
:101590002DE9F04F4FF4807099B0012102F098F8D6
:1015A0000120014602F058F8454E464FDFF81CB1C5
:1015B0004FF480000121002402F04EF84FF006089D
:1015C000032301A940488DF8083001254FF0020A95
:1015D000CDF804804FF400698DF80B4001F0AEFFA8
:1015E00001F086FB30464FF0C0624FF0805303A9F4
:1015F000069205938DF820A003948DF81140CDF844
:101600001C908DF8105001F081FB304629462A4687
:10161000434601F0EBFB514652464346304601F04B
:10162000E5FB384601F086FDDFF8A4A0CDF8409038
:101630004FF4806C4FF4005E4FF400334FF480722F
:10164000384609A94FF4A078CDF83CC0CDF844E065
:101650001393129209940C940E9414941595169465
:101660001794CDF828B0CDF82CA0CDF8348001F037
:1016700033FE3046294601F0AFFC3046294601F0E2
:101680008FFC3846294601F07DFE2A46384618214F
:1016900001F094FE382368468DF800308DF8014043
:1016A0008DF802408DF8035001F0C2FA3046294609
:1016B00001F080FB304601F063FC19B0BDE8F08F0B
:1016C0000020014010640240000002404C20014014
:1016D0008466002030B5054685B008460C46FFF705
:1016E0000BFD1C4B186048B32046FFF705FD1A4B55
:1016F000186048B30120014601F0CCFF01A802F0B8
:101700008DF8002301A94FF08040ADF80430ADF80A
:101710000C30ADF80630029502F016F84FF080401C
:10172000202102F0B5F84FF08040012102F090F83E
:10173000FFF72EFFFFF7C4FC05B030BD0748084A8D
:10174000084B3A2104F076FD0448054A064B3C213B
:1017500004F070FD7C6600207066002074CA0108E9
:1017600068CA01088CCA0108A0CA010830B5444AF9
:1017700044485369444943F00103ADF5217D536169
:1017800001F056FE60B34149414B0A6801320A60DC
:1017900003F5A075ADF102040DF59F7033F8021C3E
:1017A00033F8042BA1F50041A2F50042AB4224F826
:1017B000021F20F8022FF1D1364B694618685022DB
:1017C000FFF7C0FC013050D0334B50A918685022AD
:1017D000FFF7B8FC01304DD02A482B4901F080FEBC
:1017E00028482E4901F024FE68B32D492D4B0A6884
:1017F00001320A6003F5A075ADF102040DF59F708A
:10180000B3F84011B3F842210433A1F50041A2F529
:101810000042AB4224F8021F20F8022FF0D11D4BEA
:10182000694618685022FFF78DFC013018D01A4B1A
:1018300050A918685022FFF785FC01300BD01148E1
:10184000164901F04DFE0E4A536923F0010353611E
:101850000DF5217D30BD144A136801331360EEE7A6
:10186000124A136801331360E1E7104A1368013329
:101870001360A9E70C4A136801331360ACE700BF9B
:101880000010024010640240104000106C660020FE
:10189000866600207C660020706600202080001094
:1018A0007866002084660020806600207466002030
:1018B0002DE9F04F854E864F864C99B005460021A4
:1018C0004FF42072304604F0A9FF4FF4207200213B
:1018D000384604F0A3FF2846FFF70EFC2060284698
:1018E000FFF70AFC7C4A23681060002B00F0E280BE
:1018F000002800F0E5804FF40010012101F0ACFE5B
:101900000120014601F0A8FE4FF000500121002403
:1019100001F0C0FE3022032303A9704803928DF822
:1019200010308DF8134001F009FE0121102001F064
:10193000B1FE09A801F072FF41F2824309A968488B
:101940000A93ADF82440ADF82C40ADF8264001F0E4
:10195000FBFE6348202101F09BFF0121604801F05C
:1019600077FF05A801F086FB042305A9204605930F
:1019700001930694089401F04BFB5A4801F0DAFBFE
:101980004FF4005311934FF4807301254FF4006C12
:101990004FF0606B09A9544A12934FF0400A4FF47C
:1019A00000334FF4A0794FF480684E48CDF840C022
:1019B000CDF800C013930B960A920E9414941694CB
:1019C0001794CDF824B0CDF830A0CDF83490CDF8F0
:1019D0003C80159501F080FC2A461821414801F011
:1019E000EDFC102602A88DF809408DF80A408DF80C
:1019F0000B508DF8086001F01BF92946394801F0B9
:101A0000C1FC2046294601F04BFB2946204601F047
:101A10006BFB05A801F02EFB019B059305A9304641
:101A20000694089401F0F4FA304801F083FB4FF477
:101A3000005211924FF48072DDF800C02C4B1292CC
:101A400009A94FF400322948CDF840C00A931392F7
:101A5000CDF824B0CDF830A0CDF834900E94CDF868
:101A60003C8014941595169417940B9701F034FC50
:101A70002A4618211D4801F0A1FC112302A88DF867
:101A800008308DF809408DF80A408DF80B5001F0B0
:101A9000CFF82946154801F075FC3046294601F07B
:101AA000FFFA3046294601F01FFBFFF709FB19B08A
:101AB000BDE8F08F0F48104A104B4A2104F0BAFBE2
:101AC0000C480D4A0E4B4B2104F0B4FBC408002017
:101AD000440B0020C80D0020C40D0020000002406F
:101AE000001000408860024008740040A06002407E
:101AF00014740040C0CA0108B4CA0108D8CA010859
:101B0000ECCA0108024B0A4601461868FFF71ABBE7
:101B1000C80D002000B53F4A3F4853693F4943F094
:101B20000203D1B0536101F083FC002834D13A485C
:101B30003B4901F07DFC38B9364A536923F0020372
:101B4000536151B05DF804FB364B69461868A0221A
:101B5000FFF72AFB013047D03349DFED346A9FEDB0
:101B6000347AADF102020DF59F7032F9023F07EEB3
:101B7000903AF8EEE77AB0EE476AA7EEA66A82429C
:101B8000FDEEC67A17EE903A21F8023FEDD12248D9
:101B9000234901F0A5FCCFE7224B69461868A02233
:101BA000FFF702FB01302AD0224ADFED206A9FEDC9
:101BB000207A02F5A070ADF1020131F9023F07EE83
:101BC000903AF8EEE77AB0EE476AA7EEA66AFDEE25
:101BD000C67A17EE903A22F8023F8242EDD10E48C3
:101BE0000E4901F07DFCA2E74FF4A0726846002187
:101BF00004F014FE104A136801331360ACE74FF48D
:101C0000A0726846002104F009FE0B4A13680133F4
:101C10001360C9E7001002408860024000440020C1
:101C200000880020C80D0020020A002000C0633D8B
:101C300000E0FF44C20800200469002000B53F4ACC
:101C40003F4853693F4943F00403D1B0536101F069
:101C5000EFFB002834D13A483B4901F0E9FB38B9A1
:101C6000364A536923F00403536151B05DF804FB15
:101C7000364B69461868A022FFF796FA013047D024
:101C80003349DFED346A9FED347AADF102020DF590
:101C90009F7032F9023F07EE903AF8EEE77AB0EE25
:101CA000476AA7EEA66A8242FDEEC67A17EE903A20
:101CB00021F8023FEDD12248234901F011FCCFE782
:101CC000224B69461868A022FFF76EFA01302AD02D
:101CD000224ADFED206A9FED207A02F5A070ADF177
:101CE000020131F9023F07EE903AF8EEE77AB0EEE2
:101CF000476AA7EEA66AFDEEC67A17EE903A22F87A
:101D0000023F8242EDD10E480E4901F0E9FBA2E705
:101D10004FF4A0726846002104F080FD104A136859
:101D200001331360ACE74FF4A0726846002104F061
:101D300075FD0B4A136801331360C9E700100240B8
:101D4000A06002400040102000802020C40D002030
:101D5000820C002000C0633D00E0FF44420B0020E5
:101D60000469002039493A4BD1F88820394842F4B7
:101D70007002C1F888201A68002142F001021A603E
:101D800099601A6822F0847222F480321A605860D6
:101D90001A6882B022F480221A60D9600091019101
:101DA0001A6842F480321A601A4603E0009BB3F5C9
:101DB000A04F09D0136803F400330193009B013353
:101DC0000093019B002BF1D0214B1B6813F40033CF
:101DD00018BF01230193019B012B05D01B4B4FF032
:101DE00000629A6002B07047194B1B491A6C1B487D
:101DF00042F080521A640A6842F440420A609A68CB
:101E00009A609A6842F400429A609A6842F4A0523A
:101E10009A6058601A6842F080721A601A46116817
:101E20000B4B8901FBD50E4A40F2056111609A689F
:101E300022F003029A609A6842F002029A601A46FF
:101E4000936803F00C03082BFAD1C7E700ED00E01C
:101E50000038024010300024007000400854400751
:101E6000003C024080B483B000AF03463960FB7190
:101E700097F90730002B0BDA0D49FB7903F00F03BC
:101E8000043B3A68D2B21201D2B20B441A7609E08E
:101E9000084997F907303A68D2B21201D2B20B441E
:101EA00083F800230C37BD465DF8047B704700BF04
:101EB00000ED00E000E100E080B582B000AF7860A6
:101EC0007B68013BB3F1807F01D301230FE00A4A15
:101ED0007B68013B53604FF0FF300F21FFF7C2FFDB
:101EE000054B00229A60044B07221A600023184613
:101EF0000837BD4680BD00BF10E000E080B582B06D
:101F000000AF374B1B680133354A1360354B1B68F4
:101F1000002B04D0334B1B68013B324A1360AFF3F4
:101F200000800023FB7152E0FB792F4A9B00134491
:101F30005B68002B48D0FB792B4A9B0013445B68FD
:101F40001B7B002B40D0FB79274A9B0013445B6826
:101F50009B68002B38D0FB79234A9B0013445B68B5
:101F60009A68013A9A60FB791F4A9B0013445B68A8
:101F70009B68002B28D1FB791B4A9B0013445B68AC
:101F80001A69FB7918499B000B445B685B6918462A
:101F90009047FB79144A9B0013445A68FB79124915
:101FA0009B000B445B681B689360FB790E4A9B00A7
:101FB00013445B685B68002B06D1FB790A4A9B00DF
:101FC00013445B6800221A73FB790133FB71064BE3
:101FD0001B78FA799A42A7D30837BD4680BD00BF67
:101FE000CC0D0020D00D0020D80D002080B500AF12
:101FF0000C4B1B680C4AA2FB03239B091846FFF7F6
:102000005BFF0346002B00D0FEE7064B1B689B09D5
:10201000064AA2FB03239B0A054A1360054B0122D3
:102020001A7080BD00000020D34D62101791650228
:1020300008690020D40D002090B585B002AF78600B
:10204000084611461A4603467B800B467B701346B2
:102050003B707B88002B00D10DE0786800F038F8E9
:1020600079887A783C783B7E00933B7F019378684F
:10207000234600F043F80C37BD4690BD80B485B0D0
:1020800000AF0346FB800023FB8105E0FB890133A1
:10209000FB81FB885B08FB80FB88012BF6D8FB8962
:1020A00018461437BD465DF8047B704780B483B092
:1020B00000AF78607B6803F13F4303F57E039B0A22
:1020C0009BB218460C37BD465DF8047B704700BFD5
:1020D00080B582B000AF78607868FFF7E7FF03460D
:1020E0001A46012303FA02F1034A034B1B6B0B430D
:1020F00013630837BD4680BD0038024080B584B008
:1021000000AF7860084611461A4603467B800B46AE
:102110007B7013463B707868FFF7C8FF0346BB73BC
:102120000023FB7367E07A88FB7B42FA03F303F03A
:102130000103002B00D15BE0BB7BBA7B314931F856
:10214000122090B2FA7B012101FA02F292B201460A
:102150000A4392B291B22B4A22F813107B68DB68D3
:10216000FA7B5200032101FA02F2D2431340397E76
:10217000FA7B520001FA02F21A437B68DA607B684C
:102180001A68FB7B5B00032101FA03F3DB43134076
:102190007978FA7B520001FA02F21A437B681A60DE
:1021A0007B78012B02D07B78022B21D17B685B6886
:1021B000FA7B012101FA02F292B2D243134039783C
:1021C000FA7B01FA02F292B21A437B685A607B688A
:1021D0009A68FB7B5B00032101FA03F3DB431340A6
:1021E000397FFA7B520001FA02F21A437B689A6047
:1021F000FB7B0133FB73FB7B0F2B94D91037BD4660
:1022000080BD00BFF00D002080B485B000AF7860C5
:102210000F4B1A687B6802FB03F3FB600D4B1B68D6
:102220000D4A934204D00B4B1B680C4A934204D1D5
:10223000074B1B68FA68D31AFB6000BFFB685A1E85
:10224000FA60002BFAD11437BD465DF8047B704765
:1022500008690020000000200095BA0A00E1F50599
:1022600080B582B000AF03460A46FB711346BB71CE
:10227000FFF7BCFE00F082F94AF6C870FFF7C4FF12
:102280002A4ABB79D370294AFB791371274B002264
:102290005A71264B00229A71244B00225A70BB7946
:1022A000012B06D9214B5B7843F00803DAB21F4BB0
:1022B0005A70032000F0EAF841F29410FFF7A4FFEF
:1022C000032000F0E3F841F29410FFF79DFF032094
:1022D00000F0DCF841F29410FFF796FF022000F0C6
:1022E000D5F86420FFF790FF104B5B7843F0200394
:1022F000DBB2184600F096F80C4B04221A7000F07E
:102300007DF800F015F8094B02229A70074B9B7874
:1023100043F00403DBB2184600F084F841F2941055
:10232000FFF772FF0837BD4680BD00BF080E0020D2
:1023300080B500AF012000F075F840F6B830FFF727
:1023400063FF80BD80B582B000AF03463A60FB7189
:102350000B46BB71FA79BB791046194600F0DCF8E0
:1023600042E0254B5A79244B1B799A4210D3224BD9
:1023700000225A71204B9B790133DAB21E4B9A71BD
:102380001D4B5A791C4B9B791046194600F0C4F836
:102390003B681B780A2B0ED1174B9B790133DAB2BD
:1023A000154B9A71144B5A79134B9B791046194669
:1023B00000F0B2F815E03B681B780D2B06D10E4BF0
:1023C0009B790020194600F0A7F80AE03B681B78CB
:1023D000184600F041F8084B5B790133DAB2064B3E
:1023E0005A713B6801333B603B681B78002BB8D1C6
:1023F0000837BD4680BD00BF080E002080B500AF85
:10240000074B1B7843F00403DAB2054B1A70044BF8
:102410001B7843F00803DBB2184600F003F880BDD8
:10242000080E002080B582B000AF0346FB71094B57
:1024300020225A83FB791B09DBB2184600F026F8EC
:10244000FB7903F00F03DBB2184600F01FF80837E2
:10245000BD4680BD0010024080B582B000AF03468B
:10246000FB71094B20221A83FB791B09DBB218464A
:1024700000F00CF8FB7903F00F03DBB2184600F014
:1024800005F80837BD4680BD0010024080B582B017
:1024900000AF0346FB71FB7903F00803002B03D068
:1024A0001C4B08221A8302E01A4B08225A83FB793C
:1024B00003F00403002B03D0164B04221A8302E01E
:1024C000144B04225A83FB7903F00203002B03D040
:1024D000104B02221A8302E00E4B02225A83FB7930
:1024E00003F00103002B03D00A4B01221A8302E000
:1024F000084B01225A83074B10221A831420FFF73E
:1025000083FE044B10225A831420FFF77DFE083708
:10251000BD4680BD0010024080B584B000AF0346C8
:102520000A46FB711346BB71124A07F10C0310688F
:102530001860114BDB78BA799A4201D30023BB7142
:102540000D4AFB7953710C4ABB799371BB7907F142
:102550001002134413F8042CFB791344DBB2DBB2F2
:1025600063F07F03DBB2DBB21846FFF75BFF103787
:10257000BD4680BDD4C90108080E002080B582B0D8
:1025800002AF00230093002301932648202101225B
:102590000023FFF751FD00230093002301932148FE
:1025A000102101220023FFF747FD002300930023A1
:1025B00001931C48012101220023FFF73DFD002368
:1025C0000093002301931748022101220023FFF703
:1025D00033FD0023009300230193124804210122BC
:1025E0000023FFF729FD00230093002301930D48EA
:1025F000082101220023FFF71FFD0A4B20225A83E6
:10260000084B10225A83074B01225A83054B0222A2
:102610005A83044B04225A83024B08225A83BD4634
:1026200080BD00BF0010024090B589B002AF786055
:102630000B467B8013467B707B88002B05D07A8805
:102640007B88013B1340002B22D000237B751AE0CE
:102650007A887B7D42FA03F303F00103002B0FD04D
:102660007B7D012202FA03F39AB27B7878681146E7
:102670001A46FFF7D9FF0346002B01D001230DE1D5
:102680007B7D01337B757B7D0F2BE1D9002305E139
:10269000844B1A687B881340002B05D1814B5A6804
:1026A0007B881340002B01D00123F7E07B88802B2F
:1026B00043D0802B11DC082B39D0082B06DC022BF1
:1026C0002FD0042B30D0012B28D03CE0202B34D04D
:1026D000402B32D0102B2DD035E0B3F5006F2FD02A
:1026E000B3F5006F09DCB3F5007F26D0B3F5806F3A
:1026F00026D0B3F5807F20D025E0B3F5005F1FD052
:10270000B3F5005F03DCB3F5805F19D01BE0B3F5D0
:10271000804F15D0B3F5004F12D014E00623BB75DF
:1027200013E00723BB7510E00823BB750DE00923F8
:10273000BB750AE00A23BB7507E01723BB7504E0ED
:102740002823BB7501E00123A8E07B78012B02D18F
:102750000123FB7507E07B78002B02D10223FB7578
:1027600001E00023FB757A88FB7D00930023019331
:102770007868114600220023FFF75EFC7B8818462C
:10278000FFF77CFC03463B757868FFF78FFC034638
:10279000FB74454A444B5B6C43F4804353644349A8
:1027A0003B7D9B08DBB21C46404A3B7D9B08DBB26D
:1027B000023352F823303A7D02F0030292000F20D8
:1027C00000FA02F2D2431A40A31C41F823203748F2
:1027D0003B7D9B08DBB21C46344A3B7D9B08DBB249
:1027E000023352F82330F97C3A7D02F00302920062
:1027F00001FA02F21A43A31C40F823202949294B6D
:102800001B687A88D24313400B602649254B5B68CE
:102810007A88D24313404B602249224B1A687B8846
:1028200013430B601F491F4BDB687A88D243134068
:10283000CB601C491B4B9B687A88D24313408B604A
:102840007B78012B06D11749164BDA687B88134336
:10285000CB6015E07B78002B06D11249114B9A68AA
:102860007B8813438B600BE00E490E4BDA687B8844
:102870001343CB600B490B4B9A687B8813438B60E7
:10288000BB7D3B730A237B733B7DBB730123FB73CF
:1028900007F10C03184600F0CBF9002318461C374B
:1028A000BD4690BD003C0140003802400038014068
:1028B00080B500AF064B5B6903F00103002B05D028
:1028C000034B01225A610120FEF75CFD80BD00BF71
:1028D000003C014080B500AF064B5B6903F002038A
:1028E000002B05D0034B02225A610220FEF74AFD5D
:1028F00080BD00BF003C014080B500AF064B5B6966
:1029000003F00403002B05D0034B04225A6104207A
:10291000FEF738FD80BD00BF003C014080B500AF30
:10292000064B5B6903F00803002B05D0034B08221C
:102930005A610820FEF726FD80BD00BF003C014023
:1029400080B500AF064B5B6903F01003002B05D088
:10295000034B10225A611020FEF714FD80BD00BF0A
:10296000003C014080B500AF204B5B6903F02003C1
:10297000002B05D01D4B20225A612020FEF702FDBE
:102980001A4B5B6903F04003002B05D0174B402224
:102990005A614020FEF7F6FC144B5B6903F080039C
:1029A000002B05D0114B80225A618020FEF7EAFCF3
:1029B0000E4B5B6903F48073002B07D00B4B4FF475
:1029C00080725A614FF48070FEF7DCFC074B5B6944
:1029D00003F40073002B07D0044B4FF400725A61CC
:1029E0004FF40070FEF7CEFC80BD00BF003C0140FC
:1029F00080B500AF2A4B5B6903F48063002B07D0DE
:102A0000274B4FF480625A614FF48060FEF7BAFCA6
:102A1000234B5B6903F40063002B07D0204B4FF47A
:102A200000625A614FF40060FEF7ACFC1C4B5B691E
:102A300003F48053002B07D0194B4FF480525A6196
:102A40004FF48050FEF79EFC154B5B6903F4005376
:102A5000002B07D0124B4FF400525A614FF4005034
:102A6000FEF790FC0E4B5B6903F48043002B07D00C
:102A70000B4B4FF480425A614FF48040FEF782FCCA
:102A8000074B5B6903F40043002B07D0044B4FF462
:102A900000425A614FF40040FEF774FC80BD00BF55
:102AA000003C014080B586B002AFF860B9603B6081
:102AB0001346FB80FB68BA681A61FB683A685A6182
:102AC000FB68FA881A83FB683A8B5A83FB681A6999
:102AD000FB681B8B104619460222FFF7A5FDFB6819
:102AE0005969FB685A8B0123009300230193084620
:102AF000114600220023FFF79FFAFB6800225A725A
:102B0000FB680022DA60FB6800225A60FB68002242
:102B10001A60FB6801229A721037BD4680BD00BF63
:102B200080B483B000AF78607B68DA687B681B682C
:102B3000D21A7B685A607B68DA687B681A607B68A7
:102B4000DB68002B04DA7B6801221A7201230CE097
:102B50007B68DB68002B04DD7B6800221A7200238F
:102B600003E07B6802221A72022318460C37BD4626
:102B70005DF8047B704700BF80B483B000AF78601D
:102B80000B46FB707B68FA785A720C37BD465DF8CD
:102B9000047B704780B485B000AF78607B681B69A8
:102BA0001B697A68128B1340002B14BF012300238A
:102BB000DBB2FB737B685B691B697A68528B1340DD
:102BC000002B14BF01230023DBB2BB737B689B7A0D
:102BD000FA7B9A4227D07B68FA7B9A727B689B7A51
:102BE000002B20D17B685B7A002B0ED1BB7B012BA5
:102BF00005D17B68DB685A1E7B68DA6013E07B686E
:102C0000DB685A1C7B68DA600DE0BB7B012B05D1C9
:102C10007B68DB685A1C7B68DA6004E07B68DB68F1
:102C20005A1E7B68DA601437BD465DF8047B704736
:102C300080B485B000AF78600023FB730023BB73C2
:102C40000F237B737B68DB78002B38D0264BDB6847
:102C5000DB4303F4E0631B0AFB73FB7BC3F1040358
:102C6000BB737A7BFB7B42FA03F37B737B685B78F5
:102C70001A46BB7B02FA03F3FB737B689A787B7B73
:102C80001340DAB2FB7B1343FB73FB7B1B01FB732B
:102C9000164A7B681B781344FA7B83F80023134A97
:102CA0007B681B785B09DBB218467B681B7803F0F6
:102CB0001F03012101FA03F342F820300FE00B4912
:102CC0007B681B785B09DBB218467B681B7803F0D6
:102CD0001F0301229A4000F1200341F823201437FA
:102CE000BD465DF8047B704700ED00E000E100E0C8
:102CF00080B500AF4FF48070012100F007FD4FF464
:102D00008070002100F002FD80BD00BF80B485B05E
:102D100000AF786039600023FB600023FB727B68A2
:102D20005B68FB60FB6823F0407323F48073FB60F7
:102D30003B681B791A023B681B681343FA6813430C
:102D4000FB607B68FA685A607B689B68FB60FA6886
:102D5000174B1340FB603B681A693B68DB681A43FA
:102D60003B689B681A433B685B795B001343FA68D6
:102D70001343FB607B68FA689A607B68DB6AFB60E0
:102D8000FB6823F47003FB603B681B7D013BDAB2F8
:102D9000FB7A1343FB72FB7A1B05FA681343FB6053
:102DA0007B68FA68DA621437BD465DF8047B7047C9
:102DB000FDF7FFC080B483B000AF78600B46FB70B6
:102DC000FB78002B06D07B689B6843F001027B6890
:102DD0009A6005E07B689B6823F001027B689A603B
:102DE0000C37BD465DF8047B704700BF80B485B0EA
:102DF00000AF7860084611461A460346FB700B4642
:102E0000BB7013467B700023FB600023BB60FB7824
:102E1000092B23D97B68DB68FB60FB78A3F10A02EE
:102E200013465B001344072202FA03F3BB60BB683E
:102E3000DB43FA681340FB607978FB78A3F10A0260
:102E400013465B00134401FA03F3BB60FA68BB68E6
:102E50001343FB607B68FA68DA601EE07B681B69DD
:102E6000FB60FA7813465B001344072202FA03F36F
:102E7000BB60BB68DB43FA681340FB607978FA7883
:102E800013465B00134401FA03F3BB60FA68BB68A6
:102E90001343FB607B68FA681A61BB78062B21D864
:102EA0007B685B6BFB60BB785A1E13469B00134428
:102EB0001F2202FA03F3BB60BB68DB43FA681340CE
:102EC000FB60F978BB785A1E13469B00134401FA45
:102ED00003F3BB60FA68BB681343FB607B68FA6866
:102EE0005A6347E0BB780C2B21D87B681B6BFB60D7
:102EF000BB78DA1F13469B0013441F2202FA03F328
:102F0000BB60BB68DB43FA681340FB60F978BB78B1
:102F1000DA1F13469B00134401FA03F3BB60FA68FF
:102F2000BB681343FB607B68FA681A6322E07B6826
:102F3000DB6AFB60BB78A3F10D0213469B001344D0
:102F40001F2202FA03F3BB60BB68DB43FA6813403D
:102F5000FB60F978BB78A3F10D0213469B00134484
:102F600001FA03F3BB60FA68BB681343FB607B683C
:102F7000FA68DA621437BD465DF8047B704700BF1B
:102F800080B483B000AF78607B689B6843F0804278
:102F90007B689A600C37BD465DF8047B704700BFC4
:102FA00080B483B000AF78600B46FB70FB78002BD9
:102FB00006D07B689B6843F480727B689A6005E06A
:102FC0007B689B6823F480727B689A600C37BD46EF
:102FD0005DF8047B704700BF80B483B000AF7860B9
:102FE0000B46FB70FB78002B06D07B689B6843F494
:102FF00000727B689A6005E07B689B6823F400722E
:103000007B689A600C37BD465DF8047B704700BF53
:1030100080B485B000AF786039600023FB60002386
:10302000BB60134B1B68FB607B6840F6FE7202FAC4
:1030300003F3DB43FA681340FB603B681A683B68A4
:103040005B681A433B689B681A433B68DB68134321
:10305000BB607B68BA6802FA03F3FA681343FB604B
:10306000034AFB6813601437BD465DF8047B704764
:103070000074004080B483B000AF78607B680022A9
:103080001A607B6800225A607B6800229A607B6825
:103090000022DA600C37BD465DF8047B704700BF44
:1030A00080B483B000AF78600B46FB70FB78002BD8
:1030B00009D00C490B4B1A687B68012000FA03F316
:1030C00013430B6009E00749064B1A687B6801202F
:1030D00000FA03F3DB4313400B600C37BD465DF889
:1030E000047B70470074004080B483B000AF786008
:1030F0000B46FB70FB78002B0AD00D490C4B1A686D
:103100007B684FF4805000FA03F313430B600AE02E
:103110000749074B1A687B684FF4805000FA03F3A5
:10312000DB4313400B600C37BD465DF8047B7047F2
:103130000074004080B483B000AF78607B681B6887
:1031400023F001027B681A607B6800221A607B68AA
:1031500000225A607B6800229A607B680022DA6055
:103160007B6800221A617B6821225A617B68454A8C
:10317000934203D1444B3D229A607EE07B68434AF0
:10318000934204D1404B4FF474629A6075E07B68BF
:103190003F4A934204D13C4B4FF474129A606CE066
:1031A0007B683C4A934204D1374B4FF074629A607B
:1031B00063E07B68384A934203D1334B374ADA6085
:1031C0005BE07B68364A934203D12F4B354ADA6085
:1031D00053E07B68344A934203D12B4B334ADA6085
:1031E0004BE07B68324A934204D1274B4FF03D526B
:1031F000DA6042E07B682F4A934203D12E4B3D2296
:103200009A603AE07B682D4A934204D12A4B4FF4EE
:1032100074629A6031E07B68294A934204D1264B5C
:103220004FF474129A6028E07B68264A934204D1D6
:10323000214B4FF074629A601FE07B68224A9342F0
:1032400003D11D4B154ADA6017E07B681F4A934291
:1032500003D1194B134ADA600FE07B681C4A934292
:1032600003D1154B114ADA6007E07B68194A934293
:1032700003D1114B4FF03D52DA600C37BD465DF87B
:10328000047B7047106002400060024028600240EA
:103290004060024058600240706002403D000020E3
:1032A00088600240400F0020A060024000003D20E6
:1032B000B86002401064024000640240286402408A
:1032C00040640240586402407064024088640240D6
:1032D000A0640240B864024080B485B000AF78605A
:1032E00039600023FB607B681B68FB60FA68244B35
:1032F0001340FB603B681A683B68DB681A433B6815
:103300005B691A433B689B691A433B68DB691A4354
:103310003B681B6A1A433B685B6A1A433B689B6ABB
:103320001A433B685B6B1A433B689B6B1343FA6819
:103330001343FB607B68FA681A607B685B69FB601B
:10334000FB6823F00703FB603B68DA6A3B681B6B92
:103350001343FA681343FB607B68FA685A613B6861
:103360001A697B685A603B685A687B689A603B6858
:103370009A687B68DA601437BD465DF8047B704755
:103380003F801CF080B483B000AF78600B46FB70C8
:10339000FB78002B06D07B681B6843F001027B683A
:1033A0001A6005E07B681B6823F001027B681A60E5
:1033B0000C37BD465DF8047B704700BF80B485B014
:1033C00000AFF860B9601346FB71BB6803F080037F
:1033D000002B0FD0FB79002B06D0FB685B6943F014
:1033E0008002FB685A6105E0FB685B6923F080029C
:1033F000FB685A61BB68802B14D0FB79002B08D086
:10340000FB681A68BB6803F01E031A43FB681A6066
:1034100008E0FB681A68BB6803F01E03DB431A4030
:10342000FB681A601437BD465DF8047B704700BF27
:1034300080B487B000AF786039600023FB7500234B
:10344000FB600023BB607B68224A934202D8224B78
:103450003B6101E0214B3B613B6823F0F02323F00B
:10346000C313002B0AD03B68DB0A03F01E03FB608A
:103470007B681A68FB681340BB6004E07B685B698B
:1034800003F08003BB603B6803F00053002B03D0C4
:103490003B695B68FB6002E03B691B68FB60FB68A3
:1034A00023F0F02323F08213FB60FA683B6813409B
:1034B000002B05D0BB68002B02D00123FB7501E077
:1034C0000023FB75FB7D18461C37BD465DF8047B69
:1034D000704700BF0F640240006002400064024079
:1034E00080B485B000AF786039607B68104A934241
:1034F00002D8104BFB6001E00F4BFB603B6803F010
:103500000053002B07D03B6823F0F02323F08213F5
:10351000FA68D36006E03B6823F0F02323F08213BF
:10352000FA6893601437BD465DF8047B704700BFAE
:103530000F640240006002400064024080B487B023
:1035400000AF7860396000237B6100233B6100237A
:10355000FB6000237B6176E07B69012202FA03F3C2
:103560003B613B681A683B691340FB60FA683B6942
:103570009A4265D17B681A687B695B001946032310
:103580008B40DB431A407B681A607B681A683B6893
:103590001B7919467B695B0001FA03F31A437B68C8
:1035A0001A603B681B79012B03D03B681B79022B07
:1035B0002ED17B689A687B695B00194603238B4098
:1035C000DB431A407B689A607B689A683B685B794A
:1035D00019467B695B0001FA03F31A437B689A6022
:1035E0007B685A687B699BB2194601238B40DB4399
:1035F0001A407B685A607B685B683A68927911462A
:103600007A6992B201FA02F292B21A437B685A6066
:103610007B68DA687B699BB25B00032101FA03F3E4
:10362000DB431A407B68DA607B68DA683B68DB79E9
:1036300019467B695B0001FA03F31A437B68DA6081
:103640007B6901337B617B690F2B85D91C37BD46B4
:103650005DF8047B704700BF80B483B000AF786032
:103660000B46FB70FB78002B06D00949084B1A6B00
:103670007B6813430B6306E00549054B1A6B7B68B7
:10368000DB4313400B630C37BD465DF8047B70478A
:103690000038024080B483B000AF78600B46FB7006
:1036A000FB78002B06D00949084B1A6C7B68134342
:1036B0000B6406E00549054B1A6C7B68DB4313403D
:1036C0000B640C37BD465DF8047B70470038024040
:1036D00080B483B000AF78600B46FB70FB78002BA2
:1036E00006D00949084B5A6C7B6813434B6406E0CB
:1036F0000549054B5A6C7B68DB4313404B640C3720
:10370000BD465DF8047B70470038024080B483B04A
:1037100000AF78600B46FB70FB78002B06D00949A0
:10372000084B5A6A7B6813434B6206E00549054B18
:103730005A6A7B68DB4313404B620C37BD465DF829
:10374000047B70470038024080B485B000AF7860D9
:1037500039600023FB817B681B88FB817B68284ADA
:10376000934213D07B68274A93420FD07B68B3F112
:10377000804F0BD07B68244A934207D07B68234A52
:10378000934203D07B68224A934208D1FB8923F0FD
:103790007003FB813B685A88FB891343FB817B687C
:1037A0001C4A93420CD07B681B4A934208D0FB8989
:1037B00023F44073FB813B681A89FB891343FB8127
:1037C0007B68FA891A803B685A687B68DA623B68D2
:1037D0001A887B681A857B68094A934203D07B6804
:1037E000084A934204D13B689B7A9AB27B681A8656
:1037F0007B6801229A821437BD465DF8047B7047CE
:1038000000000140000401400004004000080040A6
:10381000000C0040001000400014004080B483B051
:1038200000AF78607B684FF0FF325A607B680022FF
:103830001A807B6800221A817B6800225A807B688C
:1038400000229A720C37BD465DF8047B704700BFBA
:1038500080B483B000AF78600B46FB70FB78002B20
:1038600008D07B681B889BB243F001039AB27B6847
:103870001A8007E07B681B889BB223F001039AB291
:103880007B681A800C37BD465DF8047B704700BF2B
:1038900080B483B000AF78600B467B807B689B88E8
:1038A0009BB223F070039AB27B689A807B689B88F6
:1038B0009AB27B8813439AB27B689A800C37BD46D4
:1038C0005DF8047B704700BF80B5A0B000AF7860A2
:1038D00039607B681B88BB66BB6E9B003A681344EB
:1038E0007B677B685B683B673B687B667B6F3B669F
:1038F000BB6E5B08BB66BB6E9B003A681344FB67FC
:10390000BB6E9B007A6F1344BB67BB6E9B08FB6664
:10391000B6E13B681B68BB633B685B68FB633B6865
:103920009B683B643B68DB687B647B6F1B68BB62A6
:103930007B6F5B68FB627B6F9B683B637B6FDB68C5
:103940007B63FB6F1B68BB61FB6F5B68FB61FB6F9D
:103950009B683B62FB6FDB687B62BB6F1B68BB6075
:10396000BB6F5B68FB60BB6F9B683B61BB6FDB68D9
:103970007B613B681A1D3A6097ED0E7AD7ED0A7AA3
:1039800077EE277AC3ED007A3B681A1D3A6097ED0F
:103990000F7AD7ED0B7A77EE277AC3ED007A3B6882
:1039A0001A1D3A6097ED107AD7ED0C7A77EE277AE8
:1039B000C3ED007A3B681A1D3A6097ED117AD7ED96
:1039C0000D7A77EE277AC3ED007A97ED0E7AD7ED70
:1039D0000A7A77EE677AC7ED0A7A97ED0F7AD7ED14
:1039E0000B7A77EE677AC7ED0B7A97ED107AD7ED01
:1039F0000C7A77EE677AC7ED0C7A97ED117AD7EDEE
:103A00000D7A77EE677AC7ED0D7AFB6F1A1DFA67AC
:103A100097ED067AD7ED027A77EE277AC3ED007A32
:103A2000FB6F1A1DFA6797ED077AD7ED037A77EEE9
:103A3000277AC3ED007AFB6F1A1DFA6797ED087AB3
:103A4000D7ED047A77EE277AC3ED007AFB6F1A1D63
:103A5000FA6797ED097AD7ED057A77EE277AC3ED05
:103A6000007A97ED027AD7ED067A77EE677AC7ED9E
:103A7000027A97ED037AD7ED077A77EE677AC7ED8A
:103A8000037A97ED047AD7ED087A77EE677AC7ED77
:103A9000047A97ED057AD7ED097A77EE677AC7ED64
:103AA000057A3B6F1A1D3A671B68FB653B6F1A1D51
:103AB0003A671B68BB6597ED0A7AD7ED177A67EE10
:103AC000277AC7ED157A97ED0B7AD7ED167A67EE60
:103AD000277AC7ED147A97ED0B7AD7ED177A67EE50
:103AE000277AC7ED137A97ED0A7AD7ED167A67EE43
:103AF000277AC7ED127A7B6F1A1D7A6797ED157AD0
:103B0000D7ED147A77EE277AC3ED007A7B6F1A1D12
:103B10007A6797ED137AD7ED127A77EE677AC3ED6D
:103B2000007A97ED027AD7ED167A67EE277AC7ED1D
:103B3000157A97ED037AD7ED177A67EE277AC7EDF6
:103B4000147A97ED037AD7ED167A67EE277AC7EDE8
:103B5000137A97ED027AD7ED177A67EE277AC7EDD9
:103B6000127ABB6F1A1DBA6797ED157AD7ED147AE2
:103B700077EE677AC3ED007ABB6F1A1DBA6797EDCF
:103B8000137AD7ED127A77EE277AC3ED007A3B6F7E
:103B90001A1D3A671B68FB653B6F1A1D3A671B6865
:103BA000BB6597ED0C7AD7ED177A67EE277AC7EDEC
:103BB000157A97ED0D7AD7ED167A67EE277AC7ED6D
:103BC000147A97ED0D7AD7ED177A67EE277AC7ED5D
:103BD000137A97ED0C7AD7ED167A67EE277AC7ED50
:103BE000127A7B6F1A1D7A6797ED157AD7ED147AE2
:103BF00077EE277AC3ED007A7B6F1A1D7A6797ED0F
:103C0000137AD7ED127A77EE677AC3ED007A97EDE3
:103C1000047AD7ED167A67EE277AC7ED157A97ED15
:103C2000057AD7ED177A67EE277AC7ED147A97ED04
:103C3000057AD7ED167A67EE277AC7ED137A97EDF6
:103C4000047AD7ED177A67EE277AC7ED127ABB6F41
:103C50001A1DBA6797ED157AD7ED147A77EE677A61
:103C6000C3ED007ABB6F1A1DBA6797ED137AD7EDD3
:103C7000127A77EE277AC3ED007AFB6E013BFB6682
:103C8000FB6E002B7FF445AEBB6E9AB27B685B681F
:103C9000786E11461A46022300F0E6FEBB6E9AB219
:103CA0007B685B68386E11461A46022300F0DCFE22
:103CB0008037BD4680BD00BF80B5ACB000AF786036
:103CC00039607B681B885B089BB2C7F88030D7F8E7
:103CD00080309B003A681344C7F89030D7F88030A2
:103CE0009B00D7F890201344C7F88C30D7F8803069
:103CF0009B00D7F88C201344C7F888303B68FB67DB
:103D0000D7F89030BB67D7F88C307B67D7F888300E
:103D10003B67D7F89030043BC7F8AC30D7F88C300D
:103D2000043BC7F8A830D7F88830043BC7F8A43064
:103D3000D7F880309B00D7F8A4201344C7F8A030F0
:103D40007B685B68C7F89430D7F89430C7F8983030
:103D5000D7F89830C7F89C30D7F880305B08C7F8A0
:103D600080300223FB660423BB6606237B663B6828
:103D700093ED007AD7F88C30D3ED007A77EE277A7E
:103D8000C7ED187A3B6893ED007AD7F88C30D3ED05
:103D9000007A77EE677AC7ED177A3B68043393EDC4
:103DA000007AD7F88C300433D3ED007A77EE277A97
:103DB000C7ED167A3B68043393ED007AD7F88C3060
:103DC0000433D3ED007A77EE677AC7ED157AD7F82A
:103DD0009030043393ED007AD7ED177A37EE277AD7
:103DE000D7F888300433D3ED007A77EE677AC7EDE1
:103DF0000B7AD7F89030D3ED007A97ED157A37EE3D
:103E0000677AD7F88830D3ED007A77EE277AC7ED56
:103E10000C7AD7F89030D3ED007A97ED187A37EE18
:103E2000677AD7F88830D3ED007A77EE677AC7EDF6
:103E3000077AD7F890300433D3ED007A97ED167AED
:103E400037EE677AD7F888300433D3ED007A77EE0F
:103E5000677AC7ED087AD7F890300433D3ED007A4B
:103E600097ED177A37EE677AD7F888300433D3EDB9
:103E7000007A77EE277AC7ED037AD7F8903093ED82
:103E8000007AD7ED157A37EE277AD7F88830D3ED58
:103E9000007A77EE677AC7ED047A3B681A1D3A60BC
:103EA000D7F8902092ED007AD7ED187A37EE277A7E
:103EB000D7F88820D2ED007A77EE277AC3ED007A22
:103EC0003B681A1D3A60D7F89020043292ED007AD0
:103ED000D7ED167A37EE277AD7F888200432D2ED5C
:103EE000007A77EE277AC3ED007AD7F890301A1D62
:103EF000C7F89020FA6A1A60D7F890301A1DC7F8F0
:103F000090203A6B1A60D7F88C301A1DC7F88C20B5
:103F1000FA691A60D7F88C301A1DC7F88C203A6AF3
:103F20001A60D7F888301A1DC7F88820FA681A6016
:103F3000D7F888301A1DC7F888203A691A60FB6ED6
:103F40009B00D7F89C201344C7F89C30BB6E9B00A5
:103F5000D7F898201344C7F898307B6E9B00D7F8A9
:103F600094201344C7F89430D7F88030023B5B08A4
:103F7000C7F884301AE33B6893ED007AD7F88C30A9
:103F8000D3ED007A77EE277AC7ED187A3B6893ED88
:103F9000007AD7F88C30D3ED007A77EE677AC7EDE8
:103FA000177A3B68043393ED007AD7F88C300433EA
:103FB000D3ED007A77EE277AC7ED167A3B680433A3
:103FC00093ED007AD7F88C300433D3ED007A77EE96
:103FD000677AC7ED157AD7F89030043393ED007AFD
:103FE000D7ED177A37EE277AD7F888300433D3ED38
:103FF000007A77EE677AC7ED0B7AD7F89030D3ED79
:10400000007A97ED157A37EE677AD7F88830D3EDD6
:10401000007A77EE277AC7ED0C7AD7F89030D3ED97
:10402000007A97ED187A37EE677AD7F88830D3EDB3
:10403000007A77EE677AC7ED077AD7F890300433C5
:10404000D3ED007A97ED167A37EE677AD7F8883095
:104050000433D3ED007A77EE677AC7ED087AD7F8A4
:1040600090300433D3ED007A97ED177A37EE677A04
:10407000D7F888300433D3ED007A77EE277AC7ED8E
:10408000037AD7F8903093ED007AD7ED157A37EEB2
:10409000277AD7F88830D3ED007A77EE677AC7EDC4
:1040A000047A3B681A1D3A60D7F8902092ED007AA6
:1040B000D7ED187A37EE277AD7F88820D2ED007A34
:1040C00077EE277AC3ED007A3B681A1D3A60D7F87D
:1040D0009020043292ED007AD7ED167A37EE277AE7
:1040E000D7F888200432D2ED007A77EE277AC3ED34
:1040F000007AD7F8AC30043B93ED007AD7F8A430BF
:10410000043BD3ED007A77EE277AC7ED167AD7F81D
:10411000AC30043B93ED007AD7F8A430043BD3EDE8
:10412000007A77EE677AC7ED157AD7F8AC3093ED61
:10413000007AD7F8A430D3ED007A77EE277AC7ED6E
:10414000187AD7F8AC3093ED007AD7F8A430D3EDD5
:10415000007A77EE677AC7ED177AD7F8A83093ED33
:10416000007AD7F8A030D3ED007A37EE677AD7ED32
:10417000157A77EE277AC7ED0D7AD7F8AC3093ED44
:10418000007AD7F8A430D3ED007A37EE677AD7F803
:10419000A830043BD3ED007A37EE677AD7F8A03029
:1041A000043BD3ED007A77EE277AC7ED0E7AD7F885
:1041B000A830043BD3ED007A97ED167A37EE677A94
:1041C000D7F8A030043BD3ED007A77EE677AC7EDDD
:1041D000097AD7F8A830D3ED007A97ED187A37EE40
:1041E000677AD7F8A030D3ED007A77EE677AC7ED1B
:1041F0000A7AD7F8A83093ED007AD7F8A030D3ED3B
:10420000007A37EE677AD7ED157A77EE677AC7EDE1
:10421000057AD7F8A030043B93ED007AD7F8A830A0
:10422000043BD3ED007A37EE677AD7ED177A77EE55
:10423000677AC7ED067AD7F8AC301A1FC7F8AC20FA
:10424000D7F8A82092ED007AD7ED187A37EE277AC2
:10425000D7F8A020D2ED007A77EE277AC3ED007A66
:10426000D7F8AC301A1FC7F8AC20D7F8A820043A0A
:1042700092ED007AD7ED167A37EE277AD7F8A0209C
:10428000043AD2ED007A77EE277AC3ED007AD7F8B8
:104290009C301A1DC7F89C201B683B65D7F89C30E2
:1042A0001A1DC7F89C201B68FB6497ED0B7AD7EDAD
:1042B000147A67EE277AC7ED127A97ED0C7AD7ED6C
:1042C000137A67EE277AC7ED117A97ED0C7AD7ED5E
:1042D000147A67EE277AC7ED107A97ED0B7AD7ED4F
:1042E000137A67EE277AC7ED0F7AD7F890301A1D48
:1042F000C7F8902097ED127AD7ED117A77EE277AEA
:10430000C3ED007AD7F890301A1DC7F8902097EDCA
:10431000107AD7ED0F7A77EE677AC3ED007A97EDD2
:104320000E7AD7ED137A67EE277AC7ED127A97EDFA
:104330000D7AD7ED147A67EE277AC7ED117A97EDEB
:104340000D7AD7ED137A67EE277AC7ED107A97EDDD
:104350000E7AD7ED147A67EE277AC7ED0F7AD7F881
:10436000A8301A1FC7F8A82097ED127AD7ED117A56
:1043700077EE677AC3ED007AD7F8A8301A1FC7F82E
:10438000A82097ED107AD7ED0F7A77EE277AC3ED54
:10439000007AD7F898301B683B65D7F898305B688F
:1043A000FB64BB6E9B00D7F898201344C7F8983085
:1043B00097ED077AD7ED147A67EE277AC7ED127A70
:1043C00097ED087AD7ED137A67EE277AC7ED117A61
:1043D00097ED087AD7ED147A67EE277AC7ED107A51
:1043E00097ED077AD7ED137A67EE277AC7ED0F7A44
:1043F000D7F88C301A1DC7F88C2097ED127AD7EDBC
:10440000117A77EE277AC3ED007AD7F88C301A1D2F
:10441000C7F88C2097ED107AD7ED0F7A77EE677A90
:10442000C3ED007AD7ED0A7AB1EE677AD7ED147A48
:1044300067EE277AC7ED127A97ED097AD7ED137AEE
:1044400067EE277AC7ED117A97ED097AD7ED147ADE
:1044500067EE277AC7ED107A97ED0A7AD7ED137ACF
:1044600067EE277AC7ED0F7AD7F8A4301A1FC7F87E
:10447000A42097ED127AD7ED117A77EE677AC3ED23
:10448000007AD7F8A4301A1FC7F8A42097ED0F7A46
:10449000D7ED107A77EE677AC3ED007AD7F89430CB
:1044A0001B683B65D7F894305B68FB647B6E9B00B0
:1044B000D7F894201344C7F8943097ED037AD7EDDA
:1044C000147A67EE277AC7ED127A97ED047AD7ED62
:1044D000137A67EE277AC7ED117A97ED047AD7ED54
:1044E000147A67EE277AC7ED107A97ED037AD7ED45
:1044F000137A67EE277AC7ED0F7AD7F888301A1D3E
:10450000C7F8882097ED127AD7ED117A77EE277ADF
:10451000C3ED007AD7F888301A1DC7F8882097EDC8
:10452000107AD7ED0F7A77EE677AC3ED007A97EDC0
:10453000067AD7ED137A67EE277AC7ED127A97EDF0
:10454000057AD7ED147A67EE277AC7ED117A97EDE1
:10455000057AD7ED137A67EE277AC7ED107A97EDD3
:10456000067AD7ED147A67EE277AC7ED0F7AD7F877
:10457000A0301A1FC7F8A02097ED127AD7ED117A54
:1045800077EE677AC3ED007AD7F8A0301A1FC7F824
:10459000A02097ED107AD7ED0F7A77EE277AC3ED4A
:1045A000007AD7F88430013BC7F88430D7F88430DC
:1045B000002B7FF4E0AC3B6893ED007AD7F88C30A9
:1045C000D3ED007A77EE277AC7ED187A3B6893ED42
:1045D000007AD7F88C30D3ED007A77EE677AC7EDA2
:1045E000177A3B68043393ED007AD7F88C300433A4
:1045F000D3ED007A77EE277AC7ED167A3B6804335D
:1046000093ED007AD7F88C300433D3ED007A77EE4F
:10461000677AC7ED157AD7F89030043393ED007AB6
:10462000D7ED177A37EE277AD7F888300433D3EDF1
:10463000007A77EE677AC7ED0B7AD7F89030D3ED32
:10464000007A97ED157A37EE677AD7F88830D3ED90
:10465000007A77EE277AC7ED0C7AD7F89030D3ED51
:10466000007A97ED187A37EE677AD7F88830D3ED6D
:10467000007A77EE677AC7ED077AD7F8903004337F
:10468000D3ED007A97ED167A37EE677AD7F888304F
:104690000433D3ED007A77EE677AC7ED087AD7F85E
:1046A00090300433D3ED007A97ED177A37EE677ABE
:1046B000D7F888300433D3ED007A77EE277AC7ED48
:1046C000037AD7F8903093ED007AD7ED157A37EE6C
:1046D000277AD7F88830D3ED007A77EE677AC7ED7E
:1046E000047A3B681A1D3A60D7F8902092ED007A60
:1046F000D7ED187A37EE277AD7F88820D2ED007AEE
:1047000077EE277AC3ED007A3B681A1D3A60D7F836
:104710009020043292ED007AD7ED167A37EE277AA0
:10472000D7F888200432D2ED007A77EE277AC3EDED
:10473000007AD7F89C301B683B65D7F89C305B68E3
:10474000FB6497ED0B7AD7ED147A67EE277AC7ED05
:10475000127A97ED0C7AD7ED137A67EE277AC7EDC8
:10476000117A97ED0C7AD7ED147A67EE277AC7EDB8
:10477000107A97ED0B7AD7ED137A67EE277AC7EDAB
:104780000F7AD7F890301A1DC7F8902097ED127A5B
:10479000D7ED117A77EE277AC3ED007AD7F890300B
:1047A0001A1DC7F8902097ED107AD7ED0F7A77EEA3
:1047B000677AC3ED007AD7F898301B683B65D7F865
:1047C00098305B68FB6497ED077AD7ED147A67EE53
:1047D000277AC7ED127A97ED087AD7ED137A67EE4C
:1047E000277AC7ED117A97ED087AD7ED147A67EE3C
:1047F000277AC7ED107A97ED077AD7ED137A67EE2F
:10480000277AC7ED0F7AD7F88C301A1DC7F88C209D
:1048100097ED127AD7ED117A77EE277AC3ED007A09
:10482000D7F88C301A1DC7F88C2097ED107AD7ED89
:104830000F7A77EE677AC3ED007AD7F894301B6869
:104840003B65D7F894305B68FB6497ED037AD7ED4E
:10485000147A67EE277AC7ED127A97ED047AD7EDCE
:10486000137A67EE277AC7ED117A97ED047AD7EDC0
:10487000147A67EE277AC7ED107A97ED037AD7EDB1
:10488000137A67EE277AC7ED0F7AD7F888301A1DAA
:10489000C7F8882097ED127AD7ED117A77EE277A4C
:1048A000C3ED007AD7F888301A1DC7F8882097ED35
:1048B000107AD7ED0F7A77EE677AC3ED007AD7F8E2
:1048C00080309AB27B685B68F86F11461A46042301
:1048D00000F0CAF8D7F880309AB27B685B68B86F8E
:1048E00011461A46042300F0BFF8D7F880309AB278
:1048F0007B685B68786F11461A46042300F0B4F8B1
:10490000D7F880309AB27B685B68386F11461A46D8
:10491000042300F0A9F8B037BD4680BD80B588B04B
:1049200000AFF860B96011461A460B46FB7113469A
:10493000BB71FB681B887B61FB79012B17D1BB68BE
:104940000433BB610023FB610DE0BB69D3ED007A4A
:10495000F1EE677ABB69C3ED007ABB690833BB61CE
:10496000FB690133FB61FA697B699A42EDD37B698C
:10497000B3F5807F24D0B3F5807F0BD8202B1FD0D8
:10498000202B02D8102B16D02AE0402B1DD0802BD4
:1049900011D025E0B3F5806F0DD0B3F5806F03D84B
:1049A000B3F5007F11D01BE0B3F5006F08D0B3F56D
:1049B000805F0AD014E0F868B968FEF785FF0FE061
:1049C000F868B968FFF778F90AE07B699AB2FB6882
:1049D0005B68B86811461A46012300F045F800BF2D
:1049E000BB79002B08D0FB689A89FB689B68B86884
:1049F00011461A4607F0B8FFFB79012B30D17B69CD
:104A000007EE903AF8EE677AB7EE007AC7EE277AAB
:104A1000C7ED047ABB68BB610023FB611CE0BB6986
:104A20001A1DBA6193ED007AD7ED047A67EE277A02
:104A3000C3ED007ABB69D3ED007AB1EE677AD7EDAA
:104A4000047A67EE277ABB69C3ED007ABB69043349
:104A5000BB61FB690133FB61FA697B699A42DED372
:104A60002037BD4680BD00BF80B4BDB000AFF86048
:104A70007A601A460B467B8113463B81094BC7F887
:104A8000DC307B89C7F8E430D7F8E430C7F8D83099
:104A9000D7F8E430DB08C7F8E4300023C7F8E83083
:104AA00002E000BFF304353FD7F8E820D7F8E43040
:104AB0001344C7F8D430D7F8D420D7F8E4301344DF
:104AC000C7F8D030D7F8D020D7F8E4301344C7F86F
:104AD000CC30D7F8CC20D7F8E4301344C7F8C8302E
:104AE000D7F8C820D7F8E4301344C7F8C430D7F853
:104AF000C420D7F8E4301344C7F8C030D7F8C0203A
:104B0000D7F8E4301344C7F8BC30D7F8E830DB00FE
:104B1000FA68134493ED007AD7F8C830DB00FA68DE
:104B20001344D3ED007A77EE277AC7ED2E7AD7F8C3
:104B3000E830DB00FA68134493ED007AD7F8C83008
:104B4000DB00FA681344D3ED007A77EE677AC7ED9D
:104B50002D7AD7F8D430DB00FA68134493ED007A4D
:104B6000D7F8C430DB00FA681344D3ED007A77EE4F
:104B7000277AC7ED2C7AD7F8D430DB00FA681344D3
:104B800093ED007AD7F8C430DB00FA681344D3ED14
:104B9000007A77EE677AC7ED2B7AD7F8D030DB0052
:104BA000FA68134493ED007AD7F8C030DB00FA6856
:104BB0001344D3ED007A77EE277AC7ED2A7AD7F837
:104BC000D030DB00FA68134493ED007AD7F8C03098
:104BD000DB00FA681344D3ED007A77EE677AC7ED0D
:104BE000297AD7F8CC30DB00FA68134493ED007AC9
:104BF000D7F8BC30DB00FA681344D3ED007A77EEC7
:104C0000277AC7ED287AD7F8CC30DB00FA6813444E
:104C100093ED007AD7F8BC30DB00FA681344D3ED8B
:104C2000007A77EE677AC7ED277A97ED2E7AD7ED7F
:104C30002A7A77EE677AC7ED267A97ED2E7AD7ED46
:104C40002A7A77EE277AC7ED2E7A97ED2C7AD7ED70
:104C5000287A77EE677AC7ED2A7A97ED2C7AD7ED26
:104C6000287A77EE277AC7ED2C7AD7F8E830DB0080
:104C7000FA68134497ED2E7AD7ED2C7A77EE277ADF
:104C8000C3ED007AD7F8C830DB00FA68134497ED1B
:104C90002E7AD7ED2C7A77EE677AC3ED007AD7F8C3
:104CA000E830DB000433FA68134493ED007AD7F858
:104CB000C830DB000433FA681344D3ED007A77EE92
:104CC000277AC7ED2E7AD7F8E830DB000433FA688C
:104CD000134493ED007AD7F8C830DB000433FA6848
:104CE0001344D3ED007A77EE677AC7ED257AD7F8CB
:104CF000D430DB000433FA68134493ED007AD7F81C
:104D0000C430DB000433FA681344D3ED007A77EE45
:104D1000277AC7ED2C7AD7F8D430DB000433FA6851
:104D2000134493ED007AD7F8C430DB000433FA68FB
:104D30001344D3ED007A77EE677AC7ED247AD7F87B
:104D4000D030DB000433FA68134493ED007AD7F8CF
:104D5000C030DB000433FA681344D3ED007A77EEF9
:104D6000277AC7ED237AD7F8D030DB000433FA680E
:104D7000134493ED007AD7F8C030DB000433FA68AF
:104D80001344D3ED007A77EE677AC7ED227AD7F82D
:104D9000CC30DB000433FA68134493ED007AD7F883
:104DA000BC30DB000433FA681344D3ED007A77EEAD
:104DB000277AC7ED287AD7F8CC30DB000433FA68BD
:104DC000134493ED007AD7F8BC30DB000433FA6863
:104DD0001344D3ED007A77EE677AC7ED217A97ED29
:104DE0002E7AD7ED237A77EE677AC7ED207A97EDA2
:104DF0002E7AD7ED237A77EE277AC7ED2E7A97EDC4
:104E00002C7AD7ED287A77EE677AC7ED237A97ED7B
:104E10002C7AD7ED287A77EE277AC7ED2C7AD7F857
:104E2000E830DB000433FA68134497ED2E7AD7EDAF
:104E30002C7A77EE277AC3ED007AD7F8C830DB00FA
:104E40000433FA68134497ED2E7AD7ED2C7A77EE77
:104E5000677AC3ED007AD7F8D030DB00FA681344E4
:104E600097ED267AD7ED237A77EE277AC3ED007A8D
:104E7000D7F8C030DB00FA68134497ED267AD7EDF7
:104E8000237A77EE677AC3ED007AD7F8D030DB006B
:104E90000433FA68134497ED207AD7ED2A7A77EE37
:104EA000677AC3ED007AD7F8C030DB000433FA68C4
:104EB000134497ED207AD7ED2A7A77EE277AC3ED5F
:104EC000007A97ED2B7AD7ED277A37EE677AD7ED10
:104ED000377A67EE277AC7ED2E7A97ED2B7AD7EDE2
:104EE000277A37EE277AD7ED377A67EE277AC7ED3C
:104EF0002B7A97ED247AD7ED217A37EE677AD7EDC2
:104F0000377A67EE277AC7ED2C7A97ED247AD7EDBA
:104F1000217A37EE277AD7ED377A67EE277AC7ED11
:104F2000247A97ED2D7AD7ED2E7A77EE677AC7ED52
:104F3000267A97ED2D7AD7ED2E7A77EE277AC7ED80
:104F40002D7A97ED297AD7ED2B7A77EE677AC7ED30
:104F5000277A97ED297AD7ED2B7A77EE277AC7ED66
:104F6000297A97ED257AD7ED2C7A77EE677AC7ED17
:104F7000207A97ED257AD7ED2C7A77EE277AC7ED50
:104F8000257A97ED227AD7ED247A77EE677AC7ED06
:104F9000217A97ED227AD7ED247A77EE277AC7ED3A
:104FA000227AD7F8D430DB00FA68134497ED2D7AD3
:104FB000D7ED227A77EE277AC3ED007AD7F8BC30A6
:104FC000DB00FA68134497ED2D7AD7ED227A77EE5D
:104FD000677AC3ED007AD7F8C430DB00FA6813446F
:104FE00097ED267AD7ED217A77EE277AC3ED007A0E
:104FF000D7F8CC30DB00FA68134497ED267AD7ED6A
:10500000217A77EE677AC3ED007AD7F8D430DB00E7
:105010000433FA68134497ED257AD7ED297A77EEB1
:10502000677AC3ED007AD7F8BC30DB000433FA6846
:10503000134497ED257AD7ED297A77EE277AC3EDD9
:10504000007AD7F8C430DB000433FA68134497EDD4
:10505000207AD7ED277A77EE677AC3ED007AD7F812
:10506000CC30DB000433FA68134497ED207AD7ED97
:10507000277A77EE277AC3ED007AD7F8E820D7F8B9
:10508000D8301344C7F8E8307A89D7F8E8309A4224
:105090003FF60AADD7F8E430072B01D800F0E2BCA8
:1050A0000023C7F8EC300123C7F8E0303A89D7F87D
:1050B000EC301344FB67FB6FC7F8EC30D7F8EC20FB
:1050C000FB6F1344BB67BA6FFB6F13447B677A6F48
:1050D000FB6F13443B673A6FFB6F1344FB66FA6E3A
:1050E000FB6F1344BB66BA6EFB6F13447B66D7F845
:1050F000EC30DB007A6813441B683B66BB6FDB0057
:105100007A6813441B68FB657B6FDB007A68134485
:105110001B68BB653B6FDB007A6813441B687B65CB
:10512000FB6EDB007A6813441B683B65BB6EDB00DB
:105130007A6813441B68FB647B6EDB007A68134457
:105140001B68BB64D7F8EC30DB0004337A68134487
:105150001B687B64BB6FDB0004337A6813441B68F5
:105160003B647B6FDB0004337A6813441B68FB638A
:105170003B6FDB0004337A6813441B68BB63FB6E30
:10518000DB0004337A6813441B687B63BB6EDB006F
:1051900004337A6813441B683B637B6EDB00043383
:1051A0007A6813441B68FB62D7F8E030C7F8E83030
:1051B000D7F8E820D7F8E4301344C7F8D430D7F84C
:1051C000D420D7F8E4301344C7F8D030D7F8D02033
:1051D000D7F8E4301344C7F8CC30D7F8CC20D7F850
:1051E000E4301344C7F8C830D7F8C820D7F8E43003
:1051F0001344C7F8C430D7F8C420D7F8E4301344B8
:10520000C7F8C030D7F8C020D7F8E4301344C7F847
:10521000BC30D7F8E830DB00FA68134493ED007A2D
:10522000D7F8C830DB00FA681344D3ED007A77EE84
:10523000277AC7ED2E7AD7F8E830DB00FA681344F6
:1052400093ED007AD7F8C830DB00FA681344D3ED49
:10525000007A77EE677AC7ED2D7AD7F8D430DB0085
:10526000FA68134493ED007AD7F8C430DB00FA688B
:105270001344D3ED007A77EE277AC7ED2C7AD7F86E
:10528000D430DB00FA68134493ED007AD7F8C430C9
:10529000DB00FA681344D3ED007A77EE677AC7ED46
:1052A0002B7AD7F8D030DB00FA68134493ED007AFC
:1052B000D7F8C030DB00FA681344D3ED007A77EEFC
:1052C000277AC7ED2A7AD7F8D030DB00FA68134482
:1052D00093ED007AD7F8C030DB00FA681344D3EDC1
:1052E000007A77EE677AC7ED297AD7F8CC30DB0001
:1052F000FA68134493ED007AD7F8BC30DB00FA6803
:105300001344D3ED007A77EE277AC7ED287AD7F8E1
:10531000CC30DB00FA68134493ED007AD7F8BC3048
:10532000DB00FA681344D3ED007A77EE677AC7EDB5
:10533000277A97ED2E7AD7ED2A7A77EE677AC7ED3E
:10534000267A97ED2E7AD7ED2A7A77EE277AC7ED6F
:105350002E7A97ED2C7AD7ED287A77EE677AC7ED1B
:105360002A7A97ED2C7AD7ED287A77EE277AC7ED4F
:105370002C7AD7F8E830DB00FA68134497ED2E7AE0
:10538000D7ED2C7A77EE277AC3ED007A97ED2E7A57
:10539000D7ED2C7A77EE677AC7ED2C7AD7F8E8301C
:1053A000DB000433FA68134493ED007AD7F8C83071
:1053B000DB000433FA681344D3ED007A77EE277AE2
:1053C000C7ED0A7AD7F8E830DB000433FA681344F3
:1053D00093ED007AD7F8C830DB000433FA68134441
:1053E000D3ED007A77EE677AC7ED257AD7F8D43017
:1053F000DB000433FA68134493ED007AD7F8C43025
:10540000DB000433FA681344D3ED007A77EE277A91
:10541000C7ED097AD7F8D430DB000433FA681344B7
:1054200093ED007AD7F8C430DB000433FA681344F4
:10543000D3ED007A77EE677AC7ED247AD7F8D030CB
:10544000DB000433FA68134493ED007AD7F8C030D8
:10545000DB000433FA681344D3ED007A77EE277A41
:10546000C7ED237AD7F8D030DB000433FA68134451
:1054700093ED007AD7F8C030DB000433FA681344A8
:10548000D3ED007A77EE677AC7ED227AD7F8CC3081
:10549000DB000433FA68134493ED007AD7F8BC308C
:1054A000DB000433FA681344D3ED007A77EE277AF1
:1054B000C7ED087AD7F8CC30DB000433FA68134420
:1054C00093ED007AD7F8BC30DB000433FA6813445C
:1054D000D3ED007A77EE677AC7ED217A97ED0A7AF5
:1054E000D7ED237A77EE677AC7ED207A97ED0A7ABF
:1054F000D7ED237A77EE277AC7ED0A7A97ED097A06
:10550000D7ED087A77EE677AC7ED237A97ED097AB7
:10551000D7ED087A77EE277AC7ED097A97ED267AE4
:10552000D7ED237A77EE277AC7ED2E7A97ED267A94
:10553000D7ED237A77EE677AC7ED267AD7F8E83089
:10554000DB000433FA68134497ED0A7AD7ED097A41
:1055500077EE277AC3ED007A97ED0A7AD7ED097ACC
:1055600077EE677AC7ED097A97ED207AD7ED2A7A38
:1055700077EE677AC7ED0A7A97ED207AD7ED2A7A27
:1055800077EE277AC7ED207A97ED157AD7ED2C7A4A
:1055900067EE277AC7ED077A97ED0E7AD7ED097A8D
:1055A00067EE277AC7ED067A97ED157AD7ED097A77
:1055B00067EE277AC7ED057A97ED0E7AD7ED2C7A4C
:1055C00067EE277AC7ED047AD7F8C830DB00FA68AF
:1055D000134497ED077AD7ED067A77EE277AC3ED75
:1055E000007AD7F8C830DB000433FA68134497ED2B
:1055F000057AD7ED047A77EE677AC3ED007A97EDF6
:10560000177AD7ED2E7A67EE277AC7ED077A97EDEE
:10561000107AD7ED0A7A67EE277AC7ED067A97ED0A
:10562000177AD7ED0A7A67EE277AC7ED057A97EDF4
:10563000107AD7ED2E7A67EE277AC7ED047AD7F87D
:10564000D030DB00FA68134497ED077AD7ED067A7D
:1056500077EE277AC3ED007AD7F8D030DB00043339
:10566000FA68134497ED057AD7ED047A77EE677AF6
:10567000C3ED007A97ED137AD7ED267A67EE277A95
:10568000C7ED077A97ED0C7AD7ED207A67EE277A87
:10569000C7ED067A97ED137AD7ED207A67EE277A71
:1056A000C7ED057A97ED0C7AD7ED267A67EE277A63
:1056B000C7ED047AD7F8C030DB00FA68134497EDE1
:1056C000077AD7ED067A77EE277AC3ED007AD7F816
:1056D000C030DB000433FA68134497ED057AD7ED48
:1056E000047A77EE677AC3ED007A97ED2B7AD7EDDF
:1056F000277A37EE677AD7ED377A67EE277AC7EDE4
:105700002E7A97ED2B7AD7ED277A37EE277AD7EDD9
:10571000377A67EE277AC7ED2B7A97ED247AD7EDA3
:10572000217A37EE677AD7ED377A67EE277AC7EDB9
:105730000A7A97ED247AD7ED217A37EE277AD7EDDA
:10574000377A67EE277AC7ED247A97ED2D7AD7ED71
:105750002E7A77EE677AC7ED267A97ED2D7AD7ED18
:105760002E7A77EE277AC7ED2D7A97ED297AD7ED45
:105770002B7A77EE677AC7ED277A97ED297AD7EDFE
:105780002B7A77EE277AC7ED297A97ED257AD7ED30
:105790000A7A77EE677AC7ED207A97ED257AD7ED0A
:1057A0000A7A77EE277AC7ED257A97ED227AD7ED38
:1057B000247A77EE677AC7ED217A97ED227AD7EDD2
:1057C000247A77EE277AC7ED227A97ED2D7AD7EDF6
:1057D000227A77EE277AC7ED2E7A97ED2D7AD7EDDC
:1057E000227A77EE677AC7ED2D7A97ED267AD7ED94
:1057F000217A77EE277AC7ED2B7A97ED267AD7EDC7
:10580000217A77EE677AC7ED267A97ED257AD7ED7C
:10581000297A77EE677AC7ED0A7A97ED257AD7ED80
:10582000297A77EE277AC7ED257A97ED207AD7ED9A
:10583000277A77EE677AC7ED247A97ED207AD7ED4D
:10584000277A77EE277AC7ED207A97ED187AD7ED89
:105850002E7A67EE277AC7ED077A97ED117AD7EDA2
:105860000A7A67EE277AC7ED067A97ED187AD7EDB0
:105870000A7A67EE277AC7ED057A97ED117AD7EDA8
:105880002E7A67EE277AC7ED047AD7F8D430DB009A
:10589000FA68134497ED077AD7ED067A77EE277A00
:1058A000C3ED007AD7F8D430DB000433FA68134430
:1058B00097ED057AD7ED047A77EE677AC3ED007A33
:1058C00097ED127AD7ED2D7A67EE277AC7ED077A32
:1058D00097ED0B7AD7ED257A67EE277AC7ED067A32
:1058E00097ED127AD7ED257A67EE277AC7ED057A1C
:1058F00097ED0B7AD7ED2D7A67EE277AC7ED047A0C
:10590000D7F8BC30DB00FA68134497ED077AD7ED7F
:10591000067A77EE277AC3ED007AD7F8BC30DB0041
:105920000433FA68134497ED057AD7ED047A77EEDD
:10593000677AC3ED007A97ED147AD7ED2B7A67EE8C
:10594000277AC7ED077A97ED0D7AD7ED247A67EEBF
:10595000277AC7ED067A97ED147AD7ED247A67EEA9
